:020000040800F2
:100000003006002031020008511A0008491A000881
:100010004D1A000835060008A91D00080000000060
:10002000000000000000000000000000591A000855
:100030003906000800000000551A00085D1A000883
:100040005502000855020008550200085502000834
:100050005502000855020008550200085502000824
:100060005502000855020008550200085502000814
:100070005502000855020008550200085502000804
:1000800055020008550200085502000855020008F4
:1000900055020008550200085502000855020008E4
:1000A00055020008550200085502000855020008D4
:1000B00055020008550200085502000855020008C4
:1000C00055020008550200085502000855020008B4
:1000D000550200089D1D0008550200085502000841
:1000E0005502000855020008550200085502000894
:1000F0005502000855020008550200085502000884
:100100005502000855020008D51A000855020008DB
:100110005502000855020008550200085502000863
:100120005502000855020008550200085502000853
:100130005502000855020008550200085502000843
:100140005502000855020008550200085502000833
:100150005502000855020008550200085502000823
:100160005502000855020008550200085502000813
:100170005502000855020008550200080000000062
:10018000550200085502000800F002F800F041F89E
:100190000AA090E8000C82448344AAF10107DA45E2
:1001A00001D100F036F8AFF2090EBAE80F0013F0F3
:1001B000010F18BFFB1A43F0010318470C1F000082
:1001C0002C1F0000103A24BF78C878C1FAD8520713
:1001D00024BF30C830C144BF04680C6070470000C1
:1001E0000023002400250026103A28BF78C1FBD840
:1001F000520728BF30C148BF0B607047752900F017
:10020000C380002070471FB501F045FF1FBD10B52A
:1002100010BD00F0DDF91146FFF7F5FF01F076FEA5
:1002200000F0FBF903B4FFF7F2FF03BC01F0BEFDE1
:100230000C48016841F4700101600B4880470B488D
:100240000047FEE7FEE7FEE7FEE7FEE7FEE7FEE724
:10025000FEE7FEE7FEE7000005480649044A064BB4
:100260007047000088ED00E0611A0008890100086D
:10027000300200203006002030020020704753EA90
:10028000020C00F069802DE9F04B4FF00006002BC6
:100290001FBFB3FA83F503FA05F424FA05F65E40AE
:1002A00012BF1643B2FA82F502FA05F4C5F1200531
:1002B0001EBF22FA05FC44EA0C04203556EA044C21
:1002C0004FEA144418BF641C4FF000084FF00009B7
:1002D000904271EB030C39D3002919BFB1FA81F7B1
:1002E00001FA07F6B0FA80F700FA07F6C7F120071F
:1002F0001EBF20FA07FC46EA0C062037B6FBF4FCCA
:10030000A7EB0507103F07F01F0BCBF120062CFAD7
:1003100006F60CFA0BFB44BFB3460026202FA4BF01
:100320005E464FF0000B5BEA060C08BF4FF0010B76
:1003300019EB0B0948EB0608ABFB027C06FB02CC71
:100340000BFB03CCC01B71EB0C01C1E70B46024653
:1003500041464846BDE8F08B13B5084318BF4FF03F
:10036000FF300146AFF30080BDE81C40704700003D
:100370000FB4044910B503AA029800F0FBF810BCB2
:100380005DF814FBC00000202DE9F0410646002472
:1003900010687529314616A510D0AFF300800028EB
:1003A00002DA404213A507E031688A0701D512A599
:1003B00002E0490704D511A5012401E0AFF3008054
:1003C00000210A2206F1240709E0B0FBF2FCB0FB91
:1003D000F2F302FB1C00303078541846491C002808
:1003E000F3D123462A463046BDE8F04100F068B814
:1003F000000000002D0000002B0000002000000085
:100400002DE9F0410F460546002028622846E9689C
:10041000884770B3252805D0D5E901219047286A7F
:10042000401CF2E7E9682846002688476C28044605
:100430000AD0682C08D04C2C35D06A2C31D0742CC2
:1004400031D07A2C2FD016E0E96806462846884736
:10045000B042044608D16C2E23D04FF48066284663
:10046000E9688847044606E06C2E03D04FF4807696
:1004700001E01EE04026E4B1A4F14100192802D8B1
:10048000203446F400663A46214628462E60FFF79F
:10049000B5FE60B1012808D0FF1D27F00707083717
:1004A000B4E78026DBE70026D9E73F1DAEE720460C
:1004B000B2E7286ABDE8F08170477047704770471F
:1004C0002DE9F0470D4699469246044600F124086E
:1004D0000168880604D5E06921F01001216000E080
:1004E0000120A84201DD471B00E00027A1697A191D
:1004F00002EB0900081AA0612078C00602D4204649
:10050000AFF30080002608E0D4E901211AF80600C4
:100510009047206A401C761C20624E45F4DB207810
:10052000C0060AD52046AFF3008006E0D4E90121D9
:1005300030209047206A401C2062381EA7F1010736
:10054000F4DC07E0D4E9012118F805009047206A9F
:10055000401C2062281EA5F10105F3DC2046AFF304
:1005600000802078000602D50220BDE8F087012037
:10057000FBE70000074B70B50D467B4400F011F817
:100580000446284600F020F810B14FF0FF3070BD4F
:10059000204670BD6719000001694A1C0261087895
:1005A000704700B58FB0CDE90131002105910549B3
:1005B0007944CDE9031011466846FFF721FF0FB0DB
:1005C00000BD0000E5FFFFFF007B00F080007047EA
:1005D000754600F02BF8AE4605006946534620F0FC
:1005E0000700854618B020B5FFF736FEBDE820406D
:1005F0004FF000064FF000074FF000084FF0000BDF
:10060000AC46ACE8C009ACE8C009ACE8C009ACE84D
:10061000C00921F007018D46704710B50446AFF3BD
:1006200000802046BDE81040FFF7FCBD0048704741
:1006300010000020FEE700007047000070B5866DD6
:10064000044600F039F994F83510022928D10546FE
:100650002068216C026822F016020260426922F0D2
:100660008002426109B9A16C19B1016821F0080149
:100670000160016821F00101016000BF206800688D
:10068000C00714D000F018F9401B0628F6D320202C
:100690006065002084F83400032084F8350070BDC4
:1006A00080206065002084F83400012070BDE06D7A
:1006B0003F2101FA00F0B0600020012184F83400ED
:1006C00084F8351070BD000090F83510022909D16A
:1006D000052180F835100068016821F001010160F2
:1006E0000020704780214165012070472DE9F04FBF
:1006F00082B000F13E4241F6004502F1FF77C4F2BC
:100700000205082243F6004E4FEAB726A84208BF6A
:100710000722C4F2010E072E38BF4FEAB722012587
:10072000002700264FF00008009208E008F10108B9
:100730000436B8F1100F07F1020700F0A4800C682E
:1007400005FA08F914EA090FF0D0D1F804C0032221
:100750000CF0030BABF10104BA40012C6FEA020A62
:1007600010D88268CC6802EA0A02BC402243826048
:100770004268CCF3001422EA090204FA08F4224386
:10078000426005E0BBF1030F02D14FF0030B20E004
:10079000C2688C6802EA0A02BC402243BBF1020F25
:1007A000C26016D16FF0030202EA58020244D2F886
:1007B00020C006F01C050F230C69AB402CEA030394
:1007C00004FA05F52B431362D1F804C001250CF09F
:1007D000030B02680BFA07F302EA0A021A435FEA04
:1007E000CC030260A2D5002243F644030192C4F276
:1007F00002031A684FF6084C42F480421A601A68E5
:10080000CFF6FF7C02F480420192019A28F00302A5
:10081000724452F80C3006F00C050F24AC40A34390
:10082000009C04FA05F52B4342F80C30DEF800205A
:100830004B6842EA0905DC0358BF22EA0905CEF8F5
:100840000050DEF804209C0342EA090558BF22EA62
:100850000905CEF80450DEF80820DC0242EA09055A
:1008600043F60C4458BF22EA0905CEF80850C4F2FA
:10087000010422689B0242EA090558BF22EA0905E1
:100880002560012552E702B0BDE8F08F426902EA17
:100890000103914341EA034181617047002A08BF87
:1008A000090481617047000042F20000CEF20400AA
:1008B0000068000C7047000040F22C20C2F20000DB
:1008C0000068704740F2080040F22C21C2F200009C
:1008D000C2F2000100780A68104408607047000006
:1008E00080B543F60040C4F20200016841F4007193
:1008F0000160016841F480610160052000F072F838
:100900000F2000F005F800F02BF8002080BD00005B
:10091000B0B540F20802C2F2000240F204011278BF
:10092000C2F200014FF47A730968B3FBF2F2044695
:10093000B1FBF2F1084600F023FB0F2C4FF001054C
:100940000CD858B94FF0FF3021460022002500F0A6
:100950001DF840F20C00C2F2000004602846B0BD51
:1009600070470000002848BF7047C1B200F01F0068
:10097000012202FA00F04EF20012CEF2000242EA28
:10098000D10121F0030108607047000010B54EF658
:100990000C5CCEF2000CDCF80030C3F3022E8EF0BB
:1009A0000704042C28BF0424BEF103034FF0FF3ECC
:1009B0000EFA04F438BF0023A14399400EFA03F362
:1009C0009A43114300F00F0200F160430901043A19
:1009D00003F564436244002848BF02F10C03197018
:1009E00010BD00004EF60C51CEF200010A684FF621
:1009F000FF031A4060F30A2242F0806040F0FD706D
:100A0000086070472DE9F041002800F08B8043F624
:100A10000808C4F202080446D8F8F8030D4600F0AE
:100A20000700884207D288F8F853D8F8F80300F096
:100A30000700A84276D12068810717D5410705D560
:100A4000D8F8001041F4E051C8F80010010705D5AE
:100A5000D8F8001041F46041C8F80010D8F8001030
:100A6000A26821F0F0011143C8F80010C0073FD17F
:100A7000D8F8F80300F00700A84207D988F8F8531F
:100A8000D8F8F80300F00700A8424BD120684107CE
:100A900007D5D8F80010E26821F4E0511143C8F8F6
:100AA0000010000708D5D8F80000216920F4604044
:100AB00040EAC100C8F8000000F07CF8D8F8001047
:100AC00042F2B002C1F30311C0F60002515C40F2E1
:100AD000040220FA01F140F20C00C2F200000068AA
:100AE000C2F200021160FFF713FF0020BDE8F081A1
:100AF0006068811E022907D258F8081C89015CBF72
:100B00000120BDE8F08110E0012807D158F8081C49
:100B100089035CBF0120BDE8F08106E058F8081C9D
:100B2000890702D40120BDE8F081D8F8001021F037
:100B300003010843C8F80000FFF7BEFE064641F275
:100B4000883700BFD8F80000616800F00C00B0EBF7
:100B5000810F8DD0FFF7B0FE801BB842F2D9032081
:100B6000BDE8F08140F2040043F60801C2F2000043
:100B7000C4F202010068096842F2C002C1F3822196
:100B8000C0F60002515CC8407047000040F204000B
:100B900043F60801C2F20000C4F2020100680968CD
:100BA00042F2C002C1F34231C0F60002515CC840BB
:100BB0007047000010B543F60404C4F202046068F4
:100BC00000F00C0142F200400829C0F2F40007D006
:100BD000042918BF10BD41F20020C0F27A0010BDF8
:100BE000216801F03F02216823684902C3F388119C
:100BF00005D4A1FB00010023FFF741FB06E041F211
:100C00000020C0F27A004843B0FBF2F021680222D3
:100C1000C1F3014102EB4101B0FBF1F010BD000056
:100C20002DE9F04182B0002868D00446007843F6F0
:100C30000006C007C4F202060BD0B06800F00C003A
:100C4000042840F09C803068800302D5606800284A
:100C500054D0207880071AD5B06810F00C0F09D056
:100C6000B06800F00C00082840F0A38070684002D3
:100C700000F19F803068800702D5E06801283DD1EF
:100C80003068216920F0F80040EAC1003060207827
:100C9000000737D4207840074BD4A56955B3B06816
:100CA00000F00C00082840F0B780012D26D07068B5
:100CB000E16900F480028A4220D1216A00F03F02FB
:100CC0008A421BD147F6C071626A0140B1EB821FB4
:100CD00014D1A16A4FF6FF73C903994300F440325F
:100CE000A1F580318A4209D1E16A00F07060B0EB71
:100CF000016F03D1002002B0BDE8F081012002B0F5
:100D0000BDE8F0816069002840F20000C4F247208D
:100D100072D00121C0F8801EFFF7CEFD054600BF4E
:100D2000706F8007B6D4FFF7C7FD401B0228F7D9C4
:100D3000D7E0306C10F080580AD100200190306C60
:100D400040F080503064306C00F080500190019889
:100D500047F20007C4F200073868C0053ED438687F
:100D600040F480703860FFF7A7FD05463868C0057D
:100D700034D4FFF7A1FD401B0228F7D9B1E0B068D9
:100D800000F00C00082803D1706840023FF55BAF0B
:100D90006068B0F5803F07D0B0F5A02F40F08B80A1
:100DA000306840F480203060306840F4803030603B
:100DB0008BE0E068002851D00020C4F247200121D8
:100DC0000160FFF779FD0546306880073FF558AFB1
:100DD000FFF772FD401B0228F6D982E0A0680128C7
:100DE00005D005284ED1306F40F004003067306FD9
:100DF00040F0010030674FE00021C0F8801EFFF78F
:100E00005BFD0546706F80077FF544AFFFF754FD2B
:100E1000401B0228F6D964E00027C4F247270020CF
:100E20003866FFF749FD022D05460BD13068800179
:100E30005BD5FFF741FD401B02284FF00300F5D9B9
:100E400059E700BF306880017FF554AFFFF734FDEC
:100E5000401B02284FF00300F4D94CE70020C4F2F5
:100E6000472000210160FFF727FD05463068800715
:100E70007FF50DAFFFF720FD401B02284FF0030068
:100E8000F4D938E7316F002821F001013167316F63
:100E900021F00401316749D0FFF70EFD054641F20C
:100EA000883700BF306F800751D4FFF705FD401B26
:100EB000B842F7D915E03168002821F4803131605B
:100EC000316821F4802131604AD0FFF7F5FC0546F6
:100ED000306880033FF5BDAEFFF7EEFC401B642891
:100EE000F6D9032002B0BDE8F08104F11C052FCD36
:100EF000084340EA8210D9034FF6FF729143A1F5EF
:100F0000803140EA05600843706001203866FFF7D1
:100F1000D3FC0446306880013FF5ECAEFFF7CCFC13
:100F2000001B02284FF00300F4D9E4E6FFF7C4FCED
:100F3000054641F2883700BF306F800707D5FFF7BD
:100F4000BBFC401BB8424FF00300F5D9D3E6B8F123
:100F5000000F7FF4A2AE306C20F0805030649CE62D
:100F6000FFF7AAFC054600BF306880037FF571AE2D
:100F7000FFF7A2FC401B64284FF00300F4D9BAE647
:100F8000411E0020B0EB116F1CBF012070474EF2D4
:100F90001002CEF2000251604EF62351CEF2000153
:100FA000F0230B70072190601160704770470000BC
:100FB00070470000B0B50446007F012819D140F207
:100FC0007005C2F2000595F90000002848BFB0BDC9
:100FD000287840060ED440202870002068802168C0
:100FE0004862086A20F00A000862086A40F00200BD
:100FF0000862B0BD2878002140F0800028702046AB
:1010000000F0D8FA68802068016A21F00A010162C4
:10101000016A0162B0BD0000F0B590F83C30012BD0
:1010200004BF0220F0BD082A25D0042A43D0002A9C
:101030005FD10368D1E900C5D1F80CE01A6A41F22A
:10104000FF7722F001021A621A4652F8186F1C6AE2
:10105000C4F20007BB4272DC40F2FF77C4F2000723
:10106000BB427ADCB3F1804F00F08E8040F2004743
:10107000C4F2000786E00768D1E900C5D1E9023172
:101080003A6A61F3071522F480723A623A4652F8DE
:101090001C4F3E6A24F0F30445EA040126F420665E
:1010A0000CF00A0546EA052611603E62116821F03F
:1010B0000C01116079E00368D1E900E6D1E902C1D1
:1010C0001A6A360222F010021A621A4652F8184FB3
:1010D0004FF2FF071D6ABE4324F4734461F30F36D9
:1010E00046EA040125F0A0040EF00A0744EA0717B7
:1010F0001CE00368D1E900E6D1E902C11A6A3602B0
:1011000022F480521A621A4652F81C4F4FF2FF071F
:101110001D6ABE4324F4734461F30F3646EA0401AA
:1011200025F420440EF00A0744EA073711601F62D5
:1011300011684FEA0C2321F44061116035E040F260
:10114000FF37C4F20107BB4212DC41F60007C4F2CC
:101150000007BB4218D0002712E040F60007C4F297
:101160000007BB4210D040F60047C4F2000709E078
:1011700044F20007C4F20107BB4205D040F2004729
:10118000C4F20107BB4218D126F00306354324F010
:101190000A070CF00A066EF3071537449D611F62BB
:1011A0009F6927F00C079F618B68116819431160D4
:1011B000002180F83C100846F0BD46F00105E6E746
:1011C000002804BF0120704710B5044690F83D0088
:1011D00028B9002084F83C00204600F01FF80220C7
:1011E00084F83D002068211D00F07AFC012084F87D
:1011F000460084F83E0084F83F0084F8400084F8FC
:10120000410084F8420084F8430084F8440084F8E4
:10121000450084F83D00002010BD000080B586B078
:10122000016840F60040C4F20000814201D006B0DF
:1012300080BD002143F630020191C4F2020213681E
:1012400000F5FA3043F001031360136803F0010363
:101250000193019B0191116941F00801116111692C
:1012600001F0080101910199012101910221CDE9CB
:101270000211CDE9041101A9FFF738FA322001214A
:101280000022FFF783FB3220FFF76CFB06B080BD26
:1012900061B1082916D0042919BF00F1410200F1FB
:1012A000450300F13F0200F143030FE090F83E20B8
:1012B00090F84230012A4FF0010208BF012B17D0ED
:1012C0001046704700F1400200F1440312781B7889
:1012D000012A4FF0010208BF012BF1D10222082997
:1012E0000CD004290FD180F83F2080F843200EE075
:1012F000022280F83E2080F8422008E080F840205A
:1013000080F8442003E080F8412080F845204FEA2F
:10131000B102032A08D8DFE802F002090E130068C0
:10132000C26842F002020FE000680EE00068C26886
:1013300042F0040208E00068C26842F0080203E0DC
:101340000068C26842F01002C26001F01F01012271
:10135000036A02FA01F123EA01020262026A1143FE
:1013600041F2FF72C4F20002904201620DDC40F2D1
:10137000FF71C4F20001884215DCB0F1804F29D022
:1013800040F20041C4F2000122E040F2FF31C4F219
:101390000101884212DC41F60001C4F200018842DA
:1013A00018D0002112E040F60001C4F2000188428A
:1013B00010D040F60041C4F2000109E044F20001FF
:1013C000C4F20101884205D040F20041C4F201019B
:1013D000884206D1816801F00701062904BF002078
:1013E00070470168002241F001010160104670471A
:1013F00010B5016804460869800744BFC8685FEA01
:10140000807038D40869400744BFC8685FEA4070FC
:101410003DD40869000744BFC8685FEA007043D440
:101420000869C00644BFC8685FEAC06048D408695C
:10143000C0071CBFC8685FEAC0704ED108690006CB
:1014400044BFC8685FEA00604FD40869400644BFE3
:10145000C8685FEA406050D40869800646BFC86823
:101460005FEA806010BD6FF0200220460A61BDE88F
:101470001040FFF79DBD6FF002000861012020774A
:101480008869800741D02046FFF794FD43E06FF064
:101490000400086102202077886910F4407F3ED064
:1014A0002046FFF787FD40E06FF008000861042048
:1014B0002077C86980073CD02046FFF77BFD3EE0DF
:1014C0006FF01000086108202077C86910F4407F91
:1014D00039D02046FFF76EFD3BE06FF00100086158
:1014E000204600F03FF82168A8E76FF0800008610F
:1014F0002046FFF75BFD2168A7E76FF04000086119
:10150000204600F071F82168A6E7204600F026F892
:10151000204600F025F821680020207772E7204659
:1015200000F01CF8204600F01BF82168002020770E
:101530006FE7204600F012F8204600F011F821680D
:10154000002020776CE7204600F008F8204600F0E5
:1015500007F821680020207769E700007047000045
:1015600070470000006840F60041C4F20001884264
:1015700000D0704740F27000C2F2000001784906C6
:10158000F7D590F90010002948BF7047017802781C
:1015900001F03F013F2906D142F0800101704FF672
:1015A000FF714180704702F0C002013111430170A8
:1015B000704700004FEAB101032984BF0020704743
:1015C000DFE801F0020E060A006834300068704758
:1015D00000683C3000687047006840300068704721
:1015E000006838300068704770470000704700009E
:1015F00070470000B0B582B0026805461068D36835
:10160000546900F02F01202903F0200106D129B1EF
:10161000284602B0BDE8B04000F0FABA5FEA007CAC
:101620001EBF04F0010E03F4907414EB0E0453D1AA
:10163000296B012905D110F0100118BF13F010011A
:1016400036D1010622D513F080011FD095F83D0058
:1016500021283FD1A868B0F5805F03D12869002810
:1016600000F0F780286A411C296200785060E88CFD
:1016700001380104E8842DD1D06820F08000D060CA
:10168000D06840F04000D06002B0B0BD400621D527
:1016900013F040001ED0D068202120F04000D06020
:1016A000284685F83D1002B0BDE8B04000F0CAB948
:1016B00000200190106801905068019001985069D5
:1016C000400611D4A88DE98DEB8D002B18BF884200
:1016D00040F0A68002B0B0BDC40718BF13F48073F9
:1016E0002DD1430731D437E0A86B01684B689CB219
:1016F000002CEFD0A98D8C42ECD2EB85C369B3F5F9
:10170000807F17D0D16821F48071D160516921F0B8
:1017100001015161516921F040015161202185F899
:101720003E1000212963D16821F01001D160FEF73D
:1017300085FFA98DE88D081A81B2284684E02B6CBC
:1017400043F001032B64430706D5BEF1000F03D01D
:101750002B6C43F002032B64830706D5BEF1000F08
:1017600003D02B6C43F004032B64BCF1000F09D5AC
:1017700041EA0E03B3FA83F35B0903D12B6C43F008
:1017800008032B642B6C002BA4D010F0200018BF92
:10179000002903D0284600F03BFA2A685069296CDA
:1017A00000F0400001F0080140182CD0D06820F46F
:1017B0009070D060506920F001005061286B0128C2
:1017C00003D1D06820F01000D060202085F83E00C2
:1017D00000202863506940061CD5506920F0400065
:1017E0005061A86BB0B141F60541C0F6000101653A
:1017F000FEF76AFF00283FF46DAFA86B016D02B0E1
:10180000BDE8B04008472846FFF7F2FE00202864F4
:1018100002B0B0BD284602B0BDE8B040FFF7E8BE58
:10182000D368401A23F49073D360536981B223F0D4
:1018300001035361202385F83E3000232B63D368D6
:10184000284623F01003D36002B0BDE8B040FFF794
:10185000CDBE286A30F8021B6FF35F215160286209
:1018600005E70000002804BF0120704710B50446BA
:1018700090F83D0028B9002084F83C00204600F094
:1018800021F8242084F83D002068C16821F400512B
:10189000C160204600F00CFA2068016921F49041F3
:1018A0000161416921F02A014161C16841F400519F
:1018B000C16000202021206484F83D1084F83E108F
:1018C00010BD000070B586B00024C4F202040068A8
:1018D000A4F57041884201D006B070BD002043F6E7
:1018E00030010190C4F202014A6901AD42F01002D8
:1018F0004A614A69072602F010020192019A01909A
:101900000A6842F001020A600A6802F001020192CC
:10191000019A0190086840F0010008600868012100
:1019200000F00100019001984FF400700190022036
:101930000290CDE90310204629460596FEF7D6FE13
:101940004FF480600190204629460596FEF7CEFEB2
:101950002520FFF707F8252003210322FFF716F8BB
:1019600006B070BD034690F83E0020280AD1002939
:101970004FF0010018BF002A00D1704793F83C00D7
:10198000012801D1022070470020186399622221AA
:101990009A85DA85186483F83E10196883F83C004C
:1019A000CA6842F48072CA604A6942F001024A6120
:1019B000CA6842F02002CA607047000080B5006823
:1019C00041F20001C4F20101884218BF80BD40F21B
:1019D000282EC2F2000EBEF90010002924D440F2D5
:1019E0001812C2F2000289B213784A0404D40D2BF3
:1019F0000CD141F4804215E048F2000C0022CFF6F1
:101A0000FF7C0A2B08BF41EA0C020BE00A4640F2B9
:101A100060106FF39F32C2F2000083544A1CC62943
:101A200088BF0022AEF8002040F21C1040F21811CE
:101A3000C2F20000C2F200010122BDE88040FFF7BF
:101A400091BF000070470000FEE70000FEE70000C5
:101A5000704700007047000070470000FEF732BF7B
:101A60004EF68850CEF20000016841F4700101602A
:101A700070470000B0B584B040F27804C2F20004B0
:101A800040F600420025C4F20002C4E9025020469C
:101A9000C4E900212561FFF793FB0120CDE9010591
:101AA00069462046002200950395FFF7B5FA2068A5
:101AB000C16841F00101C16020460021FFF7E8FB49
:101AC00020686FF0010101616FF00201016104B053
:101AD000B0BD000040F27800C2F20000FFF788BC01
:101AE00010B540F6FF3E0368C4F2000E40F2004C11
:101AF0007045C4F2010C0FDCB0F1804F19D040F2F8
:101B00000042C4F20002904213D040F60002C4F238
:101B1000000290420DD010E040F60042C4F20002F4
:101B2000904206D0604504D00022C4F201029042E7
:101B300003D14A6823F07003134341F6FF72C4F2E5
:101B4000000290420DDC70451FDCB0F1804F41D0A7
:101B500040F20042C4F2000290423BD040F6000244
:101B600021E043F6FF72C4F20102904220DC42F20F
:101B70000002C4F2000290422CD00022C4F2010202
:101B8000904227D0604525D028E040F60042C4F2BC
:101B9000000290421ED041F60002C4F200029042C0
:101BA00018D041F60042C4F20002904212D015E073
:101BB00044F20002C4F2010290420BD044F600024B
:101BC000C4F20102904205D044F20042C4F2010284
:101BD000904203D1CA6823F44073134323F0800278
:101BE0004B69D1F800E08C681A430260C46240F48B
:101BF0008062C0F828E0624504BF096901630121E1
:101C0000416110BD806B0021C185C184FFF7F0BC2C
:101C100010B5044690F83E00222848D1A26821461B
:101C2000B2F5805F0CD151F8280F51F8182C8AB901
:101C3000216849686FF35F2120F8021BA0620FE062
:101C400051F8280F0AB9226922B12268526802F0BD
:101C50007F0201E022685268027008680130086063
:101C6000E08D01380104E08518BF10BD2068C1680F
:101C700021F02001C160C16821F48071C160416917
:101C800021F001014161202184F83E10216B0129DE
:101C900008D1C16821F01001C160A18D2046FFF775
:101CA000A5FC02E02046FFF789FE0020206310BD5E
:101CB00010B504460068D4E902C22369016921F421
:101CC000405111430161626943EA0C01E369114328
:101CD000C268194349F20C639A431143C1604169D8
:101CE000A26921F4407141F20043114340F4806243
:101CF000C4F201039A42416102D1FEF747FF01E0BD
:101D0000FEF730FFE16963681922B1F5004FA0FBCF
:101D1000020121D15A00DB0FFEF7B1FA48F21F5140
:101D2000C5F2EB11A0FB01235A094FF69C73C0F6D4
:101D3000FF7303F1805302FB0300322303EBC00067
:101D4000A0FB01014FF4F87000EA111000EB021043
:101D5000C1F3421108441DE09A009B0FFEF78FFA71
:101D600048F21F51C5F2EB11A0FB01235A094FF6AF
:101D70009C73C0F6FF7302FB0300322303EB0010D9
:101D8000A0FB0101F02000EA511000EB0210C1F3AA
:101D9000431108442168886010BD000040F21C1007
:101DA000C2F20000FFF726BCFEE70000704700000B
:101DB00080B5FEF795FD4FF4A87008210222072395
:101DC00000F0EAF84FF4E13000F046F9A82000F006
:101DD00083F800F04FF8BDE8804000F001B8000043
:101DE0002DE9F04186B0002643F630000196C4F29A
:101DF0000200016841F2000541F010010160016834
:101E0000C4F2020501F010010191019901960168E7
:101E10000DF1040841F0010101600068012400F0A7
:101E20000100019001981020CDE901060227284603
:101E3000414603940497FEF759FC0820CDE90106BA
:101E400028464146CDE90347FEF750FC0420CDE982
:101E5000010628464146CDE90347FEF747FC01A8A5
:101E6000D0C0A5F5805041460497FEF73FFC06B070
:101E7000BDE8F081B0B586B00020019043F6300097
:101E8000C4F20200016841F2004441F02001016007
:101E90000068C4F2020400F02000019001984FF4A1
:101EA000007001900120CDE90200032001AD0490F3
:101EB00020462946FEF71AFC4FF480600190204628
:101EC0002946FEF713FC20464FF4C0610122FEF7BD
:101ED000E5FC06B0B0BD000040F21411C2F20001F2
:101EE0000860704741F20001C4F201010A6852061D
:101EF00009D40A6852065CBF0A685FEA426202D4EB
:101F00000A685206F2D5C2B24A607047FFF750FF26
:101F10004FF6FF705321FFF7ADFD40F2700540F220
:101F20002A2441F200490027C2F20005C2F200044F
:101F3000C4F202090FF24C08002600BFFEF7BCFCF9
:101F4000801B0A28FAD3FEF7B7FC95F90010064665
:101F5000B1F1FF3F09DC2878698800F03F0041EAD1
:101F600000414046FEF704FA2F7020780130C1B2DC
:101F700032292070E2D348464FF400712770FEF7F3
:101F800085FCDBE7486967682074696D653A202540
:101F90006C752075730D0A002DE9F04192B043F67F
:101FA00040080026C4F20208CDE90A66CDE90866B9
:101FB0000596CDE90366CDE901660096D8F8007074
:101FC0004FF4800547F08057C8F80070D8F80070CB
:101FD00007F080570097009F47F200070096C4F271
:101FE00000073C6844F480443C603F68012407F4E7
:101FF00080470097009F4FF48037CDE90D510FA91E
:10200000079702270DC106A806940C97FEF708FE55
:10201000E8B90F20CDE901074FF4A05004904FF428
:102020008050059001A805210396FEF7EBFC08B14E
:1020300001240CE0FEF738FC41F20101884202BFA6
:10204000D8F8C00340F48070C8F8C00300242046CC
:1020500012B0BDE8F081000010B540F21C1441F24E
:102060000001C2F20004C4F2010100220C23C4E901
:1020700000102046C4E90222C4E90423A261FFF74C
:10208000F1FB40F21811C2F2000120460122BDE826
:102090001040FFF767BCF1EE100A4FF6FF71C0F277
:1020A000C03120EA010040F04070E1EE100A7047B4
:1020B00000000000000000000102030406070809F8
:1020C0000000000001020304E820000800000020D6
:1020D00010000000C4010008F820000810000020D3
:1020E00020060000E0010008010000000024F400C8
:0820F0000100000010000000D7
:040000050800018965
:00000001FF
