:020000040800F2
:100000002008002029020008BF1200086B12000817
:10001000BD120008C5030008A51A00080000000072
:10002000000000000000000000000000C3120008F3
:10003000C703000800000000C1120008591300089F
:10004000430200084302000843020008430200087C
:10005000430200084302000843020008430200086C
:10006000430200084302000843020008430200085C
:10007000430200084302000843020008430200084C
:10008000430200084302000843020008430200083C
:10009000430200084302000843020008430200082C
:1000A000430200084302000843020008430200081C
:1000B00043020008F9130008430200084302000845
:1000C00043020008430200084302000843020008FC
:1000D00043020008791A000843020008430200089E
:1000E00043020008430200084302000843020008DC
:1000F00043020008430200084302000843020008CC
:1001000043020008430200084302000843020008BB
:1001100043020008430200084302000843020008AB
:10012000430200084302000843020008430200089B
:10013000430200084302000843020008430200088B
:10014000430200084302000843020008430200087B
:10015000430200084302000843020008430200086B
:10016000430200084302000843020008430200085B
:100170004302000843020008430200080000000098
:10018000430200084302000800F002F800F03CF8C7
:100190000AA090E8000C82448344AAF10107DA45E2
:1001A00001D100F031F8AFF2090EBAE80F0013F0F8
:1001B000010F18BFFB1A43F001031847301A000063
:1001C000501A0000103A24BF78C878C1FAD85207F4
:1001D00024BF30C830C144BF04680C6070470000C1
:1001E0000023002400250026103A28BF78C1FBD840
:1001F000520728BF30C148BF0B6070471FB501F0E0
:10020000E3FC1FBD10B510BD00F0AAF81146FFF7C2
:10021000F5FF01F08BFC00F0C8F803B4FFF7F2FF24
:1002200003BC01F050FC0000094880470948004722
:10023000FEE7FEE7FEE7FEE7FEE7FEE7FEE7FEE796
:10024000FEE7FEE704480549054A064B70470000F3
:100250005D1300088901000820020020200800200A
:100260002004002020040020704753EA020C00F014
:1002700069802DE9F04B4FF00006002B1FBFB3FA49
:1002800083F503FA05F424FA05F65E4012BF16431F
:10029000B2FA82F502FA05F4C5F120051EBF22FA72
:1002A00005FC44EA0C04203556EA044C4FEA144499
:1002B00018BF641C4FF000084FF00009904271EB2A
:1002C000030C39D3002919BFB1FA81F701FA07F6F7
:1002D000B0FA80F700FA07F6C7F120071EBF20FA30
:1002E00007FC46EA0C062037B6FBF4FCA7EB050733
:1002F000103F07F01F0BCBF120060CFA0BFB2CFA7A
:1003000006F644BFB3460026202FA4BF5E464FF03A
:10031000000B5BEA060C08BF4FF0010B19EB0B0951
:10032000ABFB027C48EB0608C01B06FB02CC0BFBB8
:1003300003CC71EB0C01C1E70B460246414648462F
:10034000BDE8F08B13B54FF000004FF00001AFF3A4
:100350000080BDE81C407047704770477047704789
:10036000754600F02BF8AE4605006946534620F06E
:100370000700854618B020B5FFF764FFBDE82040B0
:100380004FF000064FF000074FF000084FF0000B51
:1003900021F00701AC46ACE8C009ACE8C009ACE804
:1003A000C009ACE8C0098D46704710B50446AFF3EC
:1003B00000802046BDE81040FFF72FBF004870477F
:1003C000BC010020FEE7704790F83510022903D0E9
:1003D0008021416501207047052180F835100068B3
:1003E000016821F001010160002070472DE9F84FFC
:1003F000DFF88C91002209F1040A0AF1040B4FF096
:100400000F080BF1040E01260B6896403340B342EF
:1004100071D14C68022C01D0122C11D1D40800EB00
:1004200084073D6A5407E40E08FA04FC25EA0C052B
:10043000D1F810C00CFA04FC4CEA050CC7F820C037
:1004400007685400032591F804C0A5400CF0030C84
:10045000AF430CFA04FC4CEA070CC0F800C04F682C
:10046000012F05D0022F03D0112F01D0122F11D14F
:100470008768D1F80CC0AF430CFA04FC4CEA070CB7
:10048000C0F808C04768B7430E79C6F30016964017
:100490003E434660C668AE438D68A5403543C5609F
:1004A0004C68E40065D5374C256845F480452560E7
:1004B000246822F0030504F480440094324C2E1981
:1004C000D6F808789407250F08FA05F4A7432F4CAF
:1004D000A04201D1002424E02D4CA04201D10124EE
:1004E0001FE02C4CA04201D102241AE02A4CA04269
:1004F00002D1032415E03CE0284CA04201D10424A1
:100500000FE0274CA04201D105240AE0254CA0426F
:1005100001D1062405E0244CA04201D1072400E0CB
:100520000824AC403C43C6F80848D9F800404D4682
:100530004E689C43F60300D51C432C60DAF800405B
:1005400055464E689C43B60300D51C432C60DBF82F
:1005500000405D464E689C43F60200D51C432C606B
:10056000DEF8004075464E689C43B60200D51C4339
:100570002C60521C102AFFF446AFBDE8F88F000033
:10058000003C01404438024000300140000002407D
:100590000004024000080240000C0240001002402B
:1005A0000014024000180240001C02400AB18161A0
:1005B00070470904FBE7000001480068000C704721
:1005C000002004E00148806870470000040000201B
:1005D000024881680278114481607047040000205D
:1005E000094810B5016841F400710160016841F4E7
:1005F00080610160052000F057F80F2000F006F838
:1006000000F024F8002010BD003C024070B50D4DF4
:1006100004464FF47A712878B1FBF0F00A49096872
:10062000B1FBF0F000F0D0FA48B9102C07D200224C
:100630002146501E00F018F800206C6070BD0120AB
:1006400070BD00000400002000000020704700285A
:1006500009DB00F01F02012191404009800000F1F8
:10066000E020C0F800117047F0B40E4B1B68C3F3D4
:100670000223C3F10704042C00D904241D1D072DF7
:1006800001D2002300E0DB1E012606FA04F56D1EF0
:100690000D409D409E40761E164045EA0601F0BC86
:1006A00001F001BA0CED00E0064A00F00701106805
:1006B0004FF6FF03184040EA012003490843106049
:1006C000704700000CED00E00000FA052DE9F0474E
:1006D0000D46040065D0DFF81491D9F80000EFB2A0
:1006E00000F00F00A84207D289F80070D9F8000086
:1006F00000F00F00A84254D120683D4E810712D56A
:10070000400703D5306840F4E0503060207800079F
:1007100003D5306840F4604030603068A16820F054
:10072000F000084330602078C0072DD03049606861
:100730000839012812D0022813D0032811D00968E3
:10074000890700292DDA316821F003010143316066
:10075000FFF738FF804641F2883A0EE009688903C6
:10076000EFE709688901ECE7FFF72CFFA0EB080130
:10077000514502D90320BDE8F0873068616800F078
:100780000C00B0EB810FEFD1D9F80010484601F012
:100790000F01A94207D90770006800F00F00A842B6
:1007A00001D00120E7E72078400705D53068E168EF
:1007B00020F4E050084330602078000706D5306808
:1007C000216920F4604040EAC100306000F036F852
:1007D0003168084AC1F30311515CC84006490860FA
:1007E0000F20FFF713FF0020C5E70000003C024088
:1007F00008380240D21B00080000002004480549C8
:1008000000680968044AC1F38221515CC8407047FE
:100810000000002008380240E21B00080448054997
:1008200000680968044AC1F34231515CC84070470E
:100830000000002008380240E21B0008154810B5EF
:10084000006810F00C01144813D0431004290FD095
:1008500008290ED10F4C241F216801F03F022168A6
:10086000490207D52068C0F38810A0FB030106E009
:10087000184610BD2168C1F38811A1FB00010023B7
:10088000FFF7F3FC2168C1F30141491C4900B0FBAB
:10089000F1F010BD083802400024F4002DE9F84FB3
:1008A000040073D02078BD4DC00748D0BB48083045
:1008B0000168C1F38101012908D00068C0F38100FB
:1008C00002280AD1281D0068400206D52868800346
:1008D00035D560680028E4D031E06068B0F5803F2D
:1008E00010D0B0F5A02F286810D020F480302860F8
:1008F000286820F4802028606068A0B1FFF762FEBD
:1009000006460CE0286840F48030F4E740F480208C
:100910002860F7E7FFF756FE801B642872D8286826
:100920008003F7D50BE0FFF74DFE064604E0FFF726
:1009300049FE801B6428F1D828688003F7D420780A
:10094000DFF85C9280074FF0000A3ED593480830EC
:10095000016811F00C0F09D00068C0F38100022873
:100960000BD18E48001D0068400206D4286880071D
:1009700015D5E068012809D111E0E068B8B101207F
:10098000C9F80000FFF71EFE064605E003E1FFF789
:1009900019FE801B0228C1D828688007F7D528686F
:1009A000216920F0F80040EAC10028600DE0C9F894
:1009B00000A0FFF707FE064604E0FFF703FE801BDA
:1009C00002281FD828688007F7D42078000722D58E
:1009D000724F74496069743770B101200860FFF785
:1009E000F1FD064604E0FFF7EDFD801B022809D863
:1009F00038688007F7D50EE0C1F800A0FFF7E2FDE8
:100A0000064605E081E0FFF7DDFD801B02287CD86B
:100A100038688007F7D42078400769D5DFF87CB1C3
:100A20004FF000080BF1400BDBF80000C0000CD4C5
:100A3000DBF8001041F08051CBF80010DBF800002B
:100A40004FF0010800F080500090574F3868C00503
:100A50000FD4386840F480703860FFF7B3FD064665
:100A600004E0FFF7AFFD801B02284ED83868C005B0
:100A7000F7D54A4FA068703701280FD0052838688D
:100A800010D020F001003860386820F00400386091
:100A9000A068B0B1FFF796FD06460EE0386840F05A
:100AA0000100F4E740F004003860F7E7FFF78AFD43
:100AB000811B41F28830814265D838688007F5D5BE
:100AC0000DE0FFF77FFD064606E0FFF77BFD811B8B
:100AD00041F28830814256D838688007F5D4B8F1A1
:100AE000000F05D0DBF8001021F08051CBF800108A
:100AF000A069C8B3294908310968C1F381010229F5
:100B000049D00228504607D000E03CE0C9F8600018
:100B1000FFF758FD044639E04F46C9F86000FFF77B
:100B200051FD064604E0FFF74DFD801B02282AD840
:100B300028688001F7D4D4E907010843A16A1B4A59
:100B4000490802EB0141626A41EA8211084394F8C4
:100B50002C1040EA01611148001D01600120386637
:100B6000FFF730FD044605E013E0FFF72BFD001B07
:100B7000022808D828688001F7D50AE0FFF722FD8F
:100B8000001B022802D90320BDE8F88F28688001E5
:100B9000F4D40020F8E70120F6E700000038024016
:100BA00000004742800E4742007000400000FFFFF7
:100BB0004FF0E0210428086903D020F00400086108
:100BC000704740F00400FAE710B5401EB0F1807F96
:100BD00001D3012010BD4FF0E02460610F216017A8
:100BE00000F061FF0020A06107202061002010BDFF
:100BF0007047704710B5040003D094F83D0010B161
:100C000007E0012010BD002084F83C00204600F0E1
:100C10000DF8022084F83D00211D206800F008FC3A
:100C2000012084F83D00002010BD000008B50068D8
:100C30000B49884212D10B48016841F00201016062
:100C40000068032200F00200009001211D20FFF740
:100C50000BFDBDE808401D20FFF7F9BC08BD0000F2
:100C600000040040403802400168CA6842F00102B6
:100C7000CA600068816801F00701062903D0016895
:100C800041F00101016000207047704770B50446D3
:100C9000006801694FF00005C943890715D4C16890
:100CA000C943890711D4E91E01610120207720681A
:100CB00080698007204602D0FFF7E7FF04E000F0DC
:100CC00098F8204600F044F9257720680169C94367
:100CD000490717D4C168C943490713D46FF0040109
:100CE0000161022020772068806910F4407F20464F
:100CF00002D0FFF7CAFF04E000F07BF8204600F0C6
:100D000027F9257720680169C943090716D4C16806
:100D1000C943090712D46FF008010161042020774C
:100D20002068C0698007204602D0FFF7AEFF04E0CC
:100D300000F05FF8204600F00BF925772068016984
:100D4000C943C90617D4C168C943C90613D46FF093
:100D500010010161082020772068C06910F4407FED
:100D6000204602D0FFF791FF04E000F042F8204651
:100D700000F0EEF8257720680169C943C90708D15A
:100D8000C168C943C90704D1891E0161204600F02A
:100D900003F920680169C943090609D4C168C94338
:100DA000090605D46FF0800101612046FFF720FF9E
:100DB00020680169C943490609D4C168C943490685
:100DC00005D46FF040010161204600F0F7F820687B
:100DD0000169C94389060BD4C168C943890607D490
:100DE0006FF0200101612046BDE87040FFF701BFB0
:100DF00070BD704770B5044690F83C000D46012860
:100E00000DD0012684F83C60022084F83D0042B1F8
:100E1000042A18D0082A2AD00C2A4DD139E0022001
:100E200070BD206800F076FB2068816941F0080100
:100E300081612068816921F00401816120688169F4
:100E40002A69114311E0206800F094FB2068816951
:100E500041F4006181612068816921F480618161D0
:100E6000206881692A6941EA0221816124E02068C1
:100E700000F0B6FB2068C16941F00801C16120683B
:100E8000C16921F00401C1612068C1692A69114367
:100E900011E0206800F0D8FB2068C16941F40061CE
:100EA000C1612068C16921F48061C1612068C169A4
:100EB0002A6941EA0221C16184F83D60002084F87A
:100EC0003C0070BD10B5040003D094F83D0010B193
:100ED00007E0012010BD002084F83C00204600F00F
:100EE0000DF8022084F83D00211D206800F0A0FAD2
:100EF000012084F83D00002010BD0000124800B51C
:100F0000016887B041F480710160006800F480706E
:100F100005900D481038016841F02001016000681B
:100F2000694600F0200005904FF400700090022008
:100F300001900120029003200390092004900348AF
:100F4000FFF754FA07B000BD4038024000140240D9
:100F50007047000010B504460068012200F0CCFA8A
:100F60000B482168814202D00A48814203D1486C73
:100F700040F4004048642068816801F007010629B8
:100F800003D0016841F001010160002010BD0000A4
:100F900000000140000401400649884206D106498C
:100FA000D1F8A80218B10020C1F8A80270470120AA
:100FB000FAE700002001002000804242704770479D
:100FC00010F8391F407808437047000070B5026878
:100FD00004461068D168536910F00F0F50D003F029
:100FE000010501F4907635435DD0C20705D0CA05EE
:100FF00003D5E26B42F00102E263420705D5DA074E
:1010000003D0E26B42F00202E263820705D5DA0701
:1010100003D0E26B42F00402E263020705D5DA076F
:1010200003D0E26B42F00802E263E26B002A33D0A5
:10103000800604D5880602D5204600F049FB2068CA
:101040004069E16BC0F38010090700D428B3204643
:1010500000F030FB2068416949061AD5416921F04A
:1010600040014161606BA0B11B490165606BFFF7F6
:10107000ABF9002810D0606B016DBDE870400847E7
:10108000830610D58B060ED52046BDE8704000F0D3
:101090001FBB2046FFF793FF70BD2046FFF78FFF71
:1010A0000020E06370BD030606D50B0604D520467C
:1010B000BDE8704000F0AEBC4006F3D54806F1D55F
:1010C000D168204621F04001D160202184F83910F8
:1010D00000F0CAF870BD0000A516000870B5040045
:1010E00004D094F83900002510B106E0012070BD4D
:1010F00084F83850204600F023F8242084F8390082
:101100002068C16821F40051C160204600F02CFB2A
:101110002068016921F4904101612068416921F052
:101120002A0141612068C16841F40051C160E56352
:10113000202084F8390084F83A00002070BD0000B7
:1011400010B500681A4986B088422FD11948016845
:1011500041F001010160006800F0010005901548B0
:101160001430016841F0100101600068012100F0B5
:10117000100005904FF4007000900220CDE90101AD
:10118000039007200C4C049069462046FFF72EF987
:101190002115009169462046FFF728F92520FFF721
:1011A00056FA032211462520FFF75EFA06B010BD5D
:1011B00000100140303802400000024090F83A3000
:1011C000202B22D1F9B1F2B190F83830012B1CD08C
:1011D00081628285C2850021C163222280F83A2083
:1011E00080F838100168CA6842F48072CA600168E9
:1011F0004A6942F001024A610068C16841F0200179
:10120000C160002070470120704702207047000035
:1012100030B50068114988420CD1114A5088010448
:1012200008D41146440409784FF0000306D50A2972
:1012300001D0538030BD40F400400DE00D2909D0AD
:10124000C0F30D04074D401C80B229555080C728BB
:10125000EFD830BD40F48040508030BD00100140D8
:1012600014000020180000207047FEE7114810B558
:10127000016886B041F02001016000680E4C00F06A
:10128000200005904FF4C060009001200190029072
:101290000320039069462046FFF7A8F80122510277
:1012A0002046FFF783F9012291022046FFF77EF9DD
:1012B00006B010BD3038024000140240FEE770470F
:1012C0007047704770B5214C92B00025266846F0F3
:1012D00080562660246804F0805411941C4C2668C3
:1012E00046F48046266024680DF1240C04F4804402
:1012F00011940124009424040194022406948CE89F
:101300000D006605CDE907616846FFF7C7FA00B131
:10131000FEE70CA90F2081E831004FF4A0500F9098
:101320004FF48050109005210CA8FFF7CFF900B1C1
:10133000FEE7FFF741F941F20101884204D1054877
:10134000016841F48071016012B070BD4038024004
:1013500000700040003C0240FFF73AB910480168B5
:1013600041F4700101600F48016841F00101016022
:101370000C4A00210832116002680B4B1A400260CF
:10138000031D0A4A1A60026822F48022026005489E
:101390000C3001600249580680390860704700002F
:1013A00088ED00E000380240FFFFF6FE1030002418
:1013B00010B5104A04460E48C2E900010020C2E9F7
:1013C000020410611046FFF77DFD0A49602040319C
:1013D0000022086060084860022088600548FFF726
:1013E00009FDBDE8104000210248FFF7B3BD000031
:1013F00000200040600100200148FFF747BC0000CA
:1014000020010020094A10B5074BC2E90031002134
:10141000C2E9021010461161FFF7ECFBBDE8104075
:101420000248FFF721BC000000040040200100201A
:10143000F0B50268254D264E264FDFF89CC0274B9D
:101440004FF0804EA84209D0704507D0B04205D079
:10145000B84203D0604501D0984203D122F0700415
:101460004A682243A8421BD0704519D0B04217D019
:10147000B84215D0604513D0984211D0184CA04204
:101480000ED0184CA0420BD0174CA04208D0174CDD
:10149000A04205D0164CA04202D0164CA04203D167
:1014A00022F44074CA6822434C6922F0800222432D
:1014B00002608A68C2620A688262A84201D09842C9
:1014C00001D10969016301214161F0BD00000140C2
:1014D0000004004000080040000C004000040140EF
:1014E0000040014000440140004801400018004015
:1014F000001C00400020004010B501F01F01012336
:10150000046A8B409C430462036A8A40134303626B
:1015100010BD0000F0B5026A22F001020262026A08
:1015200043688469114E24F073050C68104F2C43F6
:1015300022F002058A682A43B04201D0B84205D1A0
:1015400022F00805CA682A4322F00402B04201D002
:10155000B84205D14D6923F440731D438B692B4379
:1015600043608461496841630262F0BD000001404C
:1015700000040140F0B5026A22F010020262026A21
:10158000436884690D6824F4E64444EA05248D68C0
:1015900022F0200242EA05120F4D104EA84201D05F
:1015A000B04206D1CF6822F0800242EA071222F050
:1015B0004002A84201D0B04207D14D6923F44063F4
:1015C00043EA85038D6943EA850343608461496882
:1015D00081630262F0BD0000000001400004014090
:1015E000F0B5026A22F480720262026A4368C4693A
:1015F00022F4007224F073050C68124E2C438D689F
:1016000042EA05220E4DA84201D0B04206D1CF6871
:1016100022F4006242EA072222F48062A84201D04A
:10162000B04207D14D6923F4405343EA05138D6955
:1016300043EA05134360C4614968C1630262F0BDB7
:10164000000001400004014030B5026A22F48052DB
:101650000262036A4268C4690D6824F4E64444EAFD
:1016600005248D6823F4005343EA0533084DA8424E
:1016700002D0084DA84204D14D6922F4804242EACA
:1016800085124260C46149680164036230BD000094
:101690000000014000040140014948637047000018
:1016A0000020004010B5806B0021C185C184FFF788
:1016B00086FC10BD0168CA6822F49072CA60016895
:1016C0004A6922F001024A61202180F83A107047ED
:1016D00010B590F83A10222901D0022010BD81687F
:1016E000B1F5805F11D00169002901681FD04968F8
:1016F00001F07F03816A4A1C82620B70C18D491E12
:101700000904090CC18518D02BE00269816A002AFE
:101710000268526805D0D2B20A80816A491C81628F
:10172000ECE7C2F308020A80816A891CF7E74A687D
:10173000816A4B1C83620A70E0E70168CA6822F084
:101740002002CA600168CA6822F48072CA60016817
:101750004A6922F001024A61202180F83A10FFF71D
:1017600057FD002010BD00002DE9F041044600683F
:101770000169E26821F4405111430161A1682069C7
:10178000E26901436069104301432068C26849F27D
:101790000C639A430A43C26020684169A26921F43C
:1017A000407111434161E0696425B0F5004F974AEB
:1017B000974920684FF032083FD0884201D09042CC
:1017C0007CD1FFF72BF800EBC00101EB0010616842
:1017D0008900B0FBF1F6FFF721F800EBC00101EB47
:1017E000001061688900B0FBF1F0B0FBF5F06FF01C
:1017F0001801484306EB800108EB0110B0FBF5F03F
:1018000000F0F006FFF70AF800EBC00101EB001052
:1018100061688900B0FBF1F0B0FBF5F006EB001653
:10182000FEF7FCFF00EBC00101EB001061688900CE
:10183000B0FBF1F7FEF7F2FFD2E0884201D0904210
:101840003DD1FEF7EBFF00EBC00101EB001061683A
:101850004900B0FBF1F0B0FBF5F00601FEF7DEFF4A
:1018600000EBC00101EB001061684900B0FBF1F72B
:10187000FEF7D4FF00EBC00101EB001061684900E6
:10188000B0FBF1F0B0FBF5F06FF01801484307EB47
:10189000800108EBC100B0FBF5F000F0F80006EBAA
:1018A0004006FEF7BBFF00EBC00101EB00106168D2
:1018B0004900B0FBF1F7FEF7B1FF3CE055E0FEF761
:1018C0009DFF00EBC00101EB001061684900B0FB17
:1018D000F1F0B0FBF5F00601FEF790FF00EBC00160
:1018E00001EB001061684900B0FBF1F7FEF786FFDD
:1018F00000EBC00101EB001061684900B0FBF1F0A2
:10190000B0FBF5F06FF01801484307EB800108EBDE
:10191000C100B0FBF5F000F0F80006EB4006FEF762
:101920006DFF00EBC00101EB001061684900B0FBE6
:10193000F1F7FEF763FF00EBC00101EB00106168F7
:101940004900B0FBF1F0B0FBF5F06FF0180148432F
:1019500007EB800108EBC100B0FBF5F000F00700D9
:10196000216830448860BDE8F081FEF747FF00EB56
:10197000C00101EB001061688900B0FBF1F6FEF7D1
:101980003DFF00EBC00101EB001061688900B0FB76
:10199000F1F0B0FBF5F06FF01801484306EB800161
:1019A00008EB0110B0FBF5F000F0F006FEF726FFA3
:1019B00000EBC00101EB001061688900B0FBF1F0A1
:1019C000B0FBF5F006EB0016FEF718FF00EBC001C8
:1019D00001EB001061688900B0FBF1F7FEF70EFF24
:1019E00000EBC00101EB001061688900B0FBF1F071
:1019F000B0FBF5F06FF01801484307EB800108EBEE
:101A00000110B0FBF5F000F00F00A9E70014014051
:101A10000010014090F83910212901D002207047B0
:101A20008168B1F5805F016A0BD04A1C02620268CE
:101A300009785160C18C491E0904090CC1840ED07B
:101A400017E009880268C1F30801516001690029A3
:101A5000016A02D0491C0162ECE7891CFBE70168BE
:101A6000CA6822F08002CA600068C16841F0400183
:101A7000C16000207047000010B50848FFF7A6FAC3
:101A80000648FFF79DFA2028FAD1012204490348AD
:101A9000FFF794FB0028F8D110BD0000E000002003
:101AA00014000020FEE70907090E002804DB00F1FE
:101AB000E02080F80014704700F00F0000F1E020F3
:101AC00080F8141D7047704710B504460420FFF7D6
:101AD0006FF80148046010BD1000002070B5054685
:101AE00000244FF47A7603E0304600F005F8641CD9
:101AF000AC42F9D370BD000070B54FF0E025002175
:101B00006C69094AAB6912685043AA699A42FCD0D1
:101B100002D2A3EB020302E0A4EB02063344194411
:101B200013468142F1D370BD10000020012500242E
:101B3000FEF756FD0723022208214FF4A870FFF795
:101B4000C1FBA820FFF7C0FF4FF4E13000F020F800
:101B5000FFF78CFB42F2CF0141F28730FFF752FCD6
:101B6000532140F2F310FFF723FC4FF496760A203E
:101B7000FFF7B4FF0DB1641C00E0641EA4B2B442D0
:101B800000D9002504B901252046FFF785FDEEE7C1
:101B90000B4910B5094AC1E9002000208860C860DF
:101BA000086188610C2048610846FFF797FABDE894
:101BB0001040012203490248FFF700BB001001401A
:101BC000E0000020140000204FF04070E1EE100A09
:101BD0007047000000000000000001020304060737
:101BE0000809000000000102030400000C1C0008AA
:101BF0000000002018000000C4010008241C000898
:101C00001800002008080000E00100080024F4008B
:101C100001000000100000000000000000000000B3
:041C200000000000C0
:040000050800018965
:00000001FF
