:020000040800F2
:1000000018080020650200083D320008411A000867
:1000100039320008950800085D350008000000002E
:100020000000000000000000000000004532000851
:100030009908000800000000413200084932000819
:100040008902000889020008890200088902000864
:1000500089020008890200089D080008890200083A
:100060008902000889020008890200088902000844
:100070008902000889020008890200088902000834
:100080008902000889020008890200088902000824
:100090008902000889020008890200088902000814
:1000A0008902000889020008890200088902000804
:1000B00089020008890200086132000889020008EC
:1000C00089020008890200088902000889020008E4
:1000D00089020008513500088902000889020008D9
:1000E00089020008890200088902000889020008C4
:1000F00089020008890200088902000889020008B4
:1001000089020008890200088902000889020008A3
:100110008902000889020008890200088902000893
:100120008902000889020008890200088902000883
:100130008902000889020008890200088902000873
:100140008902000889020008890200088902000863
:100150008902000889020008890200088902000853
:100160008902000889020008890200088902000843
:1001700089020008890200088902000800000000C6
:10018000890200088902000800F002F800F05AF81D
:100190000AA090E8000C82448344AAF10107DA45E2
:1001A00001D100F04FF8AFF2090EBAE80F0013F0DA
:1001B000010F18BFFB1A43F001031847589A0000BB
:1001C000789A00000A4410F8014B14F00F0508BF9C
:1001D00010F8015B240908BF10F8014B6D1E05D013
:1001E00010F8013B6D1E01F8013BF9D1641E03D0EC
:1001F000641E01F8015BFBD19142E4D3704700001B
:100200000023002400250026103A28BF78C1FBD81F
:10021000520728BF30C148BF0B607047642900F007
:100220001D81752900F01A81782900F05381732906
:1002300000F0CB82002070471FB504F006FD1FBD03
:1002400010B510BD00F0F4FA1146FFF7F5FF03F00A
:10025000F3FA00F012FB03B4FFF7F2FF03BC03F064
:100260007FF900000C48016841F4700101600B48FF
:1002700080470B480047FEE7FEE7FEE7FEE7FEE7A4
:10028000FEE7FEE7FEE7FEE7FEE700000548064959
:10029000044A064B7047000088ED00E04D3200082C
:1002A0008901000818040020180800201804002004
:1002B000704753EA020C00F069802DE9F04B4FF0D3
:1002C0000006002B1FBFB3FA83F503FA05F424FAE6
:1002D00005F65E4012BF1643B2FA82F502FA05F443
:1002E000C5F120051EBF22FA05FC44EA0C042035A6
:1002F00056EA044C4FEA144418BF641C4FF000083F
:100300004FF00009904271EB030C39D3002919BF5B
:10031000B1FA81F701FA07F6B0FA80F700FA07F6AA
:10032000C7F120071EBF20FA07FC46EA0C0620375B
:10033000B6FBF4FCA7EB0507103F07F01F0BCBF152
:1003400020062CFA06F60CFA0BFB44BFB346002637
:10035000202FA4BF5E464FF0000B5BEA060C08BFDF
:100360004FF0010B19EB0B0948EB0608ABFB027CC5
:1003700006FB02CC0BFB03CCC01B71EB0C01C1E7ED
:100380000B46024641464846BDE8F08B13B508438C
:1003900018BF4FF0FF300146AFF30080BDE81C40AE
:1003A000704700000FB4044910B503AA029800F08A
:1003B00011FA10BC5DF814FB5002002070B5044621
:1003C00085690068C10601D5302600E02026C007F7
:1003D00007D070BDD4E9012130469047206A401C07
:1003E00020626D1EF6D570BD70B504468569007833
:1003F000C00707D170BDD4E9012120209047206AB1
:10040000401C20626D1EF6D570BD70B50C460546C9
:10041000012A05D02878800600D5EA69002302E089
:10042000012305E05B1C934202D2E05C0028F9D175
:10043000A869E618C01AA861286A184428622846E4
:10044000FFF7BCFF04E0D5E9012114F8010B904748
:10045000B442F8D32846FFF7C7FF70BD2DE9F0413D
:100460000646002410687529314616A510D0AFF352
:100470000080002802DA404213A507E031688A07AD
:1004800001D512A502E0490704D511A5012401E018
:10049000AFF3008000210A2206F1240709E0B0FB37
:1004A000F2FCB0FBF2F302FB1C003030785418462B
:1004B000491C0028F3D123462A463046BDE8F041C6
:1004C00000F018B9000000002D0000002B00000013
:1004D0002000000070B504460D4621461068AFF3B9
:1004E00000802188090502D50F4A7A4402E00E4AAD
:1004F0007A440E32002104F1240305E000F00F06D7
:100500000009965D5E54491C0028F7D1207800232D
:10051000000704D5702D02D009B102231132204604
:10052000BDE8704000F0E6B8764700002DE9F05FC6
:10053000894604464FF0000ADFF874B1FB44C0F866
:1005400020A02046E1688847002874D0252806D0DE
:10055000D4E901219047206A401C2062F1E700267F
:100560005F462046E16888472028054607DB312D95
:1005700005D2781910F8200C08B10643F1E7B0074E
:1005800001D526F00406C4F81CA00027C4F818A062
:100590002A2D09D0284604F051FB38B304EB870814
:1005A000303DC8F8185019E059F8041B204604EBF8
:1005B00087029161E1688847012F054618D1E069FB
:1005C000002820DA26F020061DE0D8F8180000EBFD
:1005D000800005EB40003038C8F818002046E1687C
:1005E0008847054604F02AFB0028EED1012F0AD0E7
:1005F0002E2D08D12046E16888477F1C0546022F32
:1006000046F02006C4DBA069002803DA404246F029
:100610000106A061F00701D026F010066C2D0BD06A
:10062000682D09D04C2D39D06A2D35D0742D35D098
:100630007A2D33D016E038E0E1682F46204688470F
:10064000B842054609D16C2F26D04FF48060E1688E
:10065000064320468847054604E06C2F1AD04FF425
:10066000807006430DB3A5F14100192802D820354A
:1006700046F400664A462946204626604E46FFF765
:10068000CDFD80B101280BD0F61D26F0070000F14A
:10069000080956E74020E4E78020D8E70020D6E7A5
:1006A00006F104094DE7284652E7206ABDE8F09FAD
:1006B0004C470000014903F045B8000050020020FB
:1006C00010B5044603E003F03DF8401C09D014F8CF
:1006D000010B05490028F6D1BDE810400A2003F0BF
:1006E00031B84FF0FF3010BD500200207047704706
:1006F000704770472DE9F0470D46994692460446EB
:1007000000F124080168880604D5E06921F0100191
:10071000216000E00120A84201DD471B00E0002726
:10072000A1697A1902EB0900081AA0612078C006B5
:1007300002D42046FFF742FE002608E0D4E901215A
:100740001AF806009047206A401C761C20624E452D
:10075000F4DB2078C0060AD52046FFF72FFE06E01E
:10076000D4E9012130209047206A401C2062381EC5
:10077000A7F10107F4DC07E0D4E9012118F805002E
:100780009047206A401C2062281EA5F10105F3DC79
:100790002046FFF729FE2078000602D50220BDE89A
:1007A000F0870120FBE710B5436913B1AFF3008078
:1007B00001E0FFF72AFE012010BD127800F12401AC
:1007C0000A7000224A700122EDE711684FF0FF32F3
:1007D000E9E70000074B70B50D467B4400F011F8C7
:1007E0000446284600F020F810B14FF0FF3070BDED
:1007F000204670BD672F000001694A1C026108781D
:10080000704700B58FB0CDE9013100210591054950
:100810007944CDE9031011466846FFF787FE0FB013
:1008200000BD0000E5FFFFFF007B00F08000704787
:10083000754600F02BF8AE4605006946534620F099
:100840000700854618B020B5FFF720FDBDE8204021
:100850004FF000064FF000074FF000084FF0000B7C
:10086000AC46ACE8C009ACE8C009ACE8C009ACE8EB
:10087000C00921F007018D46704710B50446AFF35B
:1008800000802046BDE81040FFF7E5BC00487047F7
:10089000A0010020FEE7000070470000012000F0EA
:1008A000DDB80000B0B5B3F5804F034615D153F85D
:1008B00022C00020CCF6F0700CEA000CD1E9000E4A
:1008C000D1E9024540EA0C0040EA0E10896940EA8D
:1008D000042040EA0540014301E06FF07041002030
:1008E00043F82210B0BD00002DE9F043D1E9008C9F
:1008F000864601F11007D1E90209F0CF5EF82830F1
:100900008022CFF6F0721A4042EA0C0242EA090253
:1009100022432A4332430B6A3A434F6A1A438B6A93
:100920003A43CF6A1A43CB6B3A43096B1A431143DC
:10093000014308284FF0000008BF41F040014EF885
:100940002810BDE8F0830000F0B500EB820250688B
:10095000D1E902E400F0404CD1E90030D1E904567D
:1009600043EA0C03002743EA0010CFF6F07740EA91
:100970000E20896907EB055540EA04402843FE36FE
:10098000084340EA066100205160F0BD70B5866DF5
:10099000044600F05BF994F83510022928D1054689
:1009A0002068216C026822F016020260426922F07F
:1009B0008002426109B9A16C19B1016821F00801F6
:1009C0000160016821F00101016000BF206800683A
:1009D000C00714D000F03AF9401B0628F6D32020B7
:1009E0006065002084F83400032084F8350070BD71
:1009F00080206065002084F83400012070BDE06D27
:100A00003F2101FA00F0B0600020012184F8340099
:100A100084F8351070BD000090F83510022909D116
:100A2000052180F835100068016821F0010101609E
:100A300000207047802141650120704701280CBFCC
:100A400001A07047FFF73CBE574B5550204B6579CE
:100A500020707265737365640D00000043F61441E5
:100A6000C4F201010A68024214BF08607047FFF730
:100A7000E5BF00002DE9F04F82B000F13E4241F6A3
:100A8000004502F1FF77C4F20205082243F6004E4A
:100A90004FEAB726A84208BF0722C4F2010E072E6C
:100AA00038BF4FEAB7220125002700264FF0000883
:100AB000009208E008F101080436B8F1100F07F1C0
:100AC000020700F0A4800C6805FA08F914EA090F7F
:100AD000F0D0D1F804C003220CF0030BABF10104F9
:100AE000BA40012C6FEA020A10D88268CC6802EA88
:100AF0000A02BC40224382604268CCF3001422EA1E
:100B0000090204FA08F42243426005E0BBF1030F36
:100B100002D14FF0030B20E0C2688C6802EA0A029F
:100B2000BC402243BBF1020FC26016D16FF003023A
:100B300002EA58020244D2F820C006F01C050F2336
:100B40000C69AB402CEA030304FA05F52B4313624E
:100B5000D1F804C001250CF0030B02680BFA07F36F
:100B600002EA0A021A435FEACC030260A2D500221D
:100B700043F644030192C4F202031A684FF6084C8C
:100B800042F480421A601A68CFF6FF7C02F4804279
:100B90000192019A28F00302724452F80C3006F0D8
:100BA0000C050F24AC40A343009C04FA05F52B432D
:100BB00042F80C30DEF800204B6842EA0905DC03FD
:100BC00058BF22EA0905CEF80050DEF804209C0345
:100BD00042EA090558BF22EA0905CEF80450DEF8BA
:100BE0000820DC0242EA090543F60C4458BF22EA19
:100BF0000905CEF80850C4F2010422689B0242EABB
:100C0000090558BF22EA09052560012552E702B00F
:100C1000BDE8F08F0069084018BF01207047000050
:100C2000426902EA0103914341EA0341816170474D
:100C3000002A08BF090481617047000042F20000E9
:100C4000CEF204000068000C7047000040F214402F
:100C5000C2F200000068704740F2981040F2144160
:100C6000C2F20000C2F2000100780A681044086075
:100C70007047000080B543F60040C4F202000168EE
:100C800041F400710160016841F480610160052058
:100C900000F072F80F2000F005F800F02BF80020AB
:100CA00080BD0000B0B540F29812C2F2000240F2DE
:100CB0000C011278C2F200014FF47A730968B3FB99
:100CC000F2F20446B1FBF2F1084600F0E7FB0F2C0C
:100CD0004FF001050CD858B94FF0FF3021460022E3
:100CE000002500F01DF840F29C10C2F200000460E4
:100CF0002846B0BD70470000002848BF7047C1B209
:100D000000F01F00012202FA00F04EF20012CEF2B3
:100D1000000242EAD10121F003010860704700009F
:100D200010B54EF60C5CCEF2000CDCF80030C3F3CC
:100D3000022E8EF00704042C28BF0424BEF1030306
:100D40004FF0FF3E0EFA04F438BF0023A143994050
:100D50000EFA03F39A43114300F00F0200F16043CF
:100D60000901043A03F564436244002848BF02F1D4
:100D70000C03197010BD00004EF60C51CEF20001AC
:100D80000A684FF6FF031A4060F30A2242F08060BF
:100D900040F0FD70086070474EF61050CEF2000033
:100DA0000268012922F0040202600FBF30BF40BF79
:100DB00020BF20BF704700002DE9F041002800F05F
:100DC0008B8043F60808C4F202080446D8F8F803FA
:100DD0000D4600F00700884207D288F8F853D8F88B
:100DE000F80300F00700A84276D12068810717D5E4
:100DF000410705D5D8F8001041F4E051C8F80010BB
:100E0000010705D5D8F8001041F46041C8F800107A
:100E1000D8F80010A26821F0F0011143C8F80010C2
:100E2000C0073FD1D8F8F80300F00700A84207D95F
:100E300088F8F853D8F8F80300F00700A8424BD11F
:100E40002068410707D5D8F80010E26821F4E05186
:100E50001143C8F80010000708D5D8F80000216930
:100E600020F4604040EAC100C8F8000000F07CF8BF
:100E7000D8F8001044F69D42C1F30311C0F60002F9
:100E8000515C40F20C0220FA01F140F29C10C2F2D7
:100E900000000068C2F200021160FFF703FF0020AB
:100EA000BDE8F0816068811E022907D258F8081C4D
:100EB00089015CBF0120BDE8F08110E0012807D165
:100EC00058F8081C89035CBF0120BDE8F08106E0EA
:100ED00058F8081C890702D40120BDE8F081D8F831
:100EE000001021F003010843C8F80000FFF7AEFE30
:100EF000064641F2883700BFD8F80000616800F06C
:100F00000C00B0EB810F8DD0FFF7A0FE801BB84224
:100F1000F2D90320BDE8F08140F20C0043F608014D
:100F2000C2F20000C4F202010068096844F6AD4252
:100F3000C1F38221C0F60002515CC8407047000036
:100F400040F20C0043F60801C2F20000C4F20201B4
:100F50000068096844F6AD42C1F34231C0F60002B0
:100F6000515CC8407047000010B543F60404C4F259
:100F70000204606800F00C0142F200400829C0F24F
:100F8000F40007D0042918BF10BD41F20020C0F2C0
:100F90007A0010BD216801F03F02216823684902F0
:100FA000C3F3881105D4A1FB00010023FFF781F9E9
:100FB00006E041F20020C0F27A004843B0FBF2F0B4
:100FC00021680222C1F3014102EB4101B0FBF1F0C3
:100FD00010BD00002DE9F04182B0002868D0044621
:100FE000007843F60006C007C4F202060BD0B068D2
:100FF00000F00C00042840F09C803068800302D58B
:101000006068002854D0207880071AD5B06810F0A6
:101010000C0F09D0B06800F00C00082840F0A38045
:101020007068400200F19F803068800702D5E06858
:1010300001283DD13068216920F0F80040EAC10064
:1010400030602078000737D4207840074BD4A5695A
:1010500055B3B06800F00C00082840F0B780012DAF
:1010600026D07068E16900F480028A4220D1216AAA
:1010700000F03F028A421BD147F6C071626A01400C
:10108000B1EB821F14D1A16A4FF6FF73C9039943D4
:1010900000F44032A1F580318A4209D1E16A00F0C2
:1010A0007060B0EB016F03D1002002B0BDE8F081A9
:1010B000012002B0BDE8F0816069002840F2000024
:1010C000C4F2472072D00121C0F8801EFFF7BEFD98
:1010D000054600BF706F8007B6D4FFF7B7FD401B11
:1010E0000228F7D9D7E0306C10F080580AD10020E0
:1010F0000190306C40F080503064306C00F08050D3
:101100000190019847F20007C4F200073868C00553
:101110003ED4386840F480703860FFF797FD05468C
:101120003868C00534D4FFF791FD401B0228F7D979
:10113000B1E0B06800F00C00082803D170684002EC
:101140003FF55BAF6068B0F5803F07D0B0F5A02FEA
:1011500040F08B80306840F480203060306840F48C
:10116000803030608BE0E068002851D00020C4F26D
:10117000472001210160FFF769FD054630688007BF
:101180003FF558AFFFF762FD401B0228F6D982E019
:10119000A068012805D005284ED1306F40F004002A
:1011A0003067306F40F0010030674FE00021C0F839
:1011B000801EFFF74BFD0546706F80077FF544AF3B
:1011C000FFF744FD401B0228F6D964E00027C4F273
:1011D000472700203866FFF739FD022D05460BD161
:1011E000306880015BD5FFF731FD401B02284FF0CE
:1011F0000300F5D959E700BF306880017FF554AF8F
:10120000FFF724FD401B02284FF00300F4D94CE700
:101210000020C4F2472000210160FFF717FD0546BA
:10122000306880077FF50DAFFFF710FD401B0228E7
:101230004FF00300F4D938E7316F002821F00101A5
:101240003167316F21F00401316749D0FFF7FEFCAF
:10125000054641F2883700BF306F800751D4FFF751
:10126000F5FC401BB842F7D915E03168002821F49D
:1012700080313160316821F4802131604AD0FFF73C
:10128000E5FC0546306880033FF5BDAEFFF7DEFCA8
:10129000401B6428F6D9032002B0BDE8F08104F1B8
:1012A0001C052FCD084340EA8210D9034FF6FF7288
:1012B0009143A1F5803140EA056008437060012048
:1012C0003866FFF7C3FC0446306880013FF5ECAE9A
:1012D000FFF7BCFC001B02284FF00300F4D9E4E642
:1012E000FFF7B4FC054641F2883700BF306F800736
:1012F00007D5FFF7ABFC401BB8424FF00300F5D910
:10130000D3E6B8F1000F7FF4A2AE306C20F080502D
:1013100030649CE6FFF79AFC054600BF3068800306
:101320007FF571AEFFF792FC401B64284FF003007D
:10133000F4D9BAE64EF21000CEF20000016841F096
:101340000201016070470000002804BF01207047BF
:1013500070B5044690F8490015460E4628B900209D
:1013600084F84800204600F01BF8206804F10801CA
:10137000FFF7BAFA2068A2683146FFF7E5FAD4E928
:101380000102236B2946FFF78DFA2068A16850F807
:10139000212042F0010240F82120002070BD000011
:1013A00070B586B0002143F630000191C4F202000E
:1013B000826840F6004442F0010282608268C4F212
:1013C000020402F001020192019A0191026801AD4A
:1013D00042F008020260026802F008020192019ADB
:1013E0000191026842F010020260026802F01002ED
:1013F0000192019A0191026842F0200202600268A3
:1014000002F020020192019A0191016841F040012D
:1014100001600068294600F04000019001984CF2FC
:101420003370019002200290012003900320049069
:101430000C2005902046FFF71DFB4FF680700190B1
:1014400004F580602946FFF715FB4FF4805604F53C
:10145000006029460196FFF70DFB04F54060294620
:101460000196FFF707FB02A0FFF72AF906B070BD4F
:1014700048414C5F5352414D5F4D7370496E6974E2
:101480003A2046534D43204750494F7320436F6ED7
:10149000666967757265642E0D000000411E0020AC
:1014A000B0EB116F1CBF012070474EF21002CEF25C
:1014B000000251604EF62351CEF20001F0230B7072
:1014C00007219060116070474EF21000CEF20000CC
:1014D000016821F00201016070470000002804BF8C
:1014E0000120704710B5044690F83D0028B900204F
:1014F00084F83C00204600F01FF8022084F83D00EC
:101500002068211D01F0C6FE012084F8460084F801
:101510003E0084F83F0084F8400084F8410084F8DD
:10152000420084F8430084F8440084F8450084F8BD
:101530003D00002010BD00007047000090F83D10F5
:1015400001291CBF01207047022180F83D1000686E
:1015500041F2FF72C168C4F20002904241F0010101
:10156000C1600DDC40F2FF71C4F20001884215DC5D
:10157000B0F1804F29D040F20041C4F2000122E0D6
:1015800040F2FF31C4F20101884212DC41F6000151
:10159000C4F20001884218D0002112E040F6000198
:1015A000C4F20001884210D040F60041C4F20001AC
:1015B00009E044F20001C4F20101884205D040F282
:1015C0000041C4F20101884206D1816801F007019F
:1015D000062904BF00207047016841F00101016045
:1015E000002070477047000070470000B0B582B01F
:1015F000026805461068D368546900F02F0120295D
:1016000003F0200106D129B1284602B0BDE8B04060
:1016100001F0D8BE5FEA007C1EBF04F0010E03F4A7
:10162000907414EB0E0453D1296B012905D110F0ED
:10163000100118BF13F0100136D1010622D513F0A6
:1016400080011FD095F83D0021283FD1A868B0F552
:10165000805F03D12869002800F0F780286A411CC8
:10166000296200785060E88C01380104E8842DD1AB
:10167000D06820F08000D060D06840F04000D0609A
:1016800002B0B0BD400621D513F040001ED0D06896
:10169000202120F04000D060284685F83D1002B09F
:1016A000BDE8B04000F0CAB9002001901068019078
:1016B0005068019001985069400611D4A88DE98DB9
:1016C000EB8D002B18BF884240F0A68002B0B0BD61
:1016D000C40718BF13F480732DD1430731D437E00A
:1016E000A86B01684B689CB2002CEFD0A98D8C428E
:1016F000ECD2EB85C369B3F5807F17D0D16821F4B4
:101700008071D160516921F001015161516921F06D
:1017100040015161202185F83E1000212963D168E4
:1017200021F01001D160FFF731F9A98DE88D081A79
:1017300081B2284684E02B6C43F001032B644307FD
:1017400006D5BEF1000F03D02B6C43F002032B64CF
:10175000830706D5BEF1000F03D02B6C43F00403C2
:101760002B64BCF1000F09D541EA0E03B3FA83F3F1
:101770005B0903D12B6C43F008032B642B6C002B0B
:10178000A4D010F0200018BF002903D0284601F093
:1017900019FE2A685069296C00F0400001F0080128
:1017A00040182CD0D06820F49070D060506920F0A0
:1017B00001005061286B012803D1D06820F010008F
:1017C000D060202085F83E00002028635069400644
:1017D0001CD5506920F040005061A86BB0B143F2B5
:1017E000B931C0F600010165FFF716F900283FF492
:1017F0006DAFA86B016D02B0BDE8B0400847284648
:10180000FFF7F2FE0020286402B0B0BD284602B007
:10181000BDE8B040FFF7E8BED368401A23F49073E8
:10182000D360536981B223F001035361202385F80B
:101830003E3000232B63D368284623F01003D36087
:1018400002B0BDE8B040FFF7CDBE286A30F8021BF9
:101850006FF35F215160286205E70000002804BF94
:101860000120704710B5044690F83D0028B90020CB
:1018700084F83C00204600F021F8242084F83D0044
:101880002068C16821F40051C160204601F0EAFDE2
:101890002068016921F490410161416921F02A0128
:1018A0004161C16841F40051C160002020212064E1
:1018B00084F83D1084F83E1010BD000070B586B06D
:1018C0000024C4F202040068A4F57041884201D0EB
:1018D00006B070BD002043F630010190C4F2020151
:1018E0004A6901AD42F010024A614A69072602F0D6
:1018F00010020192019A01900A6842F001020A6006
:101900000A6802F001020192019A0190086840F011
:10191000010008600868012100F0010001900198B1
:101920004FF40070019002200290CDE90310204690
:1019300029460596FFF79EF84FF4806001902046F7
:1019400029460596FFF796F82520FFF7D5F92520BB
:1019500003210322FFF7E4F906B070BD034690F8B7
:101960003E0020280AD100294FF0010018BF002AAC
:1019700000D1704793F83C00012801D10220704744
:1019800000201863996222219A85DA85186483F809
:101990003E10196883F83C00CA6842F48072CA603D
:1019A0004A6942F001024A61CA6842F02002CA60F4
:1019B0007047000080B5006841F20001C4F20101E7
:1019C000884218BF80BD40F2004EC2F2000EBEF940
:1019D0000010002924D440F2A822C2F2000289B2E9
:1019E00013784A0404D40D2B0CD141F4804215E045
:1019F00048F2000C0022CFF6FF7C0A2B08BF41EA18
:101A00000C020BE00A4640F238306FF39F32C2F20C
:101A1000000083544A1CC62988BF0022AEF800206B
:101A200040F2F42040F2A821C2F20000C2F200010C
:101A30000122BDE88040FFF791BF00007047000021
:101A4000FEE70000F0B581B040F20445C2F20005A7
:101A50002A886B880446802600200021C6F60046AE
:101A600003FB02F701F04EF9288926F8020CAFB10A
:101A7000781E032807F0030008D327F0030100BFF6
:101A800004393480348034803480F9D130B1012875
:101A9000348003D00228348018BF34802A886B88B1
:101AA00049F63420C0F60000214601B0BDE8F04000
:101AB000FEF778BC2DE9F04F83B005460C46111AAD
:101AC000B2EB050C18BF4FF0FF3C00298E4648BF13
:101AD000C1F1000E0129A3EB04004FF00102A8BFE1
:101AE0009446191B18BF4FF0FF310028074648BF26
:101AF000474201283846B8BF0A46BE4588BF7046EF
:101B000002900130019040F20440C2F200000388CC
:101B1000B0F802804FF000094FF0000B4FF0000AC0
:101B2000009715E0029E0BEB0E0009EB0701B0EBEE
:101B3000060BD4BF83466544B1EB0609D4BF894682
:101B400014440AF1010A01991FFA8AF0814224D350
:101B5000A8B299B28142E5D9A1B21FFA88F68E42A5
:101B6000E0D966461746F04601F04EF8B44640F21A
:101B70000446C2F2000630897E21C6F600413A468C
:101B8000009F088040F20800C2F200000068C646CC
:101B900048803388B6F80280C4E703B0BDE8F08F10
:101BA00010B540F20444C2F200042288824210D9E7
:101BB00062888A4298BF10BD01F026F820897E21F4
:101BC000C6F60041088040F20800C2F2000000683A
:101BD000488010BD2DE9F04F87B08046101AB2EB57
:101BE00008090493019218BF4FF0FF39002882467C
:101BF00048BFC0F1000A01280AF10100A8BF4FF058
:101C00000109069040F20440C2F2000002884388B5
:101C10000D4600244746002609E000BF002C0CBFFB
:101C200054444F4401360699B0B281421BD3B8B236
:101C300091B28142F2D999B2A942EFD9294600F076
:101C4000E3FF40F20443C2F2000318897E21C6F686
:101C50000041088040F20800C2F20000006848809D
:101C60001A885B88DAE704990024481BB1EB050B5E
:101C700018BF4FF0FF3B0028014648BF41420128F2
:101C800001F101002F464FF00006A8BF4FF0010BF5
:101C9000039105900AE000BF002C03980CBF044498
:101CA0005F4401360599B0B281421BD390B24045E2
:101CB000F2D9B9B298B28842EED9404600F0A4FFFA
:101CC00040F20443C2F2000318897E21C6F60041A7
:101CD000088040F20800C2F20000006848801A88BC
:101CE0005B88D9E7CDF808B0DDF804B0049F002484
:101CF000002608E0002C0CBF5444C8440136069965
:101D0000B0B281421CD31FFA88F091B28142F1D95E
:101D100099B2B942EED9049900F076FF40F204433B
:101D2000C2F2000318897E21C6F60041088040F205
:101D30000800C2F20000006848801A885B88D9E772
:101D4000039F002400260AE0002C08BF3C440298B0
:101D500018BF054401360599B0B281421BD390B239
:101D60005845F1D9A9B298B28842EDD9584600F049
:101D70004BFF40F20443C2F2000318897E21C6F6ED
:101D80000041088040F20800C2F20000006848806C
:101D90001A885B88D8E707B0BDE8F08F2DE9F04FCF
:101DA00083B08B4640F2044102900320C2F200014E
:101DB0001446A0EB420608884A884FF0FF394FF0DE
:101DC0000A080FE0F343A8EB840104EBE374002E50
:101DD00008F1040358BF01F104084644A1459846A0
:101DE00080F2FC80029909F1010949448FB281B265
:101DF000B942ABEB0401019117D989B293B28B427E
:101E000013D9384600F000FF40F20442C2F200024B
:101E100010897E21C6F60041088040F20800C2F217
:101E200000000068488010885288029921448DB2D1
:101E300081B2A942ABEB0901009117D989B293B2E3
:101E40008B4213D9284600F0DFFE40F20442C2F272
:101E5000000210897E21C6F60041088040F2080089
:101E6000C2F20000006848801088528881B2A942FE
:101E7000DA46CB4418D91FFA8BF193B28B4213D9AF
:101E8000284600F0C1FE40F20442C2F2000210896E
:101E90007E21C6F60041088040F20800C2F2000030
:101EA000006848801088528881B2B94204EB0A0564
:101EB00017D9A9B293B28B4213D9384600F0A4FEC9
:101EC00040F20442C2F2000210897E21C6F60041AF
:101ED000088040F20800C2F20000006848801088C4
:101EE00052880299A1EB09018FB281B2B94217D988
:101EF000A9B293B28B4213D9384600F085FE40F266
:101F00000442C2F2000210897E21C6F60041088018
:101F100040F20800C2F20000006848801088528831
:101F20000299091B8DB281B2A9421BD91FFA8BF10C
:101F300093B28B42D34616D9284600F065FE40F294
:101F40000442C2F2000210897E21C6F600410880D8
:101F500040F20800C2F200000068488010885288F1
:101F600001E000BFD34681B2B94218D9019993B2BA
:101F700089B28B4213D9384600F046FE40F2044243
:101F8000C2F2000210897E21C6F60041088040F2AC
:101F90000800C2F20000006848801088528881B2B0
:101FA000A9427FF60FAF009993B289B28B427FF6B8
:101FB00009AF284600F028FE40F20442C2F20002B7
:101FC00010897E21C6F60041088040F20800C2F266
:101FD00000000068488010885288F3E603B0BDE82E
:101FE000F08F000070B581B040F2044EC2F2000ED6
:101FF0009446BEF80020824277D9BEF802308B4268
:1020000073D9BEF80A40ADF80240BDF80240ADF801
:102010000240BDF802508024C6F6004424F8025C59
:10202000050AADF80250BDF80260C0B2ADF802601A
:10203000BDF802602680ADF80200BDF80260ADF880
:102040000260BDF802602680ADF80250BDF8025073
:10205000ADF80250BDF802502580ADF80200BDF881
:102060000200ADF80200BDF802002080BEF80C00AE
:10207000ADF80200BDF80200ADF80200BDF80200A4
:1020800024F8020C080AADF80200BDF80250C9B2EB
:10209000ADF80250BDF802502580ADF80210BDF831
:1020A0000250ADF80250BDF802502580ADF8020094
:1020B000BDF80200ADF80200BDF802002080ADF8C6
:1020C0000210BDF802000021ADF80200BDF80200C8
:1020D0002080BEF8080024F8020C0020A4F800C0FC
:1020E00001B0BDE8704000F00DBE01B070BD000051
:1020F0002DE9F04F83B040F2044AC2F2000ABAF868
:102100000070874253D90D46994250D804469042F8
:102110004DD8BAF80200A84249D9974298BF7A1E12
:10212000984298BF431E1FFA82F81FFA83F9A8EB62
:102130000400A9EB05010130013101FB00FBBBF1FB
:10214000000F34D00C9E802782B28BB220462946E5
:10215000C6F6004700F0D6FDBAF8080027F8020CD2
:10216000ABF1010003280BF0030007D32BF00301B0
:1021700004393E803E803E803E80F9D130B1012856
:102180003E8003D002283E8018BF3E80BAF800206F
:10219000BAF802300020002100F0B4FD05A021466D
:1021A0002A464346CDF800900196FEF7FBF803B0AF
:1021B000BDE8F08F46696C6C65642072656374617C
:1021C0006E676C65202825642C25642920746F2097
:1021D0002825642C256429207769746820636F6C36
:1021E0006F7220307825582E0D0A00002DE9F04F2F
:1021F00095B0002743F630000897C4F2020001684A
:1022000040F21C1541F002010160006848F2BC2454
:1022100000F00200089008984FF400400F90012051
:10222000CDE910000320129040F20040C4F20200F9
:102230000FA9CAF20005C4F24024FEF71BFC0FF2FE
:102240003C702760FEF73CFA40F20020C2F200002A
:102250004FF02041A5F11802062380E88E004FF4CC
:102260008051C0E909713C210A9109214FF4804253
:10227000CDE90117112110244FF48013C0E90B722E
:102280004FF00F09039108A901AAC0E90474C0E93D
:102290000677C0E90D77C363CDE908970E970497D9
:1022A0000797FFF751F820B10FF2FC60FEF708FA2C
:1022B000FEE780263220C6F6004601F0EFF9D32073
:1022C000ADF85200BDF8520040F2044BADF8520098
:1022D000BDF85200C2F2000B26F8020C308849F219
:1022E0008641ADF85200BDF852003088ADF852007A
:1022F000BDF852003088ADF85200BDF85200308869
:10230000ADF85200BDF8520049F28640ABF8040027
:10231000286820F00F002860286820F4706028608A
:10232000286840F003002860286840F400702860A6
:102330000FF29C60FEF736F849F62130C0F6000037
:10234000FEF7BEF9F220ADF85200BDF852004FF092
:10235000020AADF85200BDF85200042526F8020C1E
:102360001820ADF85200BDF852004FF00808ADF843
:102370005200BDF852003080A320ADF85200BDF8E5
:102380005200ADF85200BDF8520030801220ADF876
:102390005200BDF85210ADF85210BDF85210318005
:1023A000ADF852A0BDF85210ADF85210BDF8521061
:1023B0003180B221ADF85210BDF85210ADF8521074
:1023C000BDF852103180ADF85200BDF85200ADF8A2
:1023D0005200BDF852003080FF20ADF85200BDF829
:1023E0005200ADF85200BDF852003080ADF85240B6
:1023F000BDF85200ADF85200BDF852003080ADF883
:102400005270BDF85200ADF85200BDF85200308055
:10241000F820ADF85200BDF85200ADF85200BDF8FA
:10242000520026F8020C2120ADF85200BDF85200EF
:10243000ADF85200BDF852003080ADF85250BDF8F2
:102440005200ADF85200BDF852003080F920ADF8CE
:102450005200BDF85200ADF85200BDF8520026F807
:10246000020CADF85270BDF85200ADF85200BDF844
:1024700052003080ADF85280BDF85200ADF85200E5
:10248000BDF8520030803620ADF85200BDF8520041
:10249000ADF85200BDF8520026F8020CADF852809B
:1024A000BDF85200ADF85200BDF85200308049F638
:1024B0004B30C0F60000FEF703F93A20ADF85200A9
:1024C000BDF852000524ADF85200BDF8520026F8C0
:1024D000020C0520ADF85200BDF85200ADF85200D4
:1024E000BDF85200308049F6D820C0F60000FEF753
:1024F000E7F8B420ADF85200BDF85200ADF8520034
:10250000BDF8520026F8020C0120ADF85200BDF8CB
:102510005200ADF85200BDF852003080B620ADF840
:102520005200BDF85200ADF85200BDF8520026F836
:10253000020CADF852A0BDF85200ADF85200BDF843
:10254000520030802220ADF85200BDF85200ADF8A4
:102550005200BDF852003080C120ADF85200BDF8E5
:102560005200ADF85200BDF8520026F8020C41208E
:10257000ADF85200BDF85200ADF85200BDF852005F
:102580003080C520ADF85200BDF85200ADF85200C1
:10259000BDF8520026F8020CADF85270BDF852009A
:1025A000ADF85200BDF8520030800720ADF852005F
:1025B000BDF85200ADF85200BDF852003080E02066
:1025C000ADF85200BDF85200ADF85200BDF852000F
:1025D00026F8020CADF85290BDF85200ADF852004A
:1025E000BDF8520030801F20ADF85200BDF85200F7
:1025F000ADF85200BDF8520030801C20ADF85200FA
:10260000BDF85200ADF85200BDF8520030800C20E9
:10261000ADF85200BDF85200ADF85200BDF85200BE
:102620003080ADF85290BDF85200ADF85200BDF8C0
:1026300052003080ADF85280BDF85200ADF8520023
:10264000BDF8520030804820ADF85200BDF852006D
:10265000ADF85200BDF8520030809820ADF852001D
:10266000BDF85200ADF85200BDF85200308037205E
:10267000ADF85200BDF85210ADF85210BDF852102E
:1026800031800A21ADF85210BDF85210ADF8521049
:10269000BDF8521031801321ADF85210BDF8521020
:1026A000ADF85210BDF852103180ADF85250BDF85F
:1026B00052101125ADF85210BDF852103180ADF80E
:1026C0005250BDF85210ADF85210BDF85210318082
:1026D0000D21ADF85210BDF85220ADF85220BDF8D2
:1026E00052203280ADF85270BDF85220ADF8522021
:1026F000BDF852203280E122ADF85220BDF85220C0
:10270000ADF85220BDF8522026F8022CADF85290B8
:10271000BDF85220ADF85220BDF85220328032224E
:10272000ADF85220BDF85220ADF85220BDF852202D
:1027300032802E22ADF85220BDF85220ADF8522042
:10274000BDF8522032800B22ADF85220BDF8522045
:10275000ADF85220BDF852203280ADF85210BDF8CD
:102760005210ADF85210BDF852103180ADF8524001
:10277000BDF85210ADF85210BDF85210318047210B
:10278000ADF85210BDF85210ADF85210BDF852100D
:1027900031807521ADF85210BDF85210ADF85210CD
:1027A000BDF852103180ADF85200BDF85200ADF8BE
:1027B0005200BDF8520030800620ADF85200BDF83E
:1027C0005200ADF85200BDF8520030801020ADF834
:1027D0005200BDF85200ADF85200BDF852003080F2
:1027E0000320ADF85200BDF85200ADF85200BDF81C
:1027F000520030802420ADF85200BDF85200ADF8F0
:102800005200BDF8520030802020ADF85200BDF8D3
:102810005200ADF85200BDF852003080ADF8527051
:10282000BDF85200ADF85200BDF85200308049F6B4
:10283000D330C0F60000FDF743FFADF85250BDF8AD
:102840005200ADF85200BDF8520026F8020C782074
:1028500000F024FF49F6C020C0F60000FDF730FF6D
:102860002920ADF85200BDF85200ADF85200BDF875
:10287000520026F8020C49F60830C0F60000FDF7B9
:102880001FFF49F66120C0F600000021FDF78AFD18
:1028900040F24010C0F2E010CBF800002C20C0F253
:1028A0002A00CBF808002B20ABF80C0000208BF896
:1028B000067000F0E3F8BBF80020BBF802300020FF
:1028C000002100F01FFABBF80010BBF8022049F607
:1028D0008E20C0F60000FDF765FD49F6A530C0F674
:1028E0000000FDF7EDFE48F2BC20C4F240200121BB
:1028F00001603AA0FDF7E4FEBBF80020BBF802300F
:102900000020002103FB02F500F0FCF9BBF80800F1
:1029100026F8020CB5B1691E4FF6FF70032905F0C9
:10292000030107D325F00302043A30803080308061
:102930003080F9D131B10129308003D002293080B3
:1029400018BF3080BBF80020BBF8023049F63420B5
:10295000C0F600004FF6FF71FDF724FD49F6F43094
:10296000C0F60000FDF7ACFE49F67730C0F6000077
:10297000FDF7A6FE15B0BDE8F08F00BF4C43445FE5
:10298000496E69743A205374617274696E67204CA1
:10299000434420496E697469616C697A6174696F36
:1029A0006E2E2E2E0D00000048414C5F5352414DBB
:1029B0005F496E6974204641494C4544212050725C
:1029C0006F6772616D2068616C7465642E0D000024
:1029D0004C43442049443A25780D0A004C43445F57
:1029E0004C45442073657420746F20484947482043
:1029F000284261636B6C69676874204F4E292E0D05
:102A00000000000080B582B040F2044CC2F2000C1D
:102A1000BCF80030024683424FF000002BD9BCF8CE
:102A200002308B4227D9104600F0EEF82E20ADF888
:102A30000000BDF800008021ADF80000BDF80000E6
:102A4000C6F6004121F8020C0888ADF80200BDF876
:102A500002000888ADF80400BDF80400098800F4FD
:102A60007842ADF80610BDF8061000F0FC0042EA0E
:102A7000C00040EAD12002B080BD000070B582B035
:102A800084468020ACF1010340F20442C6F60040C7
:102A9000062BC2F2000208D82821DFE803F0040860
:102AA0000A1A15171900882104E0082102E04821BC
:102AB00000E0C821362320F8023C01801388B2F8D8
:102AC00002E0734514D90DE0682102E0A82100E07E
:102AD000E821362320F8023C01801388B2F802E096
:102AE000734505D27446A2F800E053809E46234603
:102AF0005489ADF80640BDF80640ADF80640BDF873
:102B0000064020F8024C0024ADF80640BDF80650FF
:102B1000ADF80650BDF806500580ADF80640BDF88A
:102B20000650ADF80650BDF8065005805D1E2E0A11
:102B3000ADF80660BDF80660EDB2ADF80660BDF810
:102B400006600680ADF80650BDF80650ADF8065098
:102B5000BDF8065005809289ADF80620BDF8062024
:102B6000ADF80620BDF8062020F8022CADF806408E
:102B7000BDF80620ADF80620BDF806200280ADF8AD
:102B80000640BDF80620ADF80620BDF806200280FC
:102B9000AEF10102140AADF80640BDF80640D2B20B
:102BA000ADF80640BDF806400480ADF80620BDF83B
:102BB0000620ADF80620BDF80620028003A062467C
:102BC000CDF800E0FDF7EEFB02B070BD5363616E1F
:102BD0005F4469723A20307833362073657420740C
:102BE0006F203078255820286469723D2564292C8F
:102BF0002043757272656E7420573A48203D202537
:102C0000643A25642E0D0A0010B581B040F2044EDE
:102C1000C2F2000EBEF80030834271D9BEF802C085
:102C20008C456DD9BEF80A20ADF80220BDF802200F
:102C3000ADF80220BDF802408022C6F6004222F81C
:102C4000024C040AADF80240BDF80240C0B2ADF833
:102C50000240BDF802401480ADF80200BDF8020049
:102C6000ADF80200BDF802001080581E030AADF84E
:102C70000230BDF80230C0B2ADF80230BDF802300B
:102C80001380ADF80200BDF80200ADF80200BDF8F7
:102C900002001080BEF80C00ADF80200BDF8020082
:102CA000ADF80200BDF8020022F8020C080AADF8E7
:102CB0000200BDF80200ADF80200BDF8020010806D
:102CC000C8B2ADF80200BDF80200ADF80200BDF8D0
:102CD00002001080ACF10100010AADF80210BDF84D
:102CE0000210C0B2ADF80210BDF802101180ADF8AC
:102CF0000200BDF80200ADF80200BDF8020010802D
:102D000001B010BD2DE9F04181B040F2044EC2F295
:102D1000000EBEF80050854216D9BEF802608E4201
:102D200012D9CC18A4F1010C8418013CA7B21FFAE7
:102D30008CF8AF4228BF6C1EB04528BFA6F1010C2D
:102D4000002A18BF002B02D101B0BDE8F081A5B266
:102D50008542F9D31FFA8CF38B42F5D3BEF80A20D3
:102D6000ADF80220BDF80220ADF80220BDF80260E7
:102D70008022C6F6004222F8026C060AADF8026014
:102D8000BDF80260C0B2ADF80260BDF80260168006
:102D9000ADF80200BDF80200ADF80200BDF8020077
:102DA0001080280AADF80200BDF80200ADF802005C
:102DB000BDF802001080E0B2ADF80200BDF80200DC
:102DC000ADF80200BDF802001080BEF80C00ADF8AE
:102DD0000200BDF80200ADF80200BDF8020022F8C2
:102DE000020C080AADF80200BDF80200ADF80200BE
:102DF000BDF802001080C8B2ADF80200BDF80200B4
:102E0000ADF80200BDF802001080180AADF802000B
:102E1000BDF80200ADF80200BDF8020010805FFAB4
:102E20008CF0ADF80200BDF80200ADF80200BDF86C
:102E30000200108001B0BDE8F08100002DE9F04FE4
:102E400089B00C46A2F17F01C9B2A1292CD340F26E
:102E50000448C2F20008B8F800100546814223D9A0
:102E6000B8F80270A7421FD9580846198E421BD8DD
:102E70001919B94218D8DE0801215F0718BF01EB04
:102E8000D30670430896069070B1A3F10C00C1B24E
:102E9000800140EA9100C0B20528079004D8079944
:102EA0002B20C840C00702D109B0BDE8F08FA2F1C5
:102EB0002000C2B2002045F21971059002EBC20059
:102EC000C0F6000101EB8000039045F22910C0F626
:102ED000000000EB0210029046F27540C0F60000C0
:102EE00000EBC21004920190079803280DD0059BB7
:102EF00001280DD070B9049844F6B54100EB4000AC
:102F0000C0F6000101EB800005E0059B039802E09C
:102F1000029800E00198089A1844B3FBF2F190F887
:102F200000A001FB123001EB050BC6004FF00009B9
:102F3000082713E0002A40F20402C2F2000240F225
:102F40000803C2F2000348BF1A461268FFF74AF8A6
:102F50004FEA4A0A013F09F1010915D0B8F80010FB
:102F60001FFA8BF088429FD209EB04013144B8F874
:102F7000022089B2914297D24FFA8AF2002AD9D41C
:102F8000129B002BE4D1D5E70599069801318142C7
:102F90000591A9D188E700002DE9F04F87B0002BFB
:102FA000069105907BD010981C4640080490981E0E
:102FB000019058421746591E5FFA80F842F2107B82
:102FC0004FF0000900264FF0000A002503910292FD
:102FD00014E000BF0126DDE90421109B09FB02116A
:102FE00040F0300288B20699D2B20095FFF726FF72
:102FF00009F10109A1450AF1010A50D06FEA0A005E
:10300000C0B2404502D101202AE000BF01996FEA19
:103010000900A1EB0901C9B2032900EB040101D2A7
:10302000012009E001F0FC02002301200433DFB29B
:10303000974200FB0BF0F9D1029F11F003010FD072
:10304000012903D100EB8000400009E04FF47A72BF
:10305000424302294FF0640108BF00FB01F2104611
:10306000B7FBF0F04CF6CD41CCF6CC41A0FB011201
:10307000D10801EB8101002EA0EB4100ABD10399F7
:103080004945A8DD0028A5D1DDE90410002609FB8B
:1030900001000699109B80B220220096A6E707B097
:1030A000BDE8F08F2DE9F04F83B00D9F0C463E78C0
:1030B000A6F12001C9B25E2928D80C9D8046104493
:1030C00019196A0801371FFA80F91FFA81FBC246F5
:1030D000029200BF1FFA8AF0484528BF2C44A1B2D3
:1030E000594513D2484528BFC2461FFA8AF0F2B2AA
:1030F0002B4600260096FFF7A1FE17F8016BA6F1FC
:103100002000C0B25F2802988244E3D303B0BDE838
:10311000F08F00002DE9F04F87B0002B059106904D
:1031200000F08680DDE910101C4600F00109981EB1
:103130000190584215465A1E49084FF000085FFAA0
:1031400080FA42F2107B0027002603920491029538
:1031500015E000BF01270699049A109B08FB021195
:1031600040F0300288B20599D2B2CDF80090FFF756
:1031700065FE08F10108A04506F1010658D0F043AC
:10318000C0B2504502D101202AE000BF01996FEA88
:103190000800A1EB0801C9B2032900EB040101D228
:1031A000012009E001F0FC02002301200433DDB21C
:1031B000954200FB0BF0F9D1029D11F003010FD0F5
:1031C000012903D100EB8000400009E04FF47A723E
:1031D000424302294FF0640108BF00FB01F2104690
:1031E000B5FBF0F04CF6CD41CCF6CC41A0FB011282
:1031F000D10801EB8101002FA0EB4100ABD1039975
:103200004145A8DD0028A5D11198049A41B206983D
:10321000B1F1FF3F08FB02000599109B80B2D4BFBB
:1032200030222022CDF80090FFF708FE0027A0E70B
:1032300007B0BDE8F08F0000FEE700007047000017
:103240007047000070470000FDF706BD4EF688503D
:10325000CEF20000016841F4700101607047000087
:1032600010B540F2AC24C2F200042068C168C9075E
:103270000BD040F22C00C2F20000006980472068A9
:10328000002141626421C162E1606FF001010161CE
:1032900010BD000010B540F6FF3E0368C4F2000EFA
:1032A00040F2004C7045C4F2010C0FDCB0F1804FCD
:1032B00019D040F20042C4F20002904213D040F60E
:1032C0000002C4F2000290420DD010E040F600422D
:1032D000C4F20002904206D0604504D00022C4F23D
:1032E0000102904203D14A6823F07003134341F670
:1032F000FF72C4F2000290420DDC70451FDCB0F199
:10330000804F41D040F20042C4F2000290423BD0D4
:1033100040F6000221E043F6FF72C4F2010290423F
:1033200020DC42F20002C4F2000290422CD00022C3
:10333000C4F20102904227D0604525D028E040F633
:103340000042C4F2000290421ED041F60002C4F2D4
:103350000002904218D041F60042C4F200029042AE
:1033600012D015E044F20002C4F2010290420BD0E8
:1033700044F60002C4F20102904205D044F2004239
:10338000C4F20102904203D1CA6823F4407313438C
:1033900023F080024B69D1F800E08C681A43026088
:1033A000C46240F48062C0F828E0624504BF096945
:1033B00001630121416110BD806B0021C185C18481
:1033C000FEF712B910B5044690F83E00222848D105
:1033D000A2682146B2F5805F0CD151F8280F51F850
:1033E000182C8AB9216849686FF35F2120F8021B05
:1033F000A0620FE051F8280F0AB9226922B12268B1
:10340000526802F07F0201E0226852680270086888
:1034100001300860E08D01380104E08518BF10BD5F
:103420002068C16821F02001C160C16821F4807169
:10343000C160416921F001014161202184F83E1001
:10344000216B012908D1C16821F01001C160A18D53
:103450002046FEF7C7F802E02046FEF7ABFA002050
:10346000206310BD10B504460068D4E902C2236988
:10347000016921F4405111430161626943EA0C0181
:10348000E3691143C268194349F20C639A4311433B
:10349000C1604169A26921F4407141F200431143C6
:1034A00040F48062C4F201039A42416102D1FDF707
:1034B00047FD01E0FDF730FDE16963681922B1F5D0
:1034C000004FA0FB020121D15A00DB0FFCF7F1FEF7
:1034D00048F21F51C5F2EB11A0FB01235A094FF628
:1034E0009C73C0F6FF7303F1805302FB0300322389
:1034F00003EBC000A0FB01014FF4F87000EA1110CB
:1035000000EB0210C1F3421108441DE09A009B0F2A
:10351000FCF7CFFE48F21F51C5F2EB11A0FB0123CF
:103520005A094FF69C73C0F6FF7302FB0300322367
:1035300003EB0010A0FB0101F02000EA511000EBAA
:103540000210C1F3431108442168886010BD0000D7
:1035500040F2F420C2F20000FEF748B8FEE7000097
:103560007047000080B5FDF785FB4FF4A870082177
:103570000222072300F0F0F94FF4E13000F04CFA9A
:10358000A82000F085F800F051F800F005F8BDE83B
:103590008040FEF72BBE00002DE9F04186B00026EA
:1035A00043F630000196C4F20200016841F20005C2
:1035B00041F0100101600168C4F2020501F0100140
:1035C00001910199019601680DF1040841F0010192
:1035D00001600068012400F00100019001981020B2
:1035E000CDE9010602272846414603940497FDF7DA
:1035F00041FA0820CDE9010628464146CDE90347B6
:10360000FDF738FA0420CDE9010628464146CDE908
:103610000347FDF72FFA01A8D0C0A5F58050414619
:103620000497FDF727FA06B0BDE8F081B0B586B083
:103630000020019043F63000C4F20200016841F21C
:10364000004441F0200101600068C4F2020400F06F
:103650002000019001984FF4007001900120CDE905
:103660000200032001AD049020462946FDF702FA2E
:103670004FF48060019020462946FDF7FBF9204673
:103680004FF4C0610122FDF7D3FA06B0B0BD0000CF
:1036900040F2A421C2F200010860704780B54EF2EA
:1036A000180140F2A422CEF20001C2F2000251F849
:1036B00004CC1268002350434FF47A7200FB02FEE0
:1036C000086809E003449B1A904298BF634473451D
:1036D000104628BF80BD00BF0A689042F2D10A6838
:1036E0009042EFD10A689042ECD10A689042F3D040
:1036F000E8E7000080B54EF2180140F2A422CEF2B5
:103700000001C2F2000251F804CC1268002302FB4F
:1037100000FE086808E003449B1A904298BF634487
:103720007345104628BF80BD0A689042F3D10A68ED
:103730009042F0D10A689042EDD10A689042F3D0ED
:10374000E9E7000041F20001C4F201010A685206F3
:1037500009D40A6852065CBF0A685FEA426202D472
:103760000A685206F2D5C2B24A60704770B541F29B
:10377000000440F20246C4F20204C2F2000610B194
:103780000020307001E0307898BB20461021FDF712
:1037900041FA80B120460821FDF73CFA58B1204695
:1037A0000421FDF737FA30B1A4F580500121FDF76F
:1037B00031FA01281DD10A20FFF770FF01252046AC
:1037C00010213570FDF726FA60B320460821FDF779
:1037D00021FA48B320460421FDF71CFA30B3A4F5C2
:1037E00080500121FDF716FA012804BF042070BDA6
:1037F00017E020461021FDF70DFA012811D12046CF
:103800000821FDF707FA01280BD120460421FDF716
:1038100001FA012805D1A4F580500121FDF7FAF93C
:1038200030B10025284670BD022070BD032070BD58
:1038300000252846357070BD82B041F20044C4F2C4
:103840000204FFF78FFE00F05BF810201EA7009027
:103850001E203221C82210230197FFF723FC0026E7
:103860001DA56FF032070CE006FB07F0C1B2890816
:1038700041EA8010C0B20C2820D90A20FFF70EFFC1
:1038800001360020FFF772FF0128EDD120464FF4EA
:1038900080610022FDF7CCF92846FCF711FF4FF4B8
:1038A0007A70FFF7FBFE00F021F8FDF743FD20469C
:1038B0004FF480610122FDF7BBF9D5E720464FF4B4
:1038C0000071FDF7ADF9D8E750575220536C65658C
:1038D0007020546573740000456E74657220536CDB
:1038E000656570204D6F64650D00000080B5FDF7C3
:1038F000EBFD00200121BDE88040FDF74DBA00003E
:1039000080B586B00020019043F63000C4F202007A
:10391000016841F001010160006801A900F00100A7
:1039200001900198012001900020C1F21100029045
:103930000220CDE903000020C4F20200FDF79AF84E
:10394000062002210222FDF7EBF90620FDF7D4F94B
:1039500006B080BD006870472DE9F04192B043F693
:1039600040080026C4F20208CDE90A66CDE90866DF
:103970000596CDE90366CDE901660096D8F800709A
:103980004FF4800547F08057C8F80070D8F80070F1
:1039900007F080570097009F47F200070096C4F297
:1039A00000073C6844F480443C603F68012407F40D
:1039B00080470097009F4FF48037CDE90D510FA944
:1039C000079702270DC106A806940C97FDF702FB86
:1039D000E8B90F20CDE901074FF4A05004904FF44F
:1039E0008050059001A805210396FDF7E5F908B17F
:1039F00001240CE0FDF722F941F20101884202BFE7
:103A0000D8F8C00340F48070C8F8C00300242046F2
:103A100012B0BDE8F081000010B540F2F42441F28C
:103A20000001C2F20004C4F2010100220C23C4E927
:103A300000102046C4E90222C4E90423A261FDF774
:103A40000DFF40F2A821C2F2000120460122BDE88C
:103A50001040FDF783BF00002DE9F04790B00DF155
:103A60001E010DF13D020DF13E03804600F072FA99
:103A700010B110B0BDE8F08740F22C06C2F200068B
:103A8000307D00218DF83F1000B300246D460DF10C
:103A90003C090DF13E070DF11E0A00BF30682946B2
:103AA00000EBC40040684A463B4600F053FA002849
:103AB000DFD12846514600F051FE58B1307D013427
:103AC00084428DF83F40E9D3844211D1042010B0E4
:103AD000BDE8F0879DF83C009DF83D10884203D971
:103AE000022010B0BDE8F087307DB4758442EDD07F
:103AF0000DF13F01404600F077FB0028B9D19DF859
:103B00003F007075002010B0BDE8F0872DE9F04F40
:103B100099B040F22C0BC2F2000B9BF814009BF8FA
:103B20001690814580F00781DBF800000DF11E043E
:103B300000EBC90040680DF11D0207AB214600F003
:103B400009FA7EA02146FCF72DFC9DF81D000028F7
:103B500040D000240FAD0FF2F01A0BF1240879A623
:103B600003E000BF0134844234D2BBF81800E040C7
:103B7000C00715D02220FCF79DFDE7B2384600F0C3
:103B8000A3FC08EB00013046FCF70CFC2220FCF7FC
:103B900091FD384600F098FC404445F824000EE0C2
:103BA000E0B200F091FC58449BF81720416A002ACB
:103BB00045F8241014BF504665A0FCF7F3FB9DF8B0
:103BC0001D00411E8C42CDD02C20FCF773FD9DF8CA
:103BD0001D00C7E72920FCF76DFD01F017F89BF8E1
:103BE00015000A280DD8DFE800F0060D141C242C5F
:103BF00035404D5B6B00DBF8000050F83900804722
:103C000072E072E0DBF8000050F839100F98884736
:103C10006AE0DBF8000050F83920DDE90F01904739
:103C200062E0DBF800000FAA50F8393007CA984765
:103C30005AE0DBF800000FAB50F839700FCBB847F3
:103C400052E0DBF800000FAE50F839704FCE00960E
:103C5000B84749E0DBF800000FAE50F839704FCE9E
:103C6000149DCDE90065B8473EE0DBF800000FAEDB
:103C700050F839704FCEDDE91454CDE90065029457
:103C8000B84731E0DBF80000DDE91454169F50F826
:103C900039C00FAE4FCECDE90065CDE9024722E035
:103CA000DBF80000DDE914540FAE50F839C04FCEF8
:103CB000CDE9006502ADDDE9167E85E8904012E0B1
:103CC000DBF800000FAEDDE9145450F839C04FCED8
:103CD000DDF86080CDE9006502ADDDE9167E85E89E
:103CE0009040CDF81480E047044600F049FF9DF86D
:103CF0001C00012809D19BF81700214600280CBFA1
:103D000018A015A0FCF74EFB02E012A0FCF7D8FCAF
:103D10009BF8EC0078B1DBF8F0004CF6CD41CCF626
:103D2000CC41A0FB0112D10801EB8102A0EB4202C1
:103D30000EA0FCF737FB19B0BDE8F08F0D0A257314
:103D400028000000257300003058255800000000AE
:103D5000256C64003B0D00003D305825583B0D0A92
:103D6000000000003D256C753B0D0A0046756E6332
:103D700074696F6E2052756E2054696D653A2564C2
:103D80002E2531646D730D0A000000002DE9F0410D
:103D90004FF0000C00234FF0000E00244FF0FF08FE
:103DA0000AE000BF5C2D04BF01300CF1010C057866
:103DB000012401F8015B57E0057885F02C062643C5
:103DC00008BF0123292D01D12CB961E0002D08BFC6
:103DD000002C00F05F80BEF1000F09D01E0640F0FD
:103DE0005580222D01D0002CDCD100243CE000BF06
:103DF000A5F13007FFB20A2FC0F03A80A5F12007E5
:103E0000582F00F24B804FF0000EDFE807F02D47EF
:103E1000394747474747474747312D314747474786
:103E20004747474747474747474747474747473138
:103E30003131313131474747474747474747474780
:103E4000474747474747314747474747474747312E
:103E50003131313131474747474747474747474760
:103E600047474747474731000CF1010C0130A3E7B2
:103E70001F0611D1602D88BF203D4FF0000E98E73E
:103E80001F0613D14FF0010E0124EDE7F04605E0C7
:103E9000F04603E0F04601E04FF000080020087013
:103EA0005FFA8CF082F80080BDE8F0814FF00008E6
:103EB000F4E7000070B54FF0000C82F800C010F875
:103EC0000C5045F02004202C36D001F80C50157809
:103ED0000135ECB29C4215702CD200EB0C067578C3
:103EE00001EB0C0E45F02004202C27D08EF8015059
:103EF00014780134E5B29D4214701BD2B57845F0B8
:103F00002004202C1DD08EF8025014780134E5B224
:103F10009D4214700ED2F47844F02005202D13D069
:103F20008EF8034016780CF1040C0136F5B29D4270
:103F30001670C4D3012070BD614407E00EF1010189
:103F400004E00EF1020101E00EF10301002008700F
:103F500070BD00002DE9F04F82B000270DF1020C7A
:103F6000064603E0FDB2852D16D001363578202DAA
:103F7000F8D09DB107F07F04042CF3D83C0608BFAD
:103F80006FF07F0707F07F04042C01D12A2D07D1A1
:103F900001370CF80450E8E7852701E03E062DD0F4
:103FA00007F07F0700260CF807609DF80270762F57
:103FB00020D149F62F2E76244FF00008C0F6000ECF
:103FC000D4B10CEB08040EEB080566786F78BE429E
:103FD00010D18EB1A678AF78BE420BD166B1E6782B
:103FE000EF78BE4206D13EB124792D7908F104085C
:103FF000AC42E5D0012700E000271F7005780023C0
:1040000006464FF0000EF71CEDB20DB3282D1FD061
:1040100016F8015F3C462A2D03F1010304D0202D40
:1040200004F10107F0D100BF14F8017C202F09D161
:104030002778202F06D16778202F03D1A778043462
:10404000202FF1D007F0FD04282C18BF9E46DAE798
:104050005FFA8EF44FF00108002C18BF58FA8EF466
:10406000035D4FF00009002B00F094802044461CB3
:1040700000274FF000094FF0000A01254FF0000C17
:1040800000244FF0000B11E0013584F0010085F0B1
:1040900002031843C0B2B0FA80F35B099C440028C5
:1040A00008BF032516F8013B002B41D0282B08BF81
:1040B0005FEA076E16D0292B08BF5FEA076019D0A8
:1040C000F8B2B0FA80F0222B08BF4709200627D0AB
:1040D000202B18BF282BD8D02C2B14D109F1010983
:1040E0000125DFE758FA84F4E0B2A0424FF0000760
:1040F000CBD019E0E0B2002808BF4FF0010B022836
:1041000018D3013C00275FEA0960BDD1BAF1040F62
:104110009EBF0DF1020000F80A300AF1010AB3E770
:10412000202B01D10024BDE701F8013B0024B9E7B1
:104130004FF0010B5FFA8CF0012830D100200DF117
:10414000020404F80A009DF8020076282AD149F6F4
:104150002F2E76250023C0F6000E4FF000094FF0F9
:10416000010C65B3E5180EEB03006E784778BE428C
:1041700028D156B3AE788778BE4229D15EB3EE78A7
:10418000C778BE422AD166B32D79007904338542BF
:10419000E7D00BE04FF0010B4FF0000C06E04FF0C2
:1041A000000903E04FF0010C4FF0000982F800C055
:1041B0005FFA8BF081F8009002B0BDE8F08F4FF00D
:1041C000000CF3E74FF0010CF0E74FF0000CEDE7C7
:1041D0004FF0010CEAE74FF0000CE7E74FF0010C5D
:1041E000E4E74FF0000CE1E72DE9F04FB7B040F203
:1041F0002C098346C2F200090020C9F81A00C9F848
:104200001E00A9F822001BF8040B282816D01BF862
:10421000030C78B1282815D01BF8020C50B12828BF
:1042200014D01BF8010C28B1282811D01BF8040B5E
:104230000028EAD1012037B0BDE8F08F0091ABF142
:10424000030B06E00091ABF1020B02E0ABF1010BB6
:1042500000910DF10B0A0AF102004FF000080DF178
:10426000DB070190584651463A46FFF78FFD9DF80F
:10427000DB1029B1012921D0FF2940F0F78004E1AA
:104280009DF80B10002900F0F1800646504635A934
:1042900000F0B0F9002840F0F880DDF8D4C05FEA03
:1042A000086153D04FF0FF3050FA88F103295FFACC
:1042B00088FE4FD20023002262E000BF9DF80BC0B1
:1042C0004FF0000EBCF1000F12D0019A12F8013C21
:1042D000002B66D01378002B69D05378002B6CD05C
:1042E00093780EF1040E002B02F10402EED100BF10
:1042F0005FEA086266D04FF0FF3151FA88F2032A74
:1043000002D20023002212E05FFA88F202F0FC05DC
:104310000023002209EB03018F7ECE7E0C7F3A44FE
:10432000497F3244224404339D420A44F2D118F0BA
:10433000030548D04B44997E012D0A4443D0D97ED1
:10434000022D0A441CBF197F0A443CE04FF0000EC6
:10435000002273E00EF0FC050023002209EB0300AD
:10436000817E4C4690F81B9090F81CA01144407F31
:10437000494451440433A1469D4200EB0102EDD172
:1043800018F0030558D04B44987E012D02440DF1DE
:104390000B0A53D0D87E022D02441CBF187F024462
:1043A0004CE04EF0010E5FEA0862A4D10AE04EF044
:1043B000020E5FEA08629ED104E04EF0030E5FEA4F
:1043C000086298D1002259FA82F1BCF1000F81F8FD
:1043D00024C019D0D1B24944002200BF0AEB020325
:1043E0005F788D1885F8257077B19F7885F82670ED
:1043F00057B1DF7885F8277037B11B790432002B6D
:1044000085F82830EAD100BF5FFA88F1B9F81820A2
:10441000012303FA01F11143A9F8181059FA88F1A0
:1044200008F101080EF101075FFA88F20A2A8F7677
:104430000DF1DB071AD92CE00DF10B0A59FA82F0C5
:10444000C0F824C0B9F81800012101FA0EF108F1F2
:10445000010888435FFA88F1A9F8180009EB0E00FB
:104460000A294FF004018176304612D883449BF824
:104470000000292802D000287FF4F4AE009880F8CC
:104480000080002037B0BDE8F08F022037B0BDE8D3
:10449000F08F032037B0BDE8F08F000040F20041FC
:1044A000C2F20001B1F900200020B2F1FF3FC8BF05
:1044B000704792B240F23833D2B2C2F2000398543D
:1044C000088018467047000070B558B1411E40F290
:1044D0002C0E00F0030C0329C2F2000E05D20023BB
:1044E000002014E00020C0B270BD00F0FC010023E9
:1044F000002000BF0EEB0302947ED57E167F204481
:10450000527F28443044043399421044F2D1BCF124
:10451000000F0DD00EEB03018A7EBCF1010F104499
:1045200006D0CA7EBCF1020F10441CBF097F0844AC
:10453000C0B270BD80B564214843013881B24FF4E8
:104540007A7000F033FB40F22C00C2F2000001212F
:10455000C17580BD70B5FFF7A1FFD8B140F22C0640
:10456000C2F20006B16804468847A0B1054620465D
:1045700000F01EF9012818BF0546681E032888BFF1
:1045800070BDDFE800F0020C111612A0BDE870400B
:10459000FCF796B870BDF068BDE8704000470AA00F
:1045A000BDE87040FCF78CB804A0BDE87040FCF793
:1045B00087B80BA0BDE87040FCF782B8B2CECAFD48
:1045C000CCABB6E0210D0000B2CECAFDB4EDCEF307
:1045D000210D0000BAAFCAFDB4EDCEF3210D0000ED
:1045E000CEB4D5D2B5BDC6A5C5E4B5C4BAAFCAFD73
:1045F000210D00002DE9F04F4FF0000E0A22034676
:104600004FF0000CC1F800E006E0402D88BF1022FA
:1046100001304FF0020C01331D78A5F130040A2C53
:1046200016D304782D2C03D15FEA0E6606D1ECE791
:1046300084F02B065FFA8EF73E4309D0A5F14106C0
:10464000062E05D3582D14D15FFA8EF6012E10D107
:104650000478402D88BF10222B2C05D02D2CD7D0CC
:104660000EF1010E0133D7E701304FF0010C013399
:10467000D2E7002D1CBF0120BDE8F08FD2B2102A76
:1046800015D15FFA8EF3032B3CBF0220BDE8F08FFB
:10469000302C1CBF0320BDE8F08F4378582B1CBF83
:1046A0000320BDE8F08F0230AEF1020E02E05FEAB7
:1046B0000E6350D090F800A04FF0000B0DE000BF4B
:1046C000012709EB0A0307FB03BBAE46C1F800B0A4
:1046D00010F801AFBAF1000F31D05FFA8EF5002D5E
:1046E000AAF13004AEF1010818BF45460A2C6FF05C
:1046F000360938BF6FF02F092C06E1D0AEF1020762
:10470000FFB2032F02D201270DE000BF08F0FC0624
:10471000002401275743574304345743E3B2B342BD
:1047200002FB07F7F6D118F00306CAD0012E02FBF0
:1047300007F7C6D05743022E18BF5743C1E7BCF155
:10474000020F1CBF0020BDE8F08FCBF10000086015
:104750000020BDE8F08F0420BDE8F08F10B502788E
:104760000B789A421FD14FF0000CF2B100EB0C0213
:1047700001EB0C0E53789EF80140A34213D1A3B174
:1047800093789EF80240A3420DD173B1D3789EF87E
:104790000340A34207D143B112799EF804300CF1D3
:1047A000040C9A42E1D0012010BD002010BD000091
:1047B0002DE9F0438BB00DF10D010DF12B021E23FD
:1047C0000446FFF777FB019018B101200BB0BDE85C
:1047D000F0839DF82B0040F2100604440021C2F241
:1047E00000060DF10D058DF82B1000BFC8B256F86C
:1047F00020102846FFF7B2FF9DF82B1028B1013199
:10480000C8B207288DF82B10F0D3C8B20628DCD820
:10481000DFE810F0070007007200A200E3000301C8
:10482000220149F28A70C0F60000FBF749FF49F205
:104830008050C0F60000FBF743FF49F2BE50C0F6BF
:104840000000FBF73DFF49F20F70C0F60000FBF7D8
:1048500037FF49F2D060C0F60000FBF731FF49F2A4
:104860004D70C0F60000FBF72BFF49F2FC50C0F67C
:104870000000FBF725FF49F28A60C0F60000FBF755
:104880001FFF49F26A60C0F60000FBF719FF49F20A
:10489000A460C0F60000FBF713FF49F2BA60C0F64F
:1048A0000000FBF70DFF49F2AB40C0F60000FBF73C
:1048B00007FF49F29040C0F60000FBF701FF49F204
:1048C0005B40C0F60000FBF7FBFE49F22640C0F655
:1048D0000000FBF7F5FE49F2F530C0F60000FBF7EB
:1048E000EFFE49F23760C0F60000FBF7E9FE49F23F
:1048F0004258C0F60008F2E049F28A78C0F6000893
:104900004046FBF7DDFE49F20350C0F60000FBF71E
:10491000D7FE40F22C05C2F20005287D00210028B8
:104920008DF82B1000F0DB8049F28A78002092A4E9
:10493000C0F600082968C0B201EBC00041682046FB
:10494000FBF730FD9DF82B00297D0130C2B28A4271
:104950008DF82B00EED3C2E049F28A78C0F6000849
:104960004046FBF7ADFE49F2C440C0F60000FBF73D
:10497000A7FE40F22C06C2F20006307D002100287E
:104980008DF82B1000F0AB8049F28A7800200DF1F1
:104990000D050DF10C090DF10B0772A4C0F600080E
:1049A0003168C0B201EBC000406829464A463B4628
:1049B000FFF7D0FA30689DF82B1050F831202046D0
:1049C0002946FBF7EFFC9DF82B00317D0130C2B288
:1049D0008A428DF82B00E3D381E049F28A70C0F659
:1049E0000000FBF76DFE0DF10D010DF12B022046CD
:1049F000FFF7CCF99DF82B00002845D10DF10D00F3
:104A000001A9FFF7F7FD04288DF82B0040D0D8BB93
:104A1000019951A0FBF7C6FC5DE049F28A70C0F62F
:104A20000000FBF74DFE0DF10D010DF12B022046AC
:104A3000FFF7ACF99DF82B0030BB0DF10D0001A97B
:104A4000FFF7D8FD04288DF82B002BD0E0B9019991
:104A500039A0FBF7A7FC3EE049F28A70C0F60000DF
:104A6000FBF72EFE0DF10D010DF12B022046FFF795
:104A70008DF99DF82B0038B90DF10D0001A9FFF754
:104A8000B9FD8DF82B00B8B102200BB0BDE8F08362
:104A90002CA0FBF715FE40F22C00C2F20000012111
:104AA000C17518E01FA0FBF70BFE40F22C00C2F20C
:104AB00000000021C1750EE09DF8041040F22C00AA
:104AC000C2F2000080F8EC100FA008A2002908BF75
:104AD0001046FBF7F5FD49F28A78C0F6000840461B
:104AE000FBF7EEFD00200BB0BDE8F08352756E20A1
:104AF00054696D652043616C63756C6174696F6E98
:104B0000204F46460D00000052756E2054696D65B9
:104B10002043616C63756C6174696F6E204F4E0D3C
:104B2000000000003130BDF8D6C6B2CECAFDCFD4E9
:104B3000CABE210D000000004445433A256C750DA6
:104B40000A0000003136BDF8D6C6B2CECAFDCFD4B9
:104B5000CABE210D000000004845583A305825587B
:104B60000D0A000025732069642069733A0D0A302C
:104B700058253038580D0A0025730D0A0000000032
:104B800040F2AC20C2F20000006840F22C02C2F2F7
:104B900000020169D2F8F030406A4FF6FF7CC90785
:104BA00018BF63441844C2F8F000704710B582B0D3
:104BB000002243F640030192C4F202031C6844F051
:104BC00004041C601B6840F2AC2403F0040301934E
:104BD000019BC2F2000440F60003C4F20003C4E9E2
:104BE00002202046C4E900312261FCF777FC204610
:104BF000FCF7A4FC1E2003210322FCF791F81E20E1
:104C000002B0BDE81040FCF777B8000040F2AC20DD
:104C1000C2F2000001686FF001020A614FF6FF72F4
:104C2000CA62C2600020486240F22C01C2F2000158
:104C3000C1F8F000704700000160704730380A2862
:104C400001D20120704700207047F1EE100A4FF6A4
:104C5000FF71C0F2C03120EA010040F04070E1EE87
:104C6000100A7047303132333435363738394142E3
:104C700043444546403058003031323334353637BE
:104C8000383961626364656640307800040000086A
:104C90000000000000000002000100001000000001
:104CA00000000000000102030406070809000000DC
:104CB00000010203040000000000000000000000EA
:104CC00000000000003F4000000000000000003035
:104CD00000400030004000000009000BC03D000B08
:104CE000C03D00090018C024407FE0224031800010
:104CF00000180024C01B000D803240018003801C7E
:104D00004027401C80074000401000600000000069
:104D100000000000000000000000001F8020404054
:104D2000200000402020401F8000000000090006F5
:104D3000001F80060009000000040004003F8004FA
:104D400000040000000010006000000000000000EF
:104D5000000400040004000400040000000000003F
:104D6000400000000000000000002001C0060038E4
:104D700000400000001F802040204020401F800095
:104D800000000010403FC000400000000018C0219B
:104D9000402240244018400000108020402440243D
:104DA000401B80000002000D0011003FC0014000C8
:104DB000003C80244024402440238000001F8024A5
:104DC0004024403440038000003000200027C038D9
:104DD00000200000001B802440244024401B800051
:104DE000001C0022C0224022401F80000000000062
:104DF0000008400000000000000000000004600007
:104E00000000000000000004000A001100208040A3
:104E100040090009000900090009000000000040E5
:104E200040208011000A00040018002000234024C4
:104E300000180000001F802040274029401F40002C
:104E400000004007C039000F0001C0004020403F73
:104E5000C0244024401B8000001F802040204020B0
:104E6000403080000020403FC0204020401F800094
:104E70000020403FC024402E4030C0000020403F72
:104E8000C024402E00300000000F0010802040227F
:104E9000403380020020403FC0040004003FC02097
:104EA00040204020403FC0204020400000006020C3
:104EB0002020203FC02000200020403FC024400B85
:104EC0000030C0204020403FC02040004000400053
:104ED000C03FC03C0003C03C003FC0000020403F3A
:104EE000C00C4023003FC020001F802040204020F5
:104EF000401F80000020403FC024402400180000D4
:104F0000001F802140214020E01FA0000020403FE2
:104F1000C02440260019C0004018C024402440226C
:104F20004031800000300020403FC0204030000071
:104F30000020003F80004000403F80200020003ED5
:104F40000001C0070038002000380007C03C0007FF
:104F5000C038000000204039C0060039C0204000A1
:104F6000002000384007C0384020000000304021B9
:104F7000C02640384020C00000000000007FE04014
:104F80002040200000000070000C00038000400062
:104F9000000000402040207FE000000000000020D2
:104FA0000040002000000000000010001000100071
:104FB0001000100010000000004000000000000081
:104FC00000000002800540054003C0004020003F73
:104FD000C00440044003800000000003800440043B
:104FE000400640000000000380044024403FC00011
:104FF000400000038005400540034000000000041D
:10500000401FC0244024402000000002E00550055D
:10501000500650042020403FC00440040003C0005C
:10502000400000044027C0004000000000001000C5
:1050300010041027E00000000020403FC00140079E
:105040000004C00440204020403FC0004000400019
:105050000007C0040007C0040003C00000044007AC
:10506000C00440040003C00040000003800440046A
:105070004003800000041007F00450044003800047
:1050800000000003800440045007F00010044007B3
:10509000C002400400040000000000064005400576
:1050A0004004C00000000004001F800440004000D5
:1050B00000040007800040044007C00040040007CF
:1050C0000004C0018006000400060001C0070001C2
:1050D000C006000000044006C0010006C0044000F5
:1050E000000410071004E001800600040000000422
:1050F0004005C00640044000000000000004007BA2
:10510000E040200000000000000000FFF000000070
:1051100000000040207BE004000000000040008010
:1051200000400020002000400000000000000000BF
:105130000000000000000000000000000000001F50
:10514000CC000C00000000000000000800300060EF
:10515000000800300060000000022003FC1E200256
:105160002003FC1E200220000000000E1811043F46
:10517000FF10840C78000000000F0010840F38002E
:10518000C0077818840078000000780F8410C411DC
:10519000240E9800E40084000808006800700000F5
:1051A00000000000000000000000000000000007F8
:1051B000E0181820044002000000004002200418FB
:1051C0001807E00000000000000240024001800FCC
:1051D000F001800240024000000080008000800F4B
:1051E000F800800080008000000001000D000E002B
:1051F00000000000000000000000000080008000AF
:105200008000800080008000800000000C000C0006
:105210000000000000000000000000000600180070
:10522000600180060018002000000007F008081048
:10523000041004080807F000000000080408041F18
:10524000FC000400040000000000000E0C1014100C
:1052500024104411840E0C000000000C18100411DE
:1052600004110412880C700000000000E003200408
:105270002408241FFC0024000000001F9810841143
:10528000041104108810700000000007F008881155
:1052900004110418880070000000001C00100010A9
:1052A000FC13001C001000000000000E3811441018
:1052B00084108411440E38000000000700088C1090
:1052C000441044088807F0000000000000000003BC
:1052D0000C030C00000000000000000000000101B1
:1052E00006000000000000000000000080014002F5
:1052F00020041008081004000002200220022002EE
:1053000020022002200220000000001004080804EF
:1053100010022001400080000000000E001200106A
:105320000C106C10800F00000003E00C1813E41444
:105330002417C4082807D000000004003C03C41C44
:1053400040074000E4001C000410041FFC1104117D
:105350000411040E880070000003E00C1810041003
:1053600004100410081C10000010041FFC1004108E
:10537000041004080807F0000010041FFC110411B9
:105380000417C410040818000010041FFC110411B5
:105390000017C010000800000003E00C18100410F3
:1053A0000410441C780040000010041FFC1084000E
:1053B00080008010841FFC10040000100410041FE3
:1053C000FC10041004000000000003000110011094
:1053D000011FFE10001000000010041FFC11040348
:1053E000801464181C1004000010041FFC1004003A
:1053F0000400040004000C000010041FFC1F000047
:10540000FC1F001FFC1004000010041FFC0C040310
:105410000000E010181FFC100007F008081004102E
:10542000041004080807F0000010041FFC1084108A
:1054300080108010800F00000007F0081810241062
:1054400024101C080A07F2000010041FFC110411AC
:105450000011C011300E0C000400000E1C110410CD
:1054600084108410441C3800001800100010041F21
:10547000FC100410001800000010001FF8100400B9
:1054800004000410041FF8100010001E0011E000BA
:105490001C007013801C0010001FC0103C00E01F97
:1054A0000000E0103C1FC000001004180C1634016E
:1054B000C001C01634180C100410001C00130400A6
:1054C000FC13041C00100000000804101C106410E1
:1054D0008413041C04101800000000000000007F6A
:1054E000FE4002400240020000000030000C0003B9
:1054F000800060001C0003000000004002400240E9
:10550000027FFE00000000000000000000200040BC
:1055100000400040002000000000010001000100E8
:1055200001000100010001000100004000400020D6
:1055300000000000000000000000000098012401AD
:10554000440144014400FC000410001FFC008801D9
:105550000401040088007000000000007000880151
:1055600004010401040088000000000070008801AC
:1055700004010411081FFC0004000000F8014401AC
:10558000440144014400C800000000010401040F6C
:10559000FC1104110411001800000000D6012901BB
:1055A00029012901C90106000010041FFC00840123
:1055B000000100010400FC000400000104190419AA
:1055C000FC000400040000000000000003000101D2
:1055D00001190119FE0000000010041FFC00240046
:1055E0004001B4010C010400000000100410041F6D
:1055F000FC0004000400000000010401FC0104019F
:105600000001FC0104010000FC010401FC00840114
:10561000000100010400FC0004000000F801040186
:10562000040104010400F80000010101FF008501EC
:105630000401040088007000000000007000880170
:10564000040104010501FF00010104010401FC0043
:10565000840104010001800000000000CC0124014D
:10566000240124012401980000000001000100072A
:10567000F80104010400000000010001F80004002A
:10568000040004010801FC00040100018001700015
:105690000C001001600180010001F0010C003001DC
:1056A000C00030010C01F0010000000104018C0079
:1056B000740170018C01040000010101810171007D
:1056C0000E001801600180010000000184010C013E
:1056D0003401440184010C000000000000000000BF
:1056E0000001003EFC4002400200000000000000FB
:1056F00000FFFF0000000000000000400240023EEA
:10570000FC0100000000000000000060008000803C
:1057100000400040002000200000000000000000C9
:105720000000000000000000000000000000000079
:105730000000000000000000000000000000000069
:105740000000000000000000000000000F80380F83
:10575000FE380F803800000000000000000000004C
:10576000000000000000000100000600000C000026
:105770003800003100000600000C00003800003046
:1057800000000000000000000061800067F807F9D9
:10579000800061800061800061800061800067F8A6
:1057A00007F9800061800000000000000000000197
:1057B000C0E003E0F00630080418081FFFFE040EE6
:1057C000080787F00381E000000000000001F000FE
:1057D000060C00040408060C7001F9C0000E00005D
:1057E0003BE000EC18070808040C180003E0000078
:1057F000000001E00007F003F818041C0804170873
:1058000007E1D003C0E00023B0003C0800200800FE
:105810000010000000000000010000310000320014
:10582000001C00000000000000000000000000005C
:105830000000000000000000000000000000000068
:105840000000000000000000007F0001FFC0078092
:10585000F00C0018100004200002000000000000FE
:105860002000021000040C00180780F001FFC000A7
:105870007F000000000000000000000000000000A9
:1058800000000000004200006600006600003C00CE
:1058900000180003FFC0001800003C000066000074
:1058A0006600004200000000000800000800000838
:1058B0000000080000080001FFC000080000080008
:1058C00000080000080000080000000000000100BF
:1058D000003100003200001C000000000000000049
:1058E00000000000000000000000000000000000B8
:1058F0000008000008000008000008000008000080
:10590000080000080000080000080000080000006F
:1059100000000000000000000038000038000038DF
:105920000000000000000000000000000000000077
:10593000000000000000000000000600001C000045
:1059400070000180000E0000380000C00007000059
:105950001C0000300000000000000000007F8001FB
:10596000FFE0038070060018040008040008060029
:105970001803807001FFE0007F800000000000003D
:1059800000000001000801000801000803FFF807FB
:10599000FFF80000080000080000080000000000F8
:1059A0000000000001C03802C0580400980401182B
:1059B000040218040418061C1803F81801E0F80083
:1059C000000000000000000001C0E003C0F004007F
:1059D0000804080804080806180803F41801E7F08A
:1059E0000001E000000000000000000000030000D3
:1059F0000D0000110000610000810803010807FF8D
:105A0000F80FFFF800010800010800000000000086
:105A10000000E007FCD0060808061008061008067B
:105A20001008061838060FF00607C0000000000036
:105A300000000000003F8001FFE0038430020818EE
:105A4000041008041008041008071810030FF000D1
:105A500007C000000000000000000003C0000700B5
:105A6000000600000600F80607F806180006E00029
:105A700007000006000000000000000001E1E00354
:105A8000F7F0063410041808041808040C08040C75
:105A90000806161803F3F001C1E000000000000042
:105AA00000F80003FC30030638040208040208046E
:105AB00002080404100308F001FFC0007F0000008A
:105AC00000000000000000000000000000000000D6
:105AD00000703800703800703800000000000000CE
