:020000040800F2
:10000000B0060020290200088D0E0008890E0008A5
:100010008B0E00085B040008B3120008000000000B
:10002000000000000000000000000000910E000829
:100030005D040008000000008F0E0008290F000872
:10004000430200084302000843020008430200087C
:10005000430200084302000843020008430200086C
:10006000430200084302000843020008430200085C
:10007000430200084302000843020008430200084C
:10008000430200084302000843020008430200083C
:10009000430200084302000843020008430200082C
:1000A000430200084302000843020008430200081C
:1000B000430200084302000843020008430200080C
:1000C00043020008430200084302000843020008FC
:1000D00043020008430200084302000843020008EC
:1000E00043020008430200084302000843020008DC
:1000F00043020008430200084302000843020008CC
:1001000043020008430200084302000843020008BB
:1001100043020008430200084302000843020008AB
:10012000430200084302000843020008430200089B
:10013000430200084302000843020008430200088B
:10014000430200084302000843020008430200087B
:10015000430200084302000843020008430200086B
:10016000430200084302000843020008430200085B
:100170004302000843020008430200080000000098
:10018000430200084302000800F002F800F03CF8C7
:100190000AA090E8000C82448344AAF10107DA45E2
:1001A00001D100F031F8AFF2090EBAE80F0013F0F8
:1001B000010F18BFFB1A43F0010318479811000004
:1001C000B8110000103A24BF78C878C1FAD8520795
:1001D00024BF30C830C144BF04680C6070470000C1
:1001E0000023002400250026103A28BF78C1FBD840
:1001F000520728BF30C148BF0B6070471FB501F0E0
:1002000097F81FBD10B510BD00F0EEF81146FFF7CE
:10021000F5FF01F05FF800F00CF903B4FFF7F2FF0F
:1002200003BC00F013F90000094880470948004763
:10023000FEE7FEE7FEE7FEE7FEE7FEE7FEE7FEE796
:10024000FEE7FEE704480549054A064B70470000F3
:100250002D0F000889010008B0000020B006002022
:10026000B0020020B002002053EA020C00F06980C6
:100270002DE9F04B4FF00006002B1FBFB3FA83F5BA
:1002800003FA05F424FA05F65E4012BF1643B2FAEB
:1002900082F502FA05F4C5F120051EBF22FA05FC1D
:1002A00044EA0C04203556EA044C4FEA144418BFC3
:1002B000641C4FF000084FF00009904271EB030CF2
:1002C00039D3002919BFB1FA81F701FA07F6B0FA5C
:1002D00080F700FA07F6C7F120071EBF20FA07FCD7
:1002E00046EA0C062037B6FBF4FCA7EB0507103FE7
:1002F00007F01F0BCBF120060CFA0BFB2CFA06F6CD
:1003000044BFB3460026202FA4BF5E464FF0000B2B
:100310005BEA060C08BF4FF0010B19EB0B09ABFBB6
:10032000027C48EB0608C01B06FB02CC0BFB03CC8F
:1003300071EB0C01C1E70B46024641464846BDE859
:10034000F08B13B54FF000004FF00001AFF30080C9
:10035000BDE81C40704710B5431C02E010F8011BBB
:1003600071B18107FAD14FF0013202C88C1A8C4367
:1003700014EAC211F9D0C01A0A0603D0C01E10BD7B
:10038000C01A10BD0A0401D0801E10BD0902FCD0A5
:10039000401E10BD4FF0000200B51346944696462D
:1003A000203922BFA0E80C50A0E80C50B1F1200188
:1003B000BFF4F7AF090728BFA0E80C5048BF0CC036
:1003C0005DF804EB890028BF40F8042B08BF704794
:1003D00048BF20F8022B11F0804F18BF00F8012B06
:1003E0007047704770477047754600F02BF8AE466F
:1003F00005006946534620F00700854618B020B531
:10040000FFF720FFBDE820404FF000064FF0000747
:100410004FF000084FF0000B21F00701AC46ACE8AC
:10042000C009ACE8C009ACE8C009ACE8C0098D4619
:10043000704710B50446AFF300802046BDE8104079
:10044000FFF7EBBE0048704750000020014918201C
:10045000ABBEFEE7260002007047FEE770470000D3
:100460002DE9F84FDFF88C91002209F1040A0AF116
:10047000040B4FF00F080BF1040E01260B68964099
:100480003340B34271D14C68022C01D0122C11D1EF
:10049000D40800EB84073D6A5407E40E08FA04FC14
:1004A00025EA0C05D1F810C00CFA04FC4CEA050C46
:1004B000C7F820C007685400032591F804C0A54080
:1004C0000CF0030CAF430CFA04FC4CEA070CC0F828
:1004D00000C04F68012F05D0022F03D0112F01D08B
:1004E000122F11D18768D1F80CC0AF430CFA04FC6D
:1004F0004CEA070CC0F808C04768B7430E79C6F34A
:10050000001696403E434660C668AE438D68A540DF
:100510003543C5604C68E40065D5374C256845F423
:1005200080452560246822F0030504F4804400948B
:10053000324C2E19D6F808789407250F08FA05F4DE
:10054000A7432F4CA04201D1002424E02D4CA0420F
:1005500001D101241FE02C4CA04201D102241AE059
:100560002A4CA04202D1032415E03CE0284CA042D2
:1005700001D104240FE0274CA04201D105240AE058
:10058000254CA04201D1062405E0244CA04201D113
:10059000072400E00824AC403C43C6F80848D9F8DA
:1005A00000404D464E689C43F60300D51C432C602A
:1005B000DAF8004055464E689C43B60300D51C430C
:1005C0002C60DBF800405D464E689C43F60200D587
:1005D0001C432C60DEF8004075464E689C43B60212
:1005E00000D51C432C60521C102AFFF446AFBDE816
:1005F000F88F0000003C01404438024000300140C8
:10060000000002400004024000080240000C0240CA
:10061000001002400014024000180240001C02407A
:1006200001480068000C7047002004E00148806821
:1006300070470000040000200248816802781144DD
:100640008160704704000020094810B5016841F43A
:1006500000710160016841F480610160052000F0D3
:1006600057F80F2000F006F800F024F8002010BD25
:10067000003C024070B50D4D04464FF47A71287865
:10068000B1FBF0F00A490968B1FBF0F000F0C4FAE0
:1006900048B9102C07D200222146501E00F018F84D
:1006A00000206C6070BD012070BD000004000020BF
:1006B000000000207047002809DB00F01F02012124
:1006C00091404009800000F1E020C0F8001170471F
:1006D000F0B40E4B1B68C3F30223C3F10704042CD0
:1006E00000D904241D1D072D01D2002300E0DB1ECC
:1006F000012606FA04F56D1E0D409D409E40761EB3
:10070000164045EA0601F0BC00F0D4BD0CED00E057
:10071000064A00F0070110684FF6FF03184040EA50
:100720000120034908431060704700000CED00E011
:100730000000FA052DE9F0470D46040065D0DFF80A
:100740001491D9F80000EFB200F00F00A84207D2D0
:1007500089F80070D9F8000000F00F00A84254D1C9
:1007600020683D4E810712D5400703D5306840F41C
:10077000E05030602078000703D5306840F46040D6
:1007800030603068A16820F0F000084330602078C5
:10079000C0072DD0304960680839012812D00228DE
:1007A00013D0032811D00968890700292DDA316890
:1007B00021F0030101433160FFF738FF804641F229
:1007C000883A0EE009688903EFE709688901ECE7D8
:1007D000FFF72CFFA0EB0801514502D90320BDE82B
:1007E000F0873068616800F00C00B0EB810FEFD14A
:1007F000D9F80010484601F00F01A94207D9077047
:10080000006800F00F00A84201D00120E7E720783F
:10081000400705D53068E16820F4E05008433060B7
:100820002078000706D53068216920F4604040EA4E
:10083000C100306000F036F83168084AC1F3031196
:10084000515CC840064908600F20FFF713FF0020E5
:10085000C5E70000003C0240083802403A13000897
:10086000000000200448054900680968044AC1F3F3
:100870008221515CC84070470000002008380240C7
:100880004A1300080448054900680968044AC1F38E
:100890004231515CC84070470000002008380240D7
:1008A0004A130008154810B5006810F00C011448F0
:1008B00013D0431004290FD008290ED10F4C241F48
:1008C000216801F03F022168490207D52068C0F382
:1008D0008810A0FB030106E0184610BD2168C1F393
:1008E0008811A1FB00010023FFF7BEFC2168C1F3C2
:1008F0000141491C4900B0FBF1F010BD083802402D
:100900000024F4002DE9F84F040073D02078BD4D89
:10091000C00748D0BB4808300168C1F381010129F4
:1009200008D00068C0F3810002280AD1281D0068A1
:10093000400206D52868800335D560680028E4D0D9
:1009400031E06068B0F5803F10D0B0F5A02F286886
:1009500010D020F480302860286820F4802028609F
:100960006068A0B1FFF762FE06460CE0286840F41C
:100970008030F4E740F480202860F7E7FFF756FE68
:10098000801B642872D828688003F7D50BE0FFF736
:100990004DFE064604E0FFF749FE801B6428F1D8AF
:1009A00028688003F7D42078DFF85C9280074FF046
:1009B000000A3ED593480830016811F00C0F09D0A9
:1009C0000068C0F3810002280BD18E48001D00682A
:1009D000400206D42868800715D5E068012809D1AF
:1009E00011E0E068B8B10120C9F80000FFF71EFE71
:1009F000064605E003E1FFF719FE801B0228C1D877
:100A000028688007F7D52868216920F0F80040EAB7
:100A1000C10028600DE0C9F800A0FFF707FE0646F8
:100A200004E0FFF703FE801B02281FD82868800718
:100A3000F7D42078000722D5724F74496069743763
:100A400070B101200860FFF7F1FD064604E0FFF7F2
:100A5000EDFD801B022809D838688007F7D50EE025
:100A6000C1F800A0FFF7E2FD064605E081E0FFF7D0
:100A7000DDFD801B02287CD838688007F7D42078F9
:100A8000400769D5DFF87CB14FF000080BF1400B4F
:100A9000DBF80000C0000CD4DBF8001041F08051FE
:100AA000CBF80010DBF800004FF0010800F0805098
:100AB0000090574F3868C0050FD4386840F48070F4
:100AC0003860FFF7B3FD064604E0FFF7AFFD801B7B
:100AD00002284ED83868C005F7D54A4FA06870374D
:100AE00001280FD00528386810D020F001003860A8
:100AF000386820F004003860A068B0B1FFF796FDB8
:100B000006460EE0386840F00100F4E740F00400CB
:100B10003860F7E7FFF78AFD811B41F28830814298
:100B200065D838688007F5D50DE0FFF77FFD0646EC
:100B300006E0FFF77BFD811B41F28830814256D8E9
:100B400038688007F5D4B8F1000F05D0DBF8001045
:100B500021F08051CBF80010A069C8B329490831B1
:100B60000968C1F38101022949D00228504607D003
:100B700000E03CE0C9F86000FFF758FD044639E0AA
:100B80004F46C9F86000FFF751FD064604E0FFF745
:100B90004DFD801B02282AD828688001F7D4D4E9AB
:100BA00007010843A16A1B4A490802EB0141626A36
:100BB00041EA8211084394F82C1040EA016111487F
:100BC000001D016001203866FFF730FD044605E096
:100BD00013E0FFF72BFD001B022808D828688001CE
:100BE000F7D50AE0FFF722FD001B022802D90320F7
:100BF000BDE8F88F28688001F4D40020F8E70120D0
:100C0000F6E700000038024000004742800E4742ED
:100C1000007000400000FFFF10B5401EB0F1807F63
:100C200001D3012010BD4FF0E02460610F21601757
:100C300000F040FB0020A06107202061002010BDD3
:100C400070B5040004D094F83900002510B106E016
:100C5000012070BD84F83850204600F023F824208D
:100C600084F839002068C16821F40051C160204631
:100C700000F098F92068016921F490410161206831
:100C8000416921F02A0141612068C16841F40051A5
:100C9000C160E563202084F8390084F83A00002020
:100CA00070BD000000B50068174987B0884228D1A0
:100CB0001648016841F010010160006800F0100062
:100CC000059012481438016841F001010160006884
:100CD000012100F0010005904FF4C0600090022057
:100CE000CDE9010103900720049069460848FFF709
:100CF000B7FB2520FFF7DFFC002211462520FFF778
:100D0000E7FC07B000BD000000100140443802407D
:100D1000000002402DE9F843044690F83A001E46D0
:100D200017460D46202850D1A5B19FB194F8380040
:100D300001284AD0012084F838004FF00008C4F898
:100D40003C80222084F83A00FFF770FCA78581469A
:100D5000E78530E00120BDE8F883E08D401EE085A6
:100D6000A0684B46B0F5805F4FF000024FF02001C5
:100D70002046009604D000F06BFA98B10320EAE711
:100D800000F066FA0028F9D1206900282068406840
:100D900003D0C1B225F8011B0DE0C0F3080125F80E
:100DA000021B08E0206900282068406801D000F09C
:100DB0007F0005F8010BE08D0028CED1202084F8BB
:100DC0003A0084F838800020C5E70220C3E72DE907
:100DD000F843044690F839001E4617460D46202871
:100DE00050D1A5B19FB194F8380001284AD0012014
:100DF00084F838004FF00008C4F83C80212084F8C3
:100E00003900FFF713FCA7848146E78426E0012020
:100E1000BDE8F883E08C401EE084A0684B46B0F546
:100E2000805F4FF000024FF080012046009603D013
:100E300000F00EFAE8B90DE000F00AFAC8B9288807
:100E40002168C0F308004860206908B16D1C05E006
:100E5000AD1C03E0216815F8010B4860E08C002808
:100E6000D8D14B46002240212046009600F0F0F9F0
:100E700008B10320CCE7202084F8390084F83880BA
:100E80000020C5E70220C3E7FEE7FEE77047704792
:100E90007047000070B5214C92B00025266846F0DE
:100EA00080562660246804F0805411941C4C2668F7
:100EB00046F48046266024680DF1240C04F4804436
:100EC00011940124009424040194022406948CE8D3
:100ED0000D006605CDE907616846FFF713FD00B117
:100EE000FEE70CA90F2081E831004FF4A0500F90CD
:100EF0004FF48050109005210CA8FFF71BFC00B1A7
:100F0000FEE7FFF78DFB41F20101884204D105485D
:100F1000016841F48071016012B070BD4038024038
:100F200000700040003C0240FFF786BB104801689B
:100F300041F4700101600F48016841F00101016056
:100F40000C4A00210832116002680B4B1A40026003
:100F5000031D0A4A1A60026822F4802202600548D2
:100F60000C30016002495806803908607047000063
:100F700088ED00E000380240FFFFF6FE103000244C
:100F80000749064AC1E9002000208860C86008615E
:100F900088610C2048610846FFF752BE00100140EE
:100FA000100000202DE9F041044600680169E26864
:100FB00021F4405111430161A1682069E2690143B4
:100FC0006069104301432068C26849F20C639A4388
:100FD0000A43C26020684169A26921F4407111434B
:100FE0004161E0696425B0F5004F974A9749206850
:100FF0004FF032083FD0884201D090427CD1FFF7B9
:1010000041FC00EBC00101EB001061688900B0FBFE
:10101000F1F6FFF737FC00EBC00101EB001061684F
:101020008900B0FBF1F0B0FBF5F06FF01801484318
:1010300006EB800108EB0110B0FBF5F000F0F006C4
:10104000FFF720FC00EBC00101EB00106168890094
:10105000B0FBF1F0B0FBF5F006EB0016FFF712FC69
:1010600000EBC00101EB001061688900B0FBF1F7F3
:10107000FFF708FCD2E0884201D090423DD1FFF753
:1010800001FC00EBC00101EB001061684900B0FBFE
:10109000F1F0B0FBF5F00601FFF7F4FB00EBC00147
:1010A00001EB001061684900B0FBF1F7FFF7EAFBC4
:1010B00000EBC00101EB001061684900B0FBF1F0EA
:1010C000B0FBF5F06FF01801484307EB800108EB27
:1010D000C100B0FBF5F000F0F80006EB4006FFF7AA
:1010E000D1FB00EBC00101EB001061684900B0FBCF
:1010F000F1F7FFF7C7FB3CE055E0FFF7B3FB00EB70
:10110000C00101EB001061684900B0FBF1F0B0FBD9
:10111000F5F00601FFF7A6FB00EBC00101EB0010A4
:1011200061684900B0FBF1F7FFF79CFB00EBC001E1
:1011300001EB001061684900B0FBF1F0B0FBF5F085
:101140006FF01801484307EB800108EBC100B0FBCA
:10115000F5F000F0F80006EB4006FFF783FB00EB2C
:10116000C00101EB001061684900B0FBF1F7FFF727
:1011700079FB00EBC00101EB001061684900B0FB96
:10118000F1F0B0FBF5F06FF01801484307EB800178
:1011900008EBC100B0FBF5F000F007002168304417
:1011A0008860BDE8F081FFF75DFB00EBC00101EB5B
:1011B000001061688900B0FBF1F6FFF753FB00EB0C
:1011C000C00101EB001061688900B0FBF1F0B0FBD9
:1011D000F5F06FF01801484306EB800108EB0110B1
:1011E000B0FBF5F000F0F006FFF73CFB00EBC001B0
:1011F00001EB001061688900B0FBF1F0B0FBF5F085
:1012000006EB0016FFF72EFB00EBC00101EB001010
:1012100061688900B0FBF1F7FFF724FB00EBC00128
:1012200001EB001061688900B0FBF1F0B0FBF5F054
:101230006FF01801484307EB800108EB0110B0FB89
:10124000F5F000F00F00A9E7001401400010014084
:101250002DE9F0411E46174688460446069D1CE0CF
:10126000681C1AD025B1FFF7E1F9801BA84214D9F8
:101270002068C16821F4D071C1602068416921F003
:1012800001014161202084F8390084F83A000020EF
:1012900084F838000320BDE8F0812068016838EA4E
:1012A000010004D00020B842DAD00020F3E701208A
:1012B000F9E7FEE70907090E002804DB00F1E0204A
:1012C00080F80014704700F00F0000F1E02080F873
:1012D000141D70479AB0FFF7B7F9072302220821BF
:1012E0004FF4A870FFF7D6FD4FF4E130FFF748FE4A
:1012F00000256C4664216846FFF74CF864231A46C3
:1013000069460A48FFF706FD6846FFF724F802041D
:10131000120C04D0A01810F8010C00B1A5546423DD
:1013200069460248FFF753FDE4E700001000002083
:101330004FF04070E1EE100A70470000000000001E
:101340000000010203040607080900000000010272
:1013500003040000741300080000002010000000C7
:10136000C40100088413000810000020A00600003B
:10137000E00100080024F40001000000100000005B
:041380000000000069
:040000050800018965
:00000001FF
