:020000040800F2
:10000000800700202902000833080008DF070008E5
:100010003108000815030008E1090008000000008D
:100020000000000000000000000000003708000889
:100030001703000800000000350800083908000810
:10004000430200084302000843020008430200087C
:10005000430200084302000843020008430200086C
:10006000430200084302000843020008430200085C
:10007000430200084302000843020008430200084C
:10008000430200084302000843020008430200083C
:10009000430200084302000843020008430200082C
:1000A000430200084302000843020008430200081C
:1000B000430200084302000843020008430200080C
:1000C00043020008430200084302000843020008FC
:1000D00043020008B5090008430200084302000873
:1000E00043020008430200084302000843020008DC
:1000F00043020008430200084302000843020008CC
:1001000043020008430200084302000843020008BB
:1001100043020008430200084302000843020008AB
:10012000430200084302000843020008430200089B
:10013000430200084302000843020008430200088B
:10014000430200084302000843020008430200087B
:10015000430200084302000843020008430200086B
:10016000430200084302000843020008430200085B
:100170004302000843020008430200080000000098
:10018000430200084302000800F002F800F03CF8C7
:100190000AA090E8000C82448344AAF10107DA45E2
:1001A00001D100F031F8AFF2090EBAE80F0013F0F8
:1001B000010F18BFFB1A43F001031847EC080000B9
:1001C0000C090000103A24BF78C878C1FAD8520749
:1001D00024BF30C830C144BF04680C6070470000C1
:1001E0000023002400250026103A28BF78C1FBD840
:1001F000520728BF30C148BF0B6070471FB500F0E1
:100200004DFC1FBD10B510BD00F033F81146FFF7CF
:10021000F5FF00F01FFC00F051F803B4FFF7F2FF08
:1002200003BC00F0EEFB0000094880470948004786
:10023000FEE7FEE7FEE7FEE7FEE7FEE7FEE7FEE796
:10024000FEE7FEE704480549054A064B70470000F3
:100250003D08000889010008800100208007002077
:10026000800300208003002070477047704770476C
:100270007047754600F02CF8AE46050069465346B7
:1002800020F00700854618B020B5FFF7DBFFBDE87A
:1002900020404FF000064FF000074FF000084FF0ED
:1002A000000B21F00701AC46ACE8C009ACE8C0097E
:1002B000ACE8C009ACE8C0098D46704710B50446EB
:1002C000AFF300802046BDE81040FFF7A6BF000056
:1002D00000487047200100200C4800B5016887B035
:1002E00041F0200101600068694600F0200005909F
:1002F0004FF4807000900120019002900320039041
:10030000034800F01BF807B000BD00003038024081
:1003100000140240FEE7704790F83510022903D020
:100320008021416501207047052180F83510006863
:10033000016821F001010160002070472DE9F84FAC
:10034000DFF88C91002209F1040A0AF1040B4FF046
:100350000F080BF1040E01260B6896403340B342A0
:1003600071D14C68022C01D0122C11D1D40800EBB1
:1003700084073D6A5407E40E08FA04FC25EA0C05DC
:10038000D1F810C00CFA04FC4CEA050CC7F820C0E8
:1003900007685400032591F804C0A5400CF0030C35
:1003A000AF430CFA04FC4CEA070CC0F800C04F68DD
:1003B000012F05D0022F03D0112F01D0122F11D100
:1003C0008768D1F80CC0AF430CFA04FC4CEA070C68
:1003D000C0F808C04768B7430E79C6F300169640C8
:1003E0003E434660C668AE438D68A5403543C56050
:1003F0004C68E40065D5374C256845F48045256098
:10040000246822F0030504F480440094324C2E1931
:10041000D6F808789407250F08FA05F4A7432F4C5F
:10042000A04201D1002424E02D4CA04201D101249E
:100430001FE02C4CA04201D102241AE02A4CA04219
:1004400002D1032415E03CE0284CA04201D1042451
:100450000FE0274CA04201D105240AE0254CA04220
:1004600001D1062405E0244CA04201D1072400E07C
:100470000824AC403C43C6F80848D9F800404D4633
:100480004E689C43F60300D51C432C60DAF800400C
:1004900055464E689C43B60300D51C432C60DBF8E0
:1004A00000405D464E689C43F60200D51C432C601C
:1004B000DEF8004075464E689C43B60200D51C43EA
:1004C0002C60521C102AFFF446AFBDE8F88F0000E4
:1004D000003C01404438024000300140000002402E
:1004E0000004024000080240000C024000100240DC
:1004F0000014024000180240001C02400AB1816151
:1005000070470904FBE70000024881680278114443
:100510008160704704000020094810B5016841F46B
:1005200000710160016841F480610160052000F004
:100530004BF80F2000F006F800F024F8002010BD62
:10054000003C024070B50D4D04464FF47A71287896
:10055000B1FBF0F00A490968B1FBF0F000F046F891
:1005600048B9102C07D200222146501E00F00CF88A
:1005700000206C6070BD012070BD000004000020F0
:100580000000002070470000F0B40E4B1B68C3F35E
:100590000223C3F10704042C00D904241D1D072DD8
:1005A00001D2002300E0DB1E012606FA04F56D1ED1
:1005B0000D409D409E40761E164045EA0601F0BC67
:1005C00000F00FBA0CED00E0064A00F007011068D9
:1005D0004FF6FF03184040EA01200349084310602A
:1005E000704700000CED00E00000FA0510B5401E59
:1005F000B0F1807F01D3012010BD4FF0E024606195
:100600000F21601700F0EDF90020A06107202061A4
:10061000002010BD704710F8391F4078084370471C
:1006200070B5026804461068D168536910F00F0F66
:1006300050D003F0010501F4907635435DD0C20738
:1006400005D0CA0503D5E26B42F00102E26342071E
:1006500005D5DA0703D0E26B42F00202E2638207BB
:1006600005D5DA0703D0E26B42F00402E263020729
:1006700005D5DA0703D0E26B42F00802E263E26BD1
:10068000002A33D0800604D5880602D5204600F023
:1006900015F920684069E16BC0F38010090700D4A8
:1006A00028B3204600F0FCF82068416949061AD5B5
:1006B000416921F040014161606BA0B11B490165B6
:1006C000606BFFF729FE002810D0606B016DBDE85C
:1006D00070400847830610D58B060ED52046BDE82E
:1006E000704000F0EBB82046FFF794FF70BD204645
:1006F000FFF790FF0020E06370BD030606D50B06F0
:1007000004D52046BDE8704000F023B94006F3D57B
:100710004806F1D5D168204621F04001D160202162
:1007200084F8391000F05AF870BD000091080008F4
:1007300090F83A30202B22D1F9B1F2B190F838304C
:10074000012B1CD081628285C2850021C1632222D7
:1007500080F83A2080F838100168CA6842F4807244
:10076000CA6001684A6942F001024A610068C168D2
:1007700041F02001C1600020704701207047022035
:100780007047000030B50068114988420CD1114A09
:100790005088010408D41146440409784FF000033E
:1007A00006D50A2901D0538030BD40F400400DE049
:1007B0000D2909D0C0F30D04074D401C80B2295506
:1007C0005080C728EFD830BD40F48040508030BD05
:1007D0000010014014000020180000207047FEE7C0
:1007E000114810B5016886B041F020010160006831
:1007F0000E4C00F0200005904FF4C06000900120E6
:10080000019002900320039069462046FFF796FD71
:10081000012291022046FFF771FE0122510220467B
:10082000FFF76CFE06B010BD3038024000140240E5
:10083000FEE7704770477047FFF766BE10480168D3
:1008400041F4700101600F48016841F0010101604D
:100850000C4A00210832116002680B4B1A400260FA
:10086000031D0A4A1A60026822F4802202600548C9
:100870000C3001600249580680390860704700005A
:1008800088ED00E000380240FFFFF6FE1030002443
:1008900010B5806B0021C185C184FFF7BBFE10BD80
:1008A0000168CA6822F49072CA6001684A6922F03D
:1008B00001024A61202180F83A10704710B590F883
:1008C0003A10222901D0022010BD8168B1F5805F65
:1008D00011D00169002901681FD0496801F07F0328
:1008E000816A4A1C82620B70C18D491E0904090C81
:1008F000C18518D02BE00269816A002A026852681B
:1009000005D0D2B20A80816A491C8162ECE7C2F349
:1009100008020A80816A891CF7E74A68816A4B1CD1
:1009200083620A70E0E70168CA6822F02002CA60A8
:100930000168CA6822F48072CA6001684A6922F0BC
:1009400001024A61202180F83A10FFF71BFF0020C6
:1009500010BD90F83910212901D00220704781681C
:10096000B1F5805F016A0BD04A1C02620268097807
:100970005160C18C491E0904090CC1840ED017E0D6
:1009800009880268C1F30801516001690029016A00
:1009900002D0491C0162ECE7891CFBE70168CA68C8
:1009A00022F08002CA600068C16841F04001C16065
:1009B0000020704710B50848FFF732FE0648FFF7E1
:1009C0002AFE2028FAD1012204490348FFF7B0FE8D
:1009D0000028F8D110BD0000E00000201400002025
:1009E000FEE70907090E002804DB00F1E02080F88B
:1009F0000014704700F00F0000F1E02080F8141D93
:100A00007047704770B5054600244FF47A7603E0CE
:100A1000304600F005F8641CAC42F9D370BD00000C
:100A200070B54FF0E02500216C69094AAB69126886
:100A30005043AA699A42FCD002D2A3EB020302E01F
:100A4000A4EB02063344194413468142F1D370BD2E
:100A500010000020FFF760FDFFF7C2FEFFF73CFC2F
:100A60000D4E00224FF480613046FFF747FDB4156C
:100A700041F28835012221463046FFF73FFD2846E6
:100A8000FFF7C0FF002221463046FFF737FD28461A
:100A9000FFF7B8FFEEE70000001402404FF040708F
:100AA000E1EE100A70470000C80A000800000020AC
:100AB00018000000C4010008E00A00081800002027
:100AC00068070000E00100080024F40001000000B5
:100AD0001000000000000000000000000000000006
:040000050800018965
:00000001FF
