:020000040800F2
:10000000900500202902000839100008311000086E
:1000100035100008D5030008151100080000000085
:100020000000000000000000000000004110000877
:10003000D9030008000000003D100008451000082A
:100040004D0200084D0200084D0200084D02000854
:100050004D0200084D0200084D0200084D02000844
:100060004D0200084D0200084D0200084D02000834
:100070004D0200084D0200084D0200084D02000824
:100080004D0200084D0200084D0200084D02000814
:100090004D0200084D0200084D0200084D02000804
:1000A0004D0200084D0200084D0200084D020008F4
:1000B0004D0200084D0200084D0200084D020008E4
:1000C0004D0200084D0200084D0200084D020008D4
:1000D0004D020008091100084D0200084D020008F9
:1000E0004D0200084D0200084D0200084D020008B4
:1000F0004D0200084D0200084D0200084D020008A4
:100100004D0200084D0200084D0200084D02000893
:100110004D0200084D0200084D0200084D02000883
:100120004D0200084D0200084D0200084D02000873
:100130004D0200084D0200084D0200084D02000863
:100140004D0200084D0200084D0200084D02000853
:100150004D0200084D0200084D0200084D02000843
:100160004D0200084D0200084D0200084D02000833
:100170004D0200084D0200084D020008000000007A
:100180004D0200084D02000800F002F800F03CF8B3
:100190000AA090E8000C82448344AAF10107DA45E2
:1001A00001D100F031F8AFF2090EBAE80F0013F0F8
:1001B000010F18BFFB1A43F001031847601100003C
:1001C00080110000103A24BF78C878C1FAD85207CD
:1001D00024BF30C830C144BF04680C6070470000C1
:1001E0000023002400250026103A28BF78C1FBD840
:1001F000520728BF30C148BF0B6070471FB501F0E0
:1002000078F81FBD10B510BD00F0B1F81146FFF72A
:10021000F5FF00F0F9FF00F0CFF803B4FFF7F2FFAD
:1002200003BC00F079FF00000C48016841F4700144
:1002300001600B4880470B480047FEE7FEE7FEE7FA
:10024000FEE7FEE7FEE7FEE7FEE7FEE7FEE700006B
:1002500005480649044A064B7047000088ED00E057
:100260004910000889010008900100209005002035
:1002700090010020704753EA020C00F069802DE9DC
:10028000F04B4FF00006002B1FBFB3FA83F503FAC3
:1002900005F424FA05F65E4012BF1643B2FA82F561
:1002A00002FA05F4C5F120051EBF22FA05FC44EA56
:1002B0000C04203556EA044C4FEA144418BF641C61
:1002C0004FF000084FF00009904271EB030C39D356
:1002D000002919BFB1FA81F701FA07F6B0FA80F7E1
:1002E00000FA07F6C7F120071EBF20FA07FC46EA0E
:1002F0000C062037B6FBF4FCA7EB0507103F07F010
:100300001F0BCBF120062CFA06F60CFA0BFB44BFB0
:10031000B3460026202FA4BF5E464FF0000B5BEAD9
:10032000060C08BF4FF0010B19EB0B0948EB060850
:10033000ABFB027C06FB02CC0BFB03CCC01B71EBBE
:100340000C01C1E70B46024641464846BDE8F08B2A
:1003500013B5084318BF4FF0FF300146AFF30080DC
:10036000BDE81C407047704770477047704775463E
:1003700000F02CF8AE4605006946534620F0070011
:10038000854618B020B5FFF763FFBDE820404FF069
:1003900000064FF000074FF000084FF0000BAC468E
:1003A000ACE8C009ACE8C009ACE8C009ACE8C009D9
:1003B00021F007018D46704710B50446AFF3008069
:1003C0002046BDE81040FFF728BF000000487047F6
:1003D00010000020FEE700007047000070B5866D39
:1003E000044600F039F994F83510022928D1054661
:1003F0002068216C026822F016020260426922F035
:100400008002426109B9A16C19B1016821F00801AB
:100410000160016821F00101016000BF20680068EF
:10042000C00714D000F018F9401B0628F6D320208E
:100430006065002084F83400032084F8350070BD26
:1004400080206065002084F83400012070BDE06DDC
:100450003F2101FA00F0B0600020012184F834004F
:1004600084F8351070BD000090F83510022909D1CC
:10047000052180F835100068016821F00101016054
:100480000020704780214165012070472DE9F04F21
:1004900082B000F13E4241F6004502F1FF77C4F21E
:1004A0000205082243F6004E4FEAB726A84208BFCD
:1004B0000722C4F2010E072E38BF4FEAB7220125EA
:1004C000002700264FF00008009208E008F101081C
:1004D0000436B8F1100F07F1020700F0A4800C6891
:1004E00005FA08F914EA090FF0D0D1F804C0032284
:1004F0000CF0030BABF10104BA40012C6FEA020AC5
:1005000010D88268CC6802EA0A02BC4022438260AA
:100510004268CCF3001422EA090204FA08F42243E8
:10052000426005E0BBF1030F02D14FF0030B20E066
:10053000C2688C6802EA0A02BC402243BBF1020F87
:10054000C26016D16FF0030202EA58020244D2F8E8
:1005500020C006F01C050F230C69AB402CEA0303F6
:1005600004FA05F52B431362D1F804C001250CF001
:10057000030B02680BFA07F302EA0A021A435FEA66
:10058000CC030260A2D5002243F644030192C4F2D8
:1005900002031A684FF6084C42F480421A601A6847
:1005A000CFF6FF7C02F480420192019A28F0030208
:1005B000724452F80C3006F00C050F24AC40A343F3
:1005C000009C04FA05F52B4342F80C30DEF80020BD
:1005D0004B6842EA0905DC0358BF22EA0905CEF858
:1005E0000050DEF804209C0342EA090558BF22EAC5
:1005F0000905CEF80450DEF80820DC0242EA0905BD
:1006000043F60C4458BF22EA0905CEF80850C4F25C
:10061000010422689B0242EA090558BF22EA090543
:100620002560012552E702B0BDE8F08F426902EA79
:100630000103914341EA034181617047002A08BFE9
:10064000090481617047000042F20000CEF204000C
:100650000068000C7047000040F28810C2F20000F1
:100660000068704740F2080040F28811C2F20000B2
:10067000C2F2000100780A68104408607047000068
:1006800080B543F60040C4F20200016841F40071F5
:100690000160016841F480610160052000F05EF8AE
:1006A0000F2000F005F800F02BF8002080BD0000BE
:1006B000B0B540F20802C2F2000240F20401127822
:1006C000C2F200014FF47A730968B3FBF2F20446F8
:1006D000B1FBF2F1084600F0E7FA0F2C4FF00105EC
:1006E0000CD858B94FF0FF3021460022002500F009
:1006F00009F840F20C00C2F2000004602846B0BDC8
:100700007047000010B54EF60C5CCEF2000CDCF821
:100710000030C3F3022E8EF00704042C28BF0424FB
:10072000BEF103034FF0FF3E0EFA04F438BF00237E
:10073000A14399400EFA03F39A43114300F00F02CC
:1007400000F160430901043A03F564436244002860
:1007500048BF02F10C03197010BD00004EF60C5199
:10076000CEF200010A684FF6FF031A4060F30A2236
:1007700042F0806040F0FD70086070472DE9F04164
:10078000002800F08B8043F60808C4F202080446F3
:10079000D8F8F8030D4600F00700884207D288F821
:1007A000F853D8F8F80300F00700A84276D1206883
:1007B000810717D5410705D5D8F8001041F4E0515D
:1007C000C8F80010010705D5D8F8001041F46041C1
:1007D000C8F80010D8F80010A26821F0F001114309
:1007E000C8F80010C0073FD1D8F8F80300F00700A0
:1007F000A84207D988F8F853D8F8F80300F00700A2
:10080000A8424BD12068410707D5D8F80010E2680C
:1008100021F4E0511143C8F80010000708D5D8F8BA
:100820000000216920F4604040EAC100C8F80000DF
:1008300000F054F8D8F8001041F20C32C1F3031163
:10084000C0F60002515C40F2040220FA01F140F2CD
:100850000C00C2F200000068C2F200021160FFF753
:1008600027FF0020BDE8F0816068811E022907D2C1
:1008700058F8081C89015CBF0120BDE8F08110E038
:10088000012807D158F8081C89035CBF0120BDE886
:10089000F08106E058F8081C890702D40120BDE861
:1008A000F081D8F8001021F003010843C8F80000D7
:1008B000FFF7D2FE064641F2883700BFD8F80000A5
:1008C000616800F00C00B0EB810F8DD0FFF7C4FE23
:1008D000801BB842F2D90320BDE8F08110B543F681
:1008E0000404C4F20204606800F00C0142F200400B
:1008F0000829C0F2F40007D0042918BF10BD41F246
:100900000020C0F27A0010BD216801F03F0221688A
:1009100023684902C3F3881105D4A1FB0001002319
:10092000FFF7A9FC06E041F20020C0F27A0048433C
:10093000B0FBF2F021680222C1F3014102EB410158
:10094000B0FBF1F010BD00002DE9F04182B00028AD
:1009500068D00446007843F60006C007C4F20206D9
:100960000BD0B06800F00C00042840F09C80306888
:10097000800302D56068002854D0207880071AD5FB
:10098000B06810F00C0F09D0B06800F00C00082817
:1009900040F0A3807068400200F19F8030688007BB
:1009A00002D5E06801283DD13068216920F0F800C7
:1009B00040EAC10030602078000737D42078400733
:1009C0004BD4A56955B3B06800F00C00082840F07E
:1009D000B780012D26D07068E16900F480028A4258
:1009E00020D1216A00F03F028A421BD147F6C07134
:1009F000626A0140B1EB821F14D1A16A4FF6FF7306
:100A0000C903994300F44032A1F580318A4209D1EB
:100A1000E16A00F07060B0EB016F03D1002002B01A
:100A2000BDE8F081012002B0BDE8F08160690028D6
:100A300040F20000C4F2472072D00121C0F8801EAD
:100A4000FFF70AFE054600BF706F8007B6D4FFF7B8
:100A500003FE401B0228F7D9D7E0306C10F0805815
:100A60000AD100200190306C40F080503064306C2E
:100A700000F080500190019847F20007C4F200078F
:100A80003868C0053ED4386840F480703860FFF79D
:100A9000E3FD05463868C00534D4FFF7DDFD401B93
:100AA0000228F7D9B1E0B06800F00C00082803D1A3
:100AB000706840023FF55BAF6068B0F5803F07D0DB
:100AC000B0F5A02F40F08B80306840F4802030607B
:100AD000306840F4803030608BE0E068002851D00E
:100AE0000020C4F2472001210160FFF7B5FD054653
:100AF000306880073FF558AFFFF7AEFD401B022876
:100B0000F6D982E0A068012805D005284ED1306FC3
:100B100040F004003067306F40F0010030674FE074
:100B20000021C0F8801EFFF797FD0546706F800713
:100B30007FF544AFFFF790FD401B0228F6D964E033
:100B40000027C4F2472700203866FFF785FD022DF5
:100B500005460BD1306880015BD5FFF77DFD401B5A
:100B600002284FF00300F5D959E700BF3068800133
:100B70007FF554AFFFF770FD401B02284FF00300D4
:100B8000F4D94CE70020C4F2472000210160FFF7B0
:100B900063FD0546306880077FF50DAFFFF75CFD0C
:100BA000401B02284FF00300F4D938E7316F0028CA
:100BB00021F001013167316F21F00401316749D023
:100BC000FFF74AFD054641F2883700BF306F8007C6
:100BD00051D4FFF741FD401BB842F7D915E0316809
:100BE000002821F480313160316821F480213160A6
:100BF0004AD0FFF731FD0546306880033FF5BDAEB2
:100C0000FFF72AFD401B6428F6D9032002B0BDE897
:100C1000F08104F11C052FCD084340EA8210D9036E
:100C20004FF6FF729143A1F5803140EA0560084319
:100C3000706001203866FFF70FFD044630688001C0
:100C40003FF5ECAEFFF708FD001B02284FF0030054
:100C5000F4D9E4E6FFF700FD054641F2883700BF0E
:100C6000306F800707D5FFF7F7FC401BB8424FF005
:100C70000300F5D9D3E6B8F1000F7FF4A2AE306CD3
:100C800020F0805030649CE6FFF7E6FC054600BF8C
:100C9000306880037FF571AEFFF7DEFC401B6428EF
:100CA0004FF00300F4D9BAE6411E0020B0EB116FFB
:100CB0001CBF012070474EF21002CEF200025160BC
:100CC0004EF62351CEF20001F0230B700721906005
:100CD000116070477047000070470000B0B582B0E7
:100CE000026805461068D368546900F02F01202976
:100CF00003F0200106D129B1284602B0BDE8B0407A
:100D000000F0B2B95FEA007C1EBF04F0010E03F4EC
:100D1000907414EB0E0453D1296B012905D110F006
:100D2000100118BF13F0100136D1010622D513F0BF
:100D300080011FD095F83D0021283FD1A868B0F56B
:100D4000805F03D12869002800F0F780286A411CE1
:100D5000296200785060E88C01380104E8842DD1C4
:100D6000D06820F08000D060D06840F04000D060B3
:100D700002B0B0BD400621D513F040001ED0D068AF
:100D8000202120F04000D060284685F83D1002B0B8
:100D9000BDE8B04000F04AB9002001901068019011
:100DA0005068019001985069400611D4A88DE98DD2
:100DB000EB8D002B18BF884240F0A68002B0B0BD7A
:100DC000C40718BF13F480732DD1430731D437E023
:100DD000A86B01684B689CB2002CEFD0A98D8C42A7
:100DE000ECD2EB85C369B3F5807F17D0D16821F4CD
:100DF0008071D160516921F001015161516921F087
:100E000040015161202185F83E1000212963D168FD
:100E100021F01001D160FFF7E1FAA98DE88D081AE1
:100E200081B2284684E02B6C43F001032B64430716
:100E300006D5BEF1000F03D02B6C43F002032B64E8
:100E4000830706D5BEF1000F03D02B6C43F00403DB
:100E50002B64BCF1000F09D541EA0E03B3FA83F30A
:100E60005B0903D12B6C43F008032B642B6C002B24
:100E7000A4D010F0200018BF002903D0284600F0AD
:100E8000F3F82A685069296C00F0400001F008016D
:100E900040182CD0D06820F49070D060506920F0B9
:100EA00001005061286B012803D1D06820F01000A8
:100EB000D060202085F83E0000202863506940065D
:100EC0001CD5506920F040005061A86BB0B141F2D0
:100ED0005D01C0F600010165FFF7C6FA00283FF486
:100EE0006DAFA86B016D02B0BDE8B0400847284661
:100EF000FFF7F2FE0020286402B0B0BD284602B021
:100F0000BDE8B040FFF7E8BED368401A23F4907301
:100F1000D360536981B223F001035361202385F824
:100F20003E3000232B63D368284623F01003D360A0
:100F300002B0BDE8B040FFF7CDBE286A30F8021B12
:100F40006FF35F215160286205E70000034690F8C7
:100F50003E0020280AD100294FF0010018BF002AC6
:100F600000D1704793F83C00012801D1022070475E
:100F700000201863996222219A85DA85186483F823
:100F80003E10196883F83C00CA6842F48072CA6057
:100F90004A6942F001024A61CA6842F02002CA600E
:100FA0007047000080B5006841F20001C4F2010101
:100FB000884218BF80BD40F2841EC2F2000EBEF906
:100FC0000010002924D440F27402C2F2000289B257
:100FD00013784A0404D40D2B0CD141F4804215E05F
:100FE00048F2000C0022CFF6FF7C0A2B08BF41EA32
:100FF0000C020BE00A4640F2BC006FF39F32C2F2D3
:10100000000083544A1CC62988BF0022AEF8002085
:1010100040F2780040F27401C2F20000C2F2000116
:101020000122BDE88040FFF791BF0000704700003B
:10103000FEE70000FEE70000704700007047000078
:1010400070470000FFF70EBB4EF68850CEF200004E
:10105000016841F47001016070470000806B00215D
:10106000C185C184FFF738BE10B5044690F83E0034
:10107000222848D1A2682146B2F5805F0CD151F8F0
:10108000280F51F8182C8AB9216849686FF35F213D
:1010900020F8021BA0620FE051F8280F0AB922695C
:1010A00022B12268526802F07F0201E02268526891
:1010B0000270086801300860E08D01380104E085A5
:1010C00018BF10BD2068C16821F02001C160C1684F
:1010D00021F48071C160416921F001014161202149
:1010E00084F83E10216B012908D1C16821F010015C
:1010F000C160A18D2046FFF7EDFD02E02046FFF71D
:1011000051FF0020206310BD40F27800C2F20000C1
:10111000FFF7E4BDFEE700007047000080B5FFF771
:10112000AFFA4FF4A87008210222072300F082F8DA
:10113000A82000F037F8BDE8804000F001B80000BA
:10114000B0B586B00020019043F63000C4F2020032
:10115000016841F2004441F0200101600068C4F2DE
:10116000020400F02000019001984FF400700190FB
:101170000120CDE90200032001AD0490204629465C
:10118000FFF784F94FF48060019020462946FFF76D
:101190007DF920464FF4C0610122FFF74FFA06B0F7
:1011A000B0BD000040F27001C2F20001086070475B
:1011B00080B54EF2180140F27002CEF20001C2F288
:1011C000000251F804CC1268002350434FF47A72A5
:1011D00000FB02FE086809E003449B1A904298BF96
:1011E00063447345104628BF80BD00BF0A68904223
:1011F000F2D10A689042EFD10A689042ECD10A68B5
:101200009042F3D0E8E7000041F20044C4F2020447
:10121000FFF784FF20464FF40071FFF707FA2046DE
:101220004FF48061FFF702FA4FF4FA70FFF7C0FF46
:10123000F0E700002DE9F04192B043F640080026A7
:10124000C4F20208CDE90A66CDE908660596CDE943
:101250000366CDE901660096D8F800704FF480056A
:1012600047F08057C8F80070D8F8007007F0805732
:101270000097009F47F200070096C4F200073C6801
:1012800044F480443C603F68012407F480470097A1
:10129000009F4FF48037CDE90D510FA90797022722
:1012A0000DC106A806940C97FFF74EFBE8B90F2076
:1012B000CDE901074FF4A05004904FF48050059001
:1012C00001A805210396FFF759FA08B101240CE0A3
:1012D000FFF7BAF941F20101884202BFD8F8C00312
:1012E00040F48070C8F8C0030024204612B0BDE866
:1012F000F081F1EE100A4FF6FF71C0F2C03120EA22
:10130000010040F04070E1EE100A7047000000005C
:10131000000000000102030406070809401300084A
:101320000000002010000000C40100085013000855
:101330001000002080050000E0010008000000000F
:10134000010000000024F400010000001000000073
:040000050800018965
:00000001FF
