:020000040800F2
:10000000480600205502000821250008192500088F
:100010001D250008811200080D28000800000000BE
:10002000000000000000000000000000292500087A
:100030008512000800000000252500082D25000875
:1000400079020008790200087902000879020008A4
:100050007902000879020008790200087902000894
:100060007902000879020008790200087902000884
:100070007902000879020008790200087902000874
:100080007902000879020008790200087902000864
:100090007902000879020008790200087902000854
:1000A0007902000879020008790200087902000844
:1000B0007902000879020008790200087902000834
:1000C0007902000879020008790200087902000824
:1000D0007902000801280008790200087902000866
:1000E0007902000879020008790200087902000804
:1000F00079020008790200087902000879020008F4
:1001000079020008790200087902000879020008E3
:1001100079020008790200087902000879020008D3
:1001200079020008790200087902000879020008C3
:1001300079020008790200087902000879020008B3
:1001400079020008790200087902000879020008A3
:100150007902000879020008790200087902000893
:100160007902000879020008790200087902000883
:1001700079020008790200087902000800000000F6
:10018000790200087902000800F002F800F052F845
:100190000AA090E8000C82448344AAF10107DA45E2
:1001A00001D100F047F8AFF2090EBAE80F0013F0E2
:1001B000010F18BFFB1A43F001031847FC3500007C
:1001C0001C360000103A24BF78C878C1FAD852070C
:1001D00024BF30C830C144BF04680C6070470000C1
:1001E0000023002400250026103A28BF78C1FBD840
:1001F000520728BF30C148BF0B607047662903F023
:100200003981642900F0FA80752900F0F780782997
:1002100000F03081002070471FB503F01EF900F098
:100220008BFC04000020002103F08AF8E0601FBD71
:1002300010B510BD00F09CFD1146FFF7EDFF02F078
:10024000C3FB00F0BAFD03B4FFF7F2FF03BC02F0FA
:10025000DFFA00000C48016841F4700101600B48AE
:1002600080470B480047FEE7FEE7FEE7FEE7FEE7B4
:10027000FEE7FEE7FEE7FEE7FEE700000548064969
:10028000044A064B7047000088ED00E03125000865
:10029000890100084802002048060020480200208A
:1002A000704753EA020C00F069802DE9F04B4FF0E3
:1002B0000006002B1FBFB3FA83F503FA05F424FAF6
:1002C00005F65E4012BF1643B2FA82F502FA05F453
:1002D000C5F120051EBF22FA05FC44EA0C042035B6
:1002E00056EA044C4FEA144418BF641C4FF000084F
:1002F0004FF00009904271EB030C39D3002919BF6C
:10030000B1FA81F701FA07F6B0FA80F700FA07F6BA
:10031000C7F120071EBF20FA07FC46EA0C0620376B
:10032000B6FBF4FCA7EB0507103F07F01F0BCBF162
:1003300020062CFA06F60CFA0BFB44BFB346002647
:10034000202FA4BF5E464FF0000B5BEA060C08BFEF
:100350004FF0010B19EB0B0948EB0608ABFB027CD5
:1003600006FB02CC0BFB03CCC01B71EB0C01C1E7FD
:100370000B46024641464846BDE8F08B13B508439C
:1003800018BF4FF0FF300146AFF30080BDE81C40BE
:10039000704700000FB4044910B503AA029800F09A
:1003A000B9FB10BC5DF814FB7000002070B504466A
:1003B00085690068C10601D5302600E02026C00707
:1003C00007D070BDD4E9012130469047206A401C17
:1003D00020626D1EF6D570BD70B504468569007843
:1003E000C00707D170BDD4E9012120209047206AC1
:1003F000401C20626D1EF6D570BD00002DE9F04155
:100400000646002410687529314616A510D0AFF3B2
:100410000080002802DA404213A507E031688A070D
:1004200001D512A502E0490704D511A5012401E078
:10043000AFF3008000210A2206F1240709E0B0FB97
:10044000F2FCB0FBF2F302FB1C003030785418468B
:10045000491C0028F3D123462A463046BDE8F04126
:1004600000F0F0B8000000002D0000002B0000009C
:100470002000000070B504460D4621461068AFF319
:1004800000802188090502D50F4A7A4402E00E4A0D
:100490007A440E32002104F1240305E000F00F0637
:1004A0000009965D5E54491C0028F7D1207800238E
:1004B000000704D5702D02D009B102231132204665
:1004C000BDE8704000F0BEB8EA2F00002DE9F05FF3
:1004D000894604464FF0000ADFF824B1FB44C0F817
:1004E00020A02046E168884700287DD0252806D036
:1004F000D4E901219047206A401C2062F1E70025E1
:100500005F462046E16888472028064607DB312EF3
:1005100005D2B81910F8200C08B10543F1E7A80777
:1005200001D525F00405C4F81CA00027C4F818A0C4
:100530002A2E09D0304602F0FBFE38B304EB8708C0
:10054000303EC8F8186019E059F8041B204604EB47
:1005500087029161E1688847012F064618D1E0695A
:10056000002820DA25F020051DE0D8F8180000EB5F
:10057000800006EB40003038C8F818002046E168DB
:100580008847064602F0D4FE0028EED1012F0AD09B
:100590002E2E08D12046E16888477F1C0646022F90
:1005A00045F02005C4DBA069002803DA404245F08D
:1005B0000105A061E80701D025F01005A6B1A6F15C
:1005C0004100192802D8203645F400654A463146D4
:1005D000204625604D46FFF711FE60B1012807D087
:1005E000ED1D25F0070000E007E000F1080978E7BD
:1005F00005F1040975E730467AE7206ABDE8F09F07
:10060000C02F0000014902F0CBB9000070000020AB
:1006100010B5044603E002F0C3F9401C09D014F8F9
:10062000010B05490028F6D1BDE810400A2002F070
:10063000B7B94FF0FF3010BD700000207047704711
:10064000704770472DE9F0470D469946924604469B
:1006500000F124080168880604D5E06921F0100142
:10066000216000E00120A84201DD471B00E00027D7
:10067000A1697A1902EB0900081AA0612078C00666
:1006800002D42046FFF792FE002608E0D4E90121BB
:100690001AF806009047206A401C761C20624E45DE
:1006A000F4DB2078C0060AD52046FFF77FFE06E07F
:1006B000D4E9012130209047206A401C2062381E76
:1006C000A7F10107F4DC07E0D4E9012118F80500DF
:1006D0009047206A401C2062281EA5F10105F3DC2A
:1006E0002046FFF779FE2078000602D50220BDE8FB
:1006F000F0870120FBE72DE9FF4F0C461E464FF027
:10070000FF378BB0D2E90001DDF860800A908A469D
:10071000C1F30A5505B93D46002108464FF00000D7
:10072000BAF1000F00F4400005DA00EB80004FF44E
:10073000400101EA50004FEA9059B9F1010F00DD84
:10074000B9460A9850EA4A000ED044F61050A5F275
:10075000FF3545432F14B8F1000F1ED07542291EF6
:100760001EDDC9F100021CE0B8F1010F4FF00000DE
:1007700001D0302103E0F24305E02154401CB04297
:10078000FBDB30460022002121540B99C1F8088080
:10079000C1E900200FB0BDE8F08FBD1B6D1CDEE786
:1007A0004A4600DA694206A800F068FA06AB93E808
:1007B000070003AB83E8070050460A9902F0D7F917
:1007C0008DE80700A0F500501F3800900398002D19
:1007D0000ADD42F21F014A460844002303A90390A0
:1007E000684602F041FC09E0A0F500504A461F3877
:1007F000002303A90390684602F04BFC8DE8070034
:100800000004000C03D04FF0FF30410800E0104618
:10081000B8F1000F03D00022009215461EE0751EAD
:1008200005D400F08DF9303262556D1EF9D5B3460E
:100830000122084302D000227F1C04E020783028E7
:1008400001D100227F1E002A099784D01DE0112DBE
:1008500007DA00F075F9303262556D1C50EA01027A
:10086000F5D1084302D00098C8B10EE00021681EFF
:1008700005E0235C625C63542254401E491C8142A3
:10088000F7DBAB46A81B401E0990002004F80B00C4
:100890000B98099AC0F80880C0E9002B7AE7112666
:1008A0004FF0000857E72DE9F04F88460446D21D67
:1008B00022F0070191B0D1E90001CDE90A0102F06F
:1008C0001FFD02460B98C00F01D02D2007E02068C5
:1008D000810701D52B2002E0202101EAC000032A74
:1008E000099001D0072A05DB03464146204600F067
:1008F00085F90BE12078800601D5E06900E006204B
:10090000B8F1650F814606D0B8F1660F18D0B8F17E
:10091000670F70D131E00020B9F1110F009001DBB9
:10092000112301E009F101030AAA01A90CA8FFF7AC
:10093000E2FEDDE90C70002609F10105834647E07F
:1009400001204B4600904FF000470AAA01A90CA8CD
:10095000FFF7D1FEDDE90DB00C995D46002610B918
:1009600009F101000D18B9EB050003D4C0F1FF3601
:1009700009F10105A5EB09002BE0B9F1010F01DA3E
:100980004FF001090020B9F1110F0090484601DD38
:10099000112300E003460AAA01A90CA8FFF7ABFE49
:1009A000DDE90C704D4600268346207800070AD406
:1009B000AB4500DA5D4601A8012D04DD411911F8AF
:1009C000011C302907D04F4502DA17F1040F04DA71
:1009D000012082460FE06D1EEEE7002F02DCED1BCA
:1009E0003E4403E0781CA84200DD7D1CB81B00F1EA
:1009F000010A4FF000472078000703D4AA4501DB25
:100A00004FF0FF3A0021B7F1004F0DF143088DF888
:100A1000431024D002202B23002F01DA7F422D2304
:100A20000A21021EA0F1010000DC5FB197FBF1FC7E
:100A300097FBF1F201FB1C7C17460CF1300C08F817
:100A400001CDEEE7A8F1010003702188090501D569
:100A5000452100E06521A0F1010800F8011C09987A
:100A60000FA9A1EB0807FF1D00B10120411901EBFF
:100A7000EA70A1693844081A401EA0612078C006B7
:100A800002D42046FFF792FC099828B1D4E901214D
:100A90009047206A401C20622078C00622D520465C
:100AA000FFF784FC1EE0002E04DBB34502DD01A845
:100AB000805D00E03020D4E901219047206A401C8D
:100AC0002062761CAAF101005FEA000A0AD100F058
:100AD00033F8C0680168405CD4E901219047206A7E
:100AE000401C2062281EA5F10105DCDC07E0D4E9EA
:100AF000012118F8010B9047206A401C2062381E23
:100B0000A7F10107F3DC2046FFF766FC032011B0D4
:100B100041E60000074B70B50D467B4400F05BF8E2
:100B20000446284600F01CF910B14FF0FF3070BDAC
:100B3000204670BD831E0000004870473000002032
:100B400030B5B0F10A0271F100034FEA900E4EEA9F
:100B5000817EB0EB0E0061EB91014FEA101E4EEA70
:100B6000017E10EB0E0041EB11114FEA102E4EEA00
:100B7000016E10EB0E0041EB11214FEA104E4EEAD0
:100B8000014E10EB0E0041EB1141401841F1000104
:100B90004FEAD00040EA41704FEAD1014FEA8104A8
:100BA00044EA907410EB800544EB01046D1944EBAA
:100BB0000404521BA3414FF0000348BF0A3200D582
:100BC00030BD401C41F1000130BD000001694A1CEC
:100BD00002610878704700B58FB0CDE9013100217E
:100BE000059105497944CDE9031011466846FFF7A0
:100BF0006DFC0FB000BD0000E5FFFFFF2DE9F041E7
:100C00001F46044603260168072A01F4006004DB3E
:100C100008B116A505E016A503E008B115A500E08A
:100C200015A521F010002060A069C01EA0610FB1C1
:100C3000401EA0612046FFF7B9FB4FB1D4E9012166
:100C400038469047206A401C2062C01C206206E0A3
:100C5000206AFAE7D4E9012115F8010B9047761EC6
:100C6000F8D22046FFF7B8FBBDE8F0814E414E00B8
:100C70006E616E00494E4600696E66002DE9F047D0
:100C8000814616468AB0354878440DC88DE80D0077
:100C900032487844801C03AC0DC884E80D0041F64E
:100CA0009B300844372190FBF1F290FBF1F5A5F160
:100CB000800501FB12041B3C02D56442012000E0C8
:100CC0000020DFF898A080460027FA44AAF1BE0A67
:100CD0000EE0E0070AD03246684607EB47010123E1
:100CE0000AEB810102F0D5F98DE8070064107F1C42
:100CF000002CEED1194F7F44AE3F19E0E80715D024
:100D000007EB04100DF1180A90E80E008AE80E00B7
:100D1000C068F04201D1981908903246012306A913
:100D200003A802F0B6F903AB83E807006D10641C5A
:100D3000002DE3D14FF0010332466946B8F1000FB0
:100D400003A802D002F090F901E002F0A2F9C9E98B
:100D50000001C9F808200AB0BDE8F087A428000007
:100D6000007B00F0800070470048704710000020B2
:100D70007546FFF7F9FFAE4605006946534620F079
:100D80000700854618B020B5FFF778FABDE8204087
:100D90004FF000064FF000074FF000084FF0000B37
:100DA000AC46ACE8C009ACE8C009ACE8C009ACE8A6
:100DB000C00921F007018D46704710B50446AFF316
:100DC00000802046BDE81040FFF73DBA000000005B
:100DD00030B44FF0013C50F8042B51F8043BCCFAEE
:100DE00052F4D51A20D1FCB950F8042B51F8043B29
:100DF000CCFA52F4D51A17D1B4B950F8042B51F8E3
:100E0000043BCCFA52F4D51A0ED16CB950F8042B2D
:100E100051F8043BCCFA52F4D51A05D1002CDAD0A3
:100E200030BC4FF00000704729BAB1FA81F111F0DF
:100E30001801D1F120008440F2D1CA40CB4012F019
:100E4000FF0213F0FF0330BCD01A70472DE9F041C8
:100E50008CB004465AA00D46FFF7DAFB63A0FFF7FB
:100E6000D7FB002643F630000096C4F20200416929
:100E700041F001014161416901F0010100910099D6
:100E80000096016841F010010160006800F0100058
:100E90000090009843F2C560C0F60000FFF7B8FB71
:100EA0004FF40340079002200027CDE908000A9084
:100EB0000120C4F201070B9007F5883007A900F064
:100EC0003BFA53A021462A46FFF764FA40F2FC1091
:100ED000C2F200004FF400788021C0E90075C0E93B
:100EE0000264C0F81080816101F032F828B1014637
:100EF00043F29550C0F6000041E043F24F60C0F667
:100F00000000FFF785FB6020CDE900064FF48070FC
:100F1000CDE9050840F2FC10C2F20000694600224B
:100F2000CDE9026600F00CFF28B1014643F2BD5046
:100F3000C0F6000023E043F27160C0F60000FFF746
:100F400067FB40F2DC11C2F200010020C1E90000A1
:100F5000C1E9020040F2FC104FF480524FF40053FC
:100F60004FF48047C2F20000CF61C1E9042300F0D2
:100F700043FE48B1014643F2E250C0F60000FFF7DD
:100F800009FA0CB0BDE8F08143F29860C0F60000A9
:100F9000FFF73EFB40F2FC14C2F2000420460021A1
:100FA00001F006F82046002100F04CFE43F23360C9
:100FB000C0F60000FFF72CFB0CB0BDE8F08100BFCD
:100FC0005B4154494D5D20E5BC80E5A78BE5889DDC
:100FD000E5A78BE58C96E4BA92E8A1A550574DE8B9
:100FE000BE93E587BA2E2E2E0D0000005B415449BA
:100FF0004D5D20E4BDBFE883BD54494D31E5928C81
:101000004750494F45E697B6E9929F2E2E2E0D0088
:101010005B4154494D5D20E9858DE7BDAEE5AE9A53
:10102000E697B6E599A8E59FBAE7A180E58F82E645
:1010300095B0284152523D25752C205053433D25F3
:1010400075292E2E2E0D0A00F0B581B02DED028BE4
:1010500082B00D4604464EB262A021462A46FFF7F2
:1010600099F9002E08D400EE105A43F27170B8EED0
:10107000408AC0F6000030E005F0C000802810D1A2
:1010800005F07F0000EE100A9FED711AB8EE400ADD
:1010900030EE010A43F20B7030EE008AC0F6000019
:1010A0001BE005F03F0100EE101A9FED5B1A05F002
:1010B000E000B8EE400AC02830EE010A08D1B2EED6
:1010C000001A43F23E7020EE018AC0F6000004E0F0
:1010D000B3EE001A20EE018A50A0FFF799FA5DA046
:1010E0002946FFF757F943F2B576C0F60006E9093D
:1010F0003046FFF74FF9C5F380113046FFF74AF944
:10110000C5F340113046FFF745F92020FFF77AFA82
:10111000C5F300113046FFF73DF9C5F3C001304675
:10112000FFF738F9C5F380013046FFF733F9C5F30F
:1011300040013046FFF72EF905F001013046FFF778
:1011400029F99FED4C0A4CA028EE008AFFF760FABF
:1011500018EE100A02F010F99FED480A064688EED4
:10116000000A0F4610EE100A02F006F941EC100BCF
:1011700043F26050C0F6000032463B468DED000B56
:10118000FFF708F940F2DC11C2F20001CD6040F235
:10119000FC15C2F20005284600F02EFD60B10146A4
:1011A00043F20B60C0F6000002B0BDEC028B01B050
:1011B000BDE8F040FFF7EEB83420C4F2010004604F
:1011C0002968486C40F4004243F29470C0F6000075
:1011D0004A6402B0BDEC028B01B0BDE8F040FFF7FD
:1011E00017BA00BF0D0A5B4154494D5D20E8AEBE01
:1011F000E7BDAEE6ADBBE58CBAE697B6E997B4209D
:10120000284343523D25752C204454473D307825D2
:10121000303258290D0A0000000000425B41544959
:101220004D5D20E6A8A1E5BC8F3131313A20445410
:10123000203D20283332202B204454475B353A3060
:101240005D29202A203136202A20744454530D0071
:10125000000080425B4154494D5D204454473D307D
:1012600078253032582028E4BA8CE8BF9BE588B650
:101270003A200000E17ABE41290D000000007A44C6
:10128000FEE700007047000070B5866D044600F070
:1012900039F994F83510022928D105462068216CC7
:1012A000026822F016020260426922F08002426166
:1012B00009B9A16C19B1016821F008010160016848
:1012C00021F00101016000BF20680068C00714D050
:1012D00000F018F9401B0628F6D320206065002096
:1012E00084F83400032084F8350070BD80206065E8
:1012F000002084F83400012070BDE06D3F2101FA28
:1013000000F0B0600020012184F8340084F835102A
:1013100070BD000090F83510022909D1052180F830
:1013200035100068016821F001010160002070475C
:1013300080214165012070472DE9F04F82B000F116
:101340003E4241F6004502F1FF77C4F20205082251
:1013500043F6004E4FEAB726A84208BF0722C4F260
:10136000010E072E38BF4FEAB722012500270026BD
:101370004FF00008009208E008F101080436B8F1C7
:10138000100F07F1020700F0A4800C6805FA08F9B5
:1013900014EA090FF0D0D1F804C003220CF0030BBB
:1013A000ABF10104BA40012C6FEA020A10D882683E
:1013B000CC6802EA0A02BC40224382604268CCF355
:1013C000001422EA090204FA08F42243426005E00C
:1013D000BBF1030F02D14FF0030B20E0C2688C6811
:1013E00002EA0A02BC402243BBF1020FC26016D1DE
:1013F0006FF0030202EA58020244D2F820C006F05D
:101400001C050F230C69AB402CEA030304FA05F515
:101410002B431362D1F804C001250CF0030B0268C2
:101420000BFA07F302EA0A021A435FEACC030260EE
:10143000A2D5002243F644030192C4F202031A68C3
:101440004FF6084C42F480421A601A68CFF6FF7CCF
:1014500002F480420192019A28F00302724452F889
:101460000C3006F00C050F24AC40A343009C04FA9A
:1014700005F52B4342F80C30DEF800204B6842EAB9
:101480000905DC0358BF22EA0905CEF80050DEF852
:1014900004209C0342EA090558BF22EA0905CEF858
:1014A0000450DEF80820DC0242EA090543F60C4449
:1014B00058BF22EA0905CEF80850C4F20104226898
:1014C0009B0242EA090558BF22EA09052560012569
:1014D00052E702B0BDE8F08F426902EA010391438E
:1014E00041EA034181617047002A08BF0904816114
:1014F0007047000042F20000CEF204000068000CC9
:101500007047000040F24420C2F2000000687047BB
:1015100040F2080040F24421C2F20000C2F2000191
:1015200000780A68104408607047000080B543F6F0
:101530000040C4F20200016841F4007101600168DA
:1015400041F480610160052000F072F80F2000F086
:1015500005F800F02BF8002080BD0000B0B540F287
:101560000802C2F2000240F204011278C2F2000145
:101570004FF47A730968B3FBF2F20446B1FBF2F15F
:10158000084600F023FB0F2C4FF001050CD858B98A
:101590004FF0FF3021460022002500F01DF840F2F8
:1015A0000C00C2F2000004602846B0BD7047000085
:1015B000002848BF7047C1B200F01F00012202FAA4
:1015C00000F04EF20012CEF2000242EAD10121F008
:1015D000030108607047000010B54EF60C5CCEF2B7
:1015E000000CDCF80030C3F3022E8EF00704042C4C
:1015F00028BF0424BEF103034FF0FF3E0EFA04F4AB
:1016000038BF0023A14399400EFA03F39A431143D4
:1016100000F00F0200F160430901043A03F564434E
:101620006244002848BF02F10C03197010BD00008D
:101630004EF60C51CEF200010A684FF6FF031A4035
:1016400060F30A2242F0806040F0FD70086070474D
:101650002DE9F041002800F08B8043F60808C4F221
:1016600002080446D8F8F8030D4600F00700884247
:1016700007D288F8F853D8F8F80300F00700A8421A
:1016800076D12068810717D5410705D5D8F8001015
:1016900041F4E051C8F80010010705D5D8F8001052
:1016A00041F46041C8F80010D8F80010A26821F099
:1016B000F0011143C8F80010C0073FD1D8F8F80373
:1016C00000F00700A84207D988F8F853D8F8F803C3
:1016D00000F00700A8424BD12068410707D5D8F891
:1016E0000010E26821F4E0511143C8F8001000072F
:1016F00008D5D8F80000216920F4604040EAC10014
:10170000C8F8000000F07CF8D8F8001043F2485206
:10171000C1F30311C0F60002515C40F2040220FA4A
:1017200001F140F20C00C2F200000068C2F20002B7
:101730001160FFF713FF0020BDE8F0816068811E93
:10174000022907D258F8081C89015CBF0120BDE8B6
:10175000F08110E0012807D158F8081C89035CBF0C
:101760000120BDE8F08106E058F8081C890702D482
:101770000120BDE8F081D8F8001021F003010843F2
:10178000C8F80000FFF7BEFE064641F2883700BFEA
:10179000D8F80000616800F00C00B0EB810F8DD02C
:1017A000FFF7B0FE801BB842F2D90320BDE8F081FC
:1017B00040F2040043F60801C2F20000C4F2020144
:1017C0000068096843F25852C1F38221C0F6000252
:1017D000515CC8407047000040F2040043F6080125
:1017E000C2F20000C4F202010068096843F25852D4
:1017F000C1F34231C0F60002515CC840704700009E
:1018000010B543F60404C4F20204606800F00C0151
:1018100042F200400829C0F2F40007D0042918BFA2
:1018200010BD41F20020C0F27A0010BD216801F025
:101830003F02216823684902C3F3881105D4A1FB44
:1018400000010023FEF72DFD06E041F20020C0F26A
:101850007A004843B0FBF2F021680222C1F3014153
:1018600002EB4101B0FBF1F010BD00002DE9F041A9
:1018700082B0002868D00446007843F60006C0070E
:10188000C4F202060BD0B06800F00C00042840F04F
:101890009C803068800302D56068002854D020788E
:1018A00080071AD5B06810F00C0F09D0B06800F0AE
:1018B0000C00082840F0A3807068400200F19F806F
:1018C0003068800702D5E06801283DD13068216981
:1018D00020F0F80040EAC10030602078000737D4DB
:1018E000207840074BD4A56955B3B06800F00C00D0
:1018F000082840F0B780012D26D07068E16900F417
:1019000080028A4220D1216A00F03F028A421BD124
:1019100047F6C071626A0140B1EB821F14D1A16A1F
:101920004FF6FF73C903994300F44032A1F58031AB
:101930008A4209D1E16A00F07060B0EB016F03D117
:10194000002002B0BDE8F081012002B0BDE8F081C6
:101950006069002840F20000C4F2472072D00121E3
:10196000C0F8801EFFF7CEFD054600BF706F8007F0
:10197000B6D4FFF7C7FD401B0228F7D9D7E0306C7B
:1019800010F080580AD100200190306C40F0805057
:101990003064306C00F080500190019847F20007ED
:1019A000C4F200073868C0053ED4386840F480703F
:1019B0003860FFF7A7FD05463868C00534D4FFF747
:1019C000A1FD401B0228F7D9B1E0B06800F00C007F
:1019D000082803D1706840023FF55BAF6068B0F53E
:1019E000803F07D0B0F5A02F40F08B80306840F4E6
:1019F00080203060306840F4803030608BE0E068F8
:101A0000002851D00020C4F2472001210160FFF7D7
:101A100079FD0546306880073FF558AFFFF772FD46
:101A2000401B0228F6D982E0A068012805D00528CD
:101A30004ED1306F40F004003067306F40F001004D
:101A400030674FE00021C0F8801EFFF75BFD0546C0
:101A5000706F80077FF544AFFFF754FD401B0228ED
:101A6000F6D964E00027C4F2472700203866FFF764
:101A700049FD022D05460BD1306880015BD5FFF78B
:101A800041FD401B02284FF00300F5D959E700BF84
:101A9000306880017FF554AFFFF734FD401B02280A
:101AA0004FF00300F4D94CE70020C4F24720002196
:101AB0000160FFF727FD0546306880077FF50DAF11
:101AC000FFF720FD401B02284FF00300F4D938E750
:101AD000316F002821F001013167316F21F00401DD
:101AE000316749D0FFF70EFD054641F2883700BF48
:101AF000306F800751D4FFF705FD401BB842F7D97E
:101B000015E03168002821F480313160316821F41A
:101B1000802131604AD0FFF7F5FC0546306880032C
:101B20003FF5BDAEFFF7EEFC401B6428F6D903205D
:101B300002B0BDE8F08104F11C052FCD084340EA56
:101B40008210D9034FF6FF729143A1F5803140EA2C
:101B500005600843706001203866FFF7D3FC044637
:101B6000306880013FF5ECAEFFF7CCFC001B02288B
:101B70004FF00300F4D9E4E6FFF7C4FC054641F258
:101B8000883700BF306F800707D5FFF7BBFC401BCD
:101B9000B8424FF00300F5D9D3E6B8F1000F7FF457
:101BA000A2AE306C20F0805030649CE6FFF7AAFCB7
:101BB000054600BF306880037FF571AEFFF7A2FCD9
:101BC000401B64284FF00300F4D9BAE6411E002000
:101BD000B0EB116F1CBF012070474EF21002CEF225
:101BE000000251604EF62351CEF20001F0230B703B
:101BF0000721906011607047B0B590F83C20012A31
:101C000004BF0220B0BD01F108053CCDD1E900CEF2
:101C100023F47C5322F470521A432EF4F0431A43F7
:101C20002CF4E0431A4324F4C0431A432A43C969FD
:101C300022F48042036811435964002180F83C106B
:101C40000846B0BD41B1082910D0042914BF00F1E5
:101C5000450200F143020BE090F84220012A1CBF2C
:101C600001207047022280F8422012E000F1440275
:101C70001278012A1CBF012070470222082906D0D1
:101C8000042914BF80F8452080F8432001E080F843
:101C90004420006801F01F010422036A02FA01F1E6
:101CA00023EA01020262026A11430162416C41F2BD
:101CB000FF72C4F2000241F40041904241640DDC25
:101CC00040F2FF71C4F20001884215DCB0F1804F90
:101CD00029D040F20041C4F2000122E040F2FF317D
:101CE000C4F20101884212DC41F60001C4F2000195
:101CF000884218D0002112E040F60001C4F2000131
:101D0000884210D040F60041C4F2000109E044F2DC
:101D10000001C4F20101884205D040F20041C4F242
:101D20000101884206D1816801F00701062904BF3C
:101D300000207047016841F00101016000207047F8
:101D40002DE9F04390F83C30012B04BF0220BDE8A0
:101D5000F0834FEAB202032A00F2F480DFE802F0D7
:101D6000023E7DBD036840F200471A6A43F4806575
:101D700022F001021A621C6A1A46D3F804E052F8F3
:101D800018CF8E6824F00204C4F20107BD4244EA71
:101D9000060405D1CE6824F00C0426F00406344372
:101DA0000E68BD4207D1D1E905572EF4407E45EAC1
:101DB0000E0545EA070E2CF073073743C3F804E01D
:101DC0009F614F6809695F631C629F6947F008075C
:101DD0009F619F6927F004079F61B0E0036840F2AC
:101DE00000481A6A43F4806522F010021A621C6AE5
:101DF0001A46D3F804C052F818EF8F6824F0200474
:101E0000C4F20108454544EA071407D1CF686FF0D2
:101E1000400624F0C00406EA07163443D1F80090C7
:101E2000454506D1D1E905562CF440672E4347EAD3
:101E3000860C2EF4E64747EA0927C3F804C09F61E1
:101E40004F6809699F631C629F6947F400679F613F
:101E50009F6927F480679F6170E0036840F2004843
:101E60001A6A43F4806522F480721A621C6A1A4668
:101E7000D3F804C052F81CEF8F6824F40074C4F245
:101E80000108454544EA072408D1CF6840F2FF46DF
:101E90003F0224F4406427EA06063443D1F8009058
:101EA000454506D1D1E905562CF440572E4347EA63
:101EB000061C2EF0730747EA0907C3F804C0DF6168
:101EC0004F680969DF631C62DF6947F00807DF615B
:101ED000DF6927F00407DF6131E0036840F2004565
:101EE0001A6A43F4806722F480521A621A46D3F8C1
:101EF00020C05C6852F81CEFD1F800808E68C4F2F4
:101F00000105AF4204D14D6924F4804444EA8514AC
:101F10002CF4005747EA06372EF4E64646EA082630
:101F20005C60DE614E6809691E641F62DF6947F408
:101F30000067DF61DF6927F48067DF6109021368EA
:101F400019431160002180F83C100846BDE8F08379
:101F5000002804BF0120704710B5044690F83D00EA
:101F600028B9002084F83C00204600F01FF8022029
:101F700084F83D002068211D00F0E4FA012084F877
:101F8000460084F83E0084F83F0084F8400084F85E
:101F9000410084F8420084F8430084F8440084F847
:101FA000450084F83D00002010BD0000704700008F
:101FB00041B1082910D0042914BF00F1410200F1F9
:101FC0003F020BE090F83E20012A1CBF0120704721
:101FD000022280F83E2012E000F140021278012A2D
:101FE0001CBF012070470222082906D0042914BF13
:101FF00080F8412080F83F2001E080F84020006810
:1020000001F01F010122036A02FA01F123EA010231
:102010000262026A114341F2FF72C4F2000290426E
:1020200001620BDC40F2FF71C4F20001884213DC54
:10203000B0F1804F35D040F2004115E040F2FF3161
:10204000C4F20101884214DC41F60001C4F200012F
:10205000884226D0002114E040F60001C4F20001BD
:1020600088421ED040F60041C4F20001884218D0D8
:102070001EE044F20001C4F20101884211D040F296
:102080000041C4F20101884212D1416C40F2004388
:1020900040F48062C4F2010341F400419A42416479
:1020A00006D1816801F00701062904BF00207047AE
:1020B000016841F001010160002070477047000095
:1020C00070470000B0B582B0026805461068D3685A
:1020D000546900F02F01202903F0200106D129B115
:1020E000284602B0BDE8B04000F0C4BA5FEA007C08
:1020F0001EBF04F0010E03F4907414EB0E0453D1D0
:10210000296B012905D110F0100118BF13F010013F
:1021100036D1010622D513F080011FD095F83D007D
:1021200021283FD1A868B0F5805F03D12869002835
:1021300000F0F780286A411C296200785060E88C22
:1021400001380104E8842DD1D06820F08000D060EF
:10215000D06840F04000D06002B0B0BD400621D54C
:1021600013F040001ED0D068202120F04000D06045
:10217000284685F83D1002B0BDE8B04000F0CAB96D
:1021800000200190106801905068019001985069FA
:10219000400611D4A88DE98DEB8D002B18BF884225
:1021A00040F0A68002B0B0BDC40718BF13F480731E
:1021B0002DD1430731D437E0A86B01684B689CB23E
:1021C000002CEFD0A98D8C42ECD2EB85C369B3F51E
:1021D000807F17D0D16821F48071D160516921F0DE
:1021E00001015161516921F040015161202185F8BF
:1021F0003E1000212963D16821F01001D160FFF762
:1022000043F8A98DE88D081A81B2284684E02B6C2A
:1022100043F001032B64430706D5BEF1000F03D042
:102220002B6C43F002032B64830706D5BEF1000F2D
:1022300003D02B6C43F004032B64BCF1000F09D5D1
:1022400041EA0E03B3FA83F35B0903D12B6C43F02D
:1022500008032B642B6C002BA4D010F0200018BFB7
:10226000002903D0284600F005FA2A685069296C35
:1022700000F0400001F0080140182CD0D06820F494
:102280009070D060506920F001005061286B0128E7
:1022900003D1D06820F01000D060202085F83E00E7
:1022A00000202863506940061CD5506920F040008A
:1022B0005061A86BB0B142F26961C0F600010165DE
:1022C000FFF728F800283FF46DAFA86B016D02B04E
:1022D000BDE8B04008472846FFF7F2FE002028641A
:1022E00002B0B0BD284602B0BDE8B040FFF7E8BE7E
:1022F000D368401A23F49073D360536981B223F0FA
:1023000001035361202385F83E3000232B63D368FB
:10231000284623F01003D36002B0BDE8B040FFF7B9
:10232000CDBE286A30F8021B6FF35F21516028622E
:1023300005E70000002804BF0120704710B50446DF
:1023400090F83D0028B9002084F83C00204600F0B9
:1023500021F8242084F83D002068C16821F4005150
:10236000C160204600F0D6F92068016921F490414F
:102370000161416921F02A014161C16841F40051C4
:10238000C16000202021206484F83D1084F83E10B4
:1023900010BD000070B586B00024C4F202040068CD
:1023A000A4F57041884201D006B070BD002043F60C
:1023B00030010190C4F202014A6901AD42F01002FD
:1023C0004A614A69072602F010020192019A0190BF
:1023D0000A6842F001020A600A6802F001020192F2
:1023E000019A0190086840F0010008600868012126
:1023F00000F00100019001984FF40070019002205C
:102400000290CDE90310204629460596FEF794FF79
:102410004FF480600190204629460596FEF78CFF18
:102420002520FFF7C5F8252003210322FFF7D4F864
:1024300006B070BD034690F83E0020280AD100295E
:102440004FF0010018BF002A00D1704793F83C00FC
:10245000012801D1022070470020186399622221CF
:102460009A85DA85186483F83E10196883F83C0071
:10247000CA6842F48072CA604A6942F001024A6145
:10248000CA6842F02002CA607047000080B5006848
:1024900041F20001C4F20101884218BF80BD40F240
:1024A000D81EC2F2000EBEF90010002924D440F25A
:1024B000C802C2F2000289B213784A0404D40D2B78
:1024C0000CD141F4804215E048F2000C0022CFF616
:1024D000FF7C0A2B08BF41EA0C020BE00A4640F2DF
:1024E00010106FF39F32C2F2000083544A1CC629B9
:1024F00088BF0022AEF8002040F2CC0040F2C801B4
:10250000C2F20000C2F200010122BDE88040FFF7E4
:1025100091BF000070470000FEE70000FEE70000EA
:10252000704700007047000070470000FEF7F0BFE2
:102530004EF68850CEF20000016841F4700101604F
:102540007047000010B540F6FF3E0368C4F2000E6D
:1025500040F2004C7045C4F2010C0FDCB0F1804F2A
:1025600019D040F20042C4F20002904213D040F66B
:102570000002C4F2000290420DD010E040F600428A
:10258000C4F20002904206D0604504D00022C4F29A
:102590000102904203D14A6823F07003134341F6CD
:1025A000FF72C4F2000290420DDC70451FDCB0F1F6
:1025B000804F41D040F20042C4F2000290423BD032
:1025C00040F6000221E043F6FF72C4F2010290429D
:1025D00020DC42F20002C4F2000290422CD0002221
:1025E000C4F20102904227D0604525D028E040F691
:1025F0000042C4F2000290421ED041F60002C4F232
:102600000002904218D041F60042C4F2000290420B
:1026100012D015E044F20002C4F2010290420BD045
:1026200044F60002C4F20102904205D044F2004296
:10263000C4F20102904203D1CA6823F440731343E9
:1026400023F080024B69D1F800E08C681A430260E5
:10265000C46240F48062C0F828E0624504BF0969A2
:1026600001630121416110BD806B0021C185C184DE
:10267000FFF726BD10B5044690F83E00222848D149
:10268000A2682146B2F5805F0CD151F8280F51F8AD
:10269000182C8AB9216849686FF35F2120F8021B62
:1026A000A0620FE051F8280F0AB9226922B122680E
:1026B000526802F07F0201E02268526802700868E6
:1026C00001300860E08D01380104E08518BF10BDBD
:1026D0002068C16821F02001C160C16821F48071C7
:1026E000C160416921F001014161202184F83E105F
:1026F000216B012908D1C16821F01001C160A18DB1
:102700002046FFF7DBFC02E02046FFF7BFFE00207B
:10271000206310BD10B504460068D4E902C22369E5
:10272000016921F4405111430161626943EA0C01DE
:10273000E3691143C268194349F20C639A43114398
:10274000C1604169A26921F4407141F20043114323
:1027500040F48062C4F201039A42416102D1FFF762
:102760003BF801E0FFF724F8E16963681922B1F54D
:10277000004FA0FB020121D15A00DB0FFDF791FDB4
:1027800048F21F51C5F2EB11A0FB01235A094FF685
:102790009C73C0F6FF7303F1805302FB03003223E6
:1027A00003EBC000A0FB01014FF4F87000EA111028
:1027B00000EB0210C1F3421108441DE09A009B0F88
:1027C000FDF76FFD48F21F51C5F2EB11A0FB01238D
:1027D0005A094FF69C73C0F6FF7302FB03003223C5
:1027E00003EB0010A0FB0101F02000EA511000EB08
:1027F0000210C1F3431108442168886010BD000035
:1028000040F2CC00C2F20000FFF75CBCFEE7000023
:102810007047000080B5FEF789FE4FF4A8700821CC
:102820000222072300F024F94FF4E13000F080F990
:10283000A82000F083F800F04FF8BDE8804000F0D9
:1028400001B800002DE9F04186B0002643F63000C3
:102850000196C4F20200016841F2000541F0100146
:1028600001600168C4F2020501F0100101910199B3
:10287000019601680DF1040841F001010160006852
:10288000012400F00100019001981020CDE901061B
:1028900002272846414603940497FEF74DFD082081
:1028A000CDE9010628464146CDE90347FEF744FD40
:1028B0000420CDE9010628464146CDE90347FEF74D
:1028C0003BFD01A8D0C0A5F5805041460497FEF716
:1028D00033FD06B0BDE8F081B0B586B000200190B0
:1028E00043F63000C4F20200016841F2004441F0B6
:1028F000200101600068C4F2020400F02000019091
:1029000001984FF4007001900120CDE902000320EE
:1029100001AD049020462946FEF70EFD4FF480607D
:10292000019020462946FEF707FD20464FF4C0617E
:102930000122FEF7D9FD06B0B0BD000040F2C4018F
:10294000C2F200010860704780B54EF2180140F2F3
:10295000C402CEF20001C2F2000251F804CC1268A7
:10296000002350434FF47A7200FB02FE086809E02E
:1029700003449B1A904298BF63447345104628BF96
:1029800080BD00BF0A689042F2D10A689042EFD140
:102990000A689042ECD10A689042F3D0E8E7000060
:1029A00041F20001C4F201010A68520609D40A6822
:1029B00052065CBF0A685FEA426202D40A685206A5
:1029C000F2D5C2B24A607047FFF724FF11A0FDF7AD
:1029D0001FFE40F2E730A721FEF738FA4FF4967059
:1029E0006421FEF731FB17A0FDF712FE41F200440F
:1029F000C4F2020419A500BF20464FF40071FEF78F
:102A00006BFD2846FDF704FE4FF47A70FFF79CFF3C
:102A1000F2E700BF0D0A3D3D3D3D3D2050574D20A2
:102A2000436F6D706C656D656E74617279204F7562
:102A3000747075742044656D6F203D3D3D3D3D0DC6
:102A4000000000000D0A53797374656D2072756E75
:102A50006E696E672E2E2E0D000000005B535953D9
:102A60005D204865617274626561740D000000004C
:102A70002DE9F04192B043F640080026C4F2020866
:102A8000CDE90A66CDE908660596CDE90366CDE98C
:102A900001660096D8F800704FF4800547F0805723
:102AA000C8F80070D8F8007007F080570097009FB2
:102AB00047F200070096C4F200073C6844F48044E3
:102AC0003C603F68012407F480470097009F4FF463
:102AD0008037CDE90D510FA9079702270DC106A830
:102AE00006940C97FEF7C2FEE8B90F20CDE9010766
:102AF0004FF4A05004904FF48050059001A8052198
:102B00000396FEF7A5FD08B101240CE0FEF7F2FCE8
:102B100041F20101884202BFD8F8C00340F480703E
:102B2000C8F8C0030024204612B0BDE8F0810000C0
:102B300010B540F2CC0441F20001C2F20004C4F22C
:102B4000010100220C23C4E900102046C4E902223E
:102B5000C4E90423A261FFF7EDFB40F2C801C2F211
:102B6000000120460122BDE81040FFF763BC5FEA88
:102B7000400C08BF91F0000F4FEA8C234FEAC122AE
:102B800043EA51514FEA1C5018BF00F5F0404FEA9C
:102B9000300018BF41F000415FEA6C5C00F0298012
:102BA000BCF1FF3F08BF40F080407047130C06BFE8
:102BB00012044FF0100C4FF0000C130E04BF120261
:102BC0000CF1080C130F04BF12010CF1040C930F4D
:102BD00004BF92000CF1020CD30F04BF52000CF1A1
:102BE000010C11464FF00002A0F11F00A0EB0C00F9
:102BF000704711F0004F08BF704731F000413FF4BB
:102C0000D5AF0B0C06BF09044FF0100C4FF0000CB1
:102C10000B0E04BF09020CF1080C0B0F04BF0901D5
:102C20000CF1040C8B0F04BF89000CF1020CCB0FCC
:102C300004BF49000CF1010CCCF1200322FA03F38C
:102C400041EA030102FA0CF2A0EB0C0000F10100D2
:102C50007047000023F07F4720F07F4C80EA03009C
:102C600000F00040ACEB070303F57C5303F1FF03D6
:102C70002DE9804909B44FEA144324EA03484FEA96
:102C8000154B25EA0B4E0FF2042606EB13273E7870
:102C900003FB0667C7F5000707FB06F64FEAD646B3
:102CA00006F102064FEA543707FB066CCCF1005CD4
:102CB0004FEA1C472CEA074C0CFB06F507FB06F411
:102CC00004EB15464FEA961649085FEA320234BF14
:102CD00000204FF000404FEAD13706FB07FC4FEAD7
:102CE0001C4C0CFB0BF7D21B03FB0CF761EB070131
:102CF0000CFB0EF7B0EB074072EB17420CFB08F72A
:102D000034BFA2EB0742B2EB074261EB17414FEA37
:102D10000C444FEA910706FB07FC4FEA1C4C0CFBE6
:102D20000BF7B0EBC74072EB573203FB0CF734BF25
:102D3000A2EBC742B2EBC74261EB57310CFB0EF777
:102D4000B0EBC70072EB57720CFB08F734BFA2EB75
:102D5000C702B2EBC70261EB57714FEA816141EAEA
:102D600092114FEA826242EA90124FEA806004EBCD
:102D7000CC04039F4FEAD13706FB07FC4FEA1C4CFB
:102D80000CFB0BF7D21B03FB0CF761EB07010CFBF1
:102D90000EF7B0EB074072EB17420CFB08F734BF9D
:102DA000A2EB0742B2EB074261EB17414FEA8C55A9
:102DB00004EB9C244FEA910706FB07FC4FEA1C4CEE
:102DC0000CFB0BF7B0EBC74072EB573203FB0CF771
:102DD00034BFA2EBC742B2EBC74261EB57310CFBE9
:102DE0000EF7B0EBC70072EB57720CFB08F734BF5D
:102DF000A2EBC702B2EBC70261EB57714FEA8161E8
:102E000041EA92114FEA826242EA90124FEA8060F0
:102E100015EB4C2544F100044FEAD13706FB07FCC3
:102E20004FEA1C4C0CFB0BF7D21B03FB0CF761EBBE
:102E300007010CFB0EF7B0EB074072EB17420CFBDF
:102E400008F734BFA2EB0742B2EB074261EB174130
:102E50004FEA813141EA92414FEA823242EA90429E
:102E60004FEA80304FEA0C7615EB1C1544F1000454
:102E700048EA03434EEA0B484FF0000EB2EB080C51
:102E800071EB030724BF624639464EEB0E0E4FF03E
:102E9000000B0018524149414BEB0B0BB2EB080CF5
:102EA00071EB03077BF1000B24BF624639464EEB02
:102EB0000E0E4FF0000B0018524149414BEB0B0B2B
:102EC000B2EB080C71EB03077BF1000B24BF6246E9
:102ED00039464EEB0E0E51EA020718BF46F00106C6
:102EE00016EB0E7655F1000254F1000103D5BDE852
:102EF0008901BDE80088BDE88901BDE80048B61930
:102F0000524141EB0101A3F10103704780807F7EB4
:102F10007D7C7B7A7978777676757473727171704F
:102F20006F6E6E6D6C6C6B6A6A6968686766666501
:102F30006464636362616160605F5F5E5E5D5D5C8F
:102F40005C5B5B5A5A595958585757565655555500
:102F50005454535352525251515050504F4F4F4E60
:102F60004E4D4D4D4C4C4C4B4B4B4A4A4A494949AE
:102F700048484847474747464646454545444444F0
:102F80004443434343424242424141419C46002B19
:102F900030D477002BD04FEA37071CB503B44FF07D
:102FA00010004FF01001BAF1000F06D0BCF1000F75
:102FB000DCBF40F0080040F008014FF000000FBCFB
:102FC000BDE810400BF1010BBBF1010F08BF5FEA38
:102FD000170722BF12F1010211F101014FF0004168
:102FE00043F1000300F0004043EA00007047F9D3CA
:102FF0005708D0E746EA06464FEA164613F1400F57
:103000001FDD13F1200FDFBF16430A4600212033D6
:103010005B42BED0C3F1200746EA06464FEA164699
:1030200002FA07F746EA070622FA03F2C3F120077D
:1030300001FA07F742EA070221FA03F14FF0000311
:10304000A7E746EA020646EA06464FEA164646EA79
:103050000106BCBF46EA0646360C4FF000034FF0AF
:1030600000024FF0000194E72DE9804C70B49A46BD
:10307000934691E8380007C831EA400C48BF34EA6B
:10308000430C03D5FFF7E6FDFFF780FFF0BCBDE87A
:10309000008C2DE9804C70B49A46934691E8380034
:1030A00007C810F0804F08BF13F0804F03D100F025
:1030B00005F8FFF76BFFF0BCBDE8008C20F07F4700
:1030C00023F07F4C80EA030000F0004007EB0C0384
:1030D000A3F57C53A3F1FE0392F0000F00F0B38040
:1030E00095F0000F00F077802DE901494FEA11407B
:1030F00021EA00484FEA144624EA064700FB06FC92
:1031000008FB06F607FB08F818EB06484CEB164CD4
:1031100000FB07F718EB07484CEB17404FEA124B40
:1031200022EA0B4E4FEA154625EA06470BFB06FC42
:103130000EFB06F607FB0EFE1EEB064E4CEB164C86
:103140000BFB07F71EEB074E4CEB174B18EB0B086E
:1031500040F1000018EB0E0B58EB000840F10000A6
:103160008F1A4FF000014FF000063CBFC943661BA9
:1031700014BFB5EB040C00213CBFC943F61B4FEA5A
:10318000174427EA04454FEA1C472CEA074C04FB86
:10319000076205FB07F70CFB05F616EB074642EB4B
:1031A000174204FB0CFC16EB0C4642EB1C421BEBDB
:1031B000060658EB020241414EEA8E0E46EA9E0692
:1031C00001D5BDE80189B619524141EB0101A3F1D6
:1031D0000103BDE801894FEA144524EA05464FEA98
:1031E000114721EA074C05FB07F406FB07F70CFB28
:1031F00006F111EB074144EB174405FB0CFC11EB06
:103200000C4144EB1C444FEA124722EA074C05FBF1
:1032100007F206FB07F70CFB06F616EB074642EB38
:10322000174205FB0CFC16EB0C4642EB1C456A18DA
:1032300054F1000148BF7047B619524141EB0101FA
:10324000A3F10103704795F0000F37D04FEA114208
:1032500021EA02464FEA144724EA074C02FB07F131
:1032600006FB07F70CFB06F414EB074441EB174190
:1032700002FB0CFC14EB0C4441EB1C414FEA1547DC
:1032800025EA074C02FB07F506FB07F70CFB06F6E1
:1032900016EB074645EB174502FB0CFC16EB0C46FC
:1032A00045EB1C42121951F1000148BF7047B61995
:1032B000524141EB0101A3F1010370474FEA14456C
:1032C00024EA05464FEA114721EA074C05FB07F1BE
:1032D00006FB07F70CFB06F212EB074241EB174126
:1032E00005FB0CFC12EB0C4251EB1C414FF00006AD
:1032F00048BF7047921841EB0101A3F101037047E9
:1033000003B401984100009850EAC12018BF04207E
:103310004A0D18BF40F0010040F2FF72B2EB515F5E
:1033200008BF40F00200012808BF052002B0704726
:1033300030380A2801D20120704700207047000071
:1033400010B500290AD00878002807D0054878442D
:10335000FDF73EFD002801D0002010BD0248784452
:1033600010BD00008A040000820400000808A0F5D7
:1033700000114FEA3101704743004FEAD30C4FEA86
:103380003C0C43401FBF40070CF1605113F0FE4F4F
:1033900070471CF0006F03D10CF000410020704713
:1033A0000CF0004343EA507040EACC0010B500F046
:1033B0000EF800BF000000924FEA0001FFF7D6BFF1
:1033C0004FF00041A1F500214FF0000070470EF1D1
:1033D000020E2EF0030E5EF8044B244204D44FEA92
:1033E0004102B2F17F4F11D84FEA4003B3F17F4F52
:1033F0000CD80ED14FEAD07C0CEB4C0C0CF1020C2B
:10340000B2F17F4F08BF4CEBD17C04E04FF0080CC9
:1034100001E04FEAD17C0CEB4C0324FA03F404F0F6
:103420000704B4F1040C06D20EEB840CBDE8104086
:103430004CF0010C6047DFE80CF0070802024FF087
:103440000040A0F5800010BD0846420018BFD2F130
:10345000807288BF00F0004010BDF1EE100A4FF6F8
:10346000FF71C0F2C03120EA010040F04070E1EE8F
:10347000100A7047FDF717BA30313233343536371A
:1034800038394142434445464030580030313233A8
:1034900034353637383961626364656640307800A8
:1034A000040000080000000000000002000100000D
:1034B0001000000002400000000000A0000000001A
:1034C00005400000000000C8000000000C400000A3
:1034D0000000409C00000000194000000020BCBE1D
:1034E0000000000034400000BFC91B8E0000000433
:1034F000B5400000504BCFD06607E2CF010000007E
:103500006C4100003E8251AADFEEA73401000000AA
:10351000D9420000DCB5A0E23A301F97FFFFFFFF61
:10352000B4450000FD25A0C8E9A3C14FFFFFFFFF80
:10353000FF3F00000000008000000000FF3F00008F
:1035400000000080000000000000000000000000FB
:103550000102030406070809000000000102030439
:103560005B4154494D5D20E8AEA1E7AE97E6ADBBA7
:10357000E58CBAE697B6E997B4203D20252E326651
:10358000206E732028E7BAA620252E326620CEBCF6
:1035900073290D0A005BE99499E8AFAF5D20E5AEB1
:1035A0009AE697B6E599A8E5889DE5A78BE58C9600
:1035B000E5A4B1E8B4A53A2025640D0A005BE994BE
:1035C00099E8AFAF5D2050574DE9809AE98193E9C2
:1035D000858DE7BDAEE5A4B1E8B4A53A2025640D1C
:1035E0000A005BE99499E8AFAF5D20E588B9E8BDD2
:1035F000A62FE6ADBBE58CBAE9858DE7BDAEE5A4A7
:10360000B1E8B4A53A2025640D0A005BE99499E875
:10361000AFAF5D20E6ADBBE58CBAE697B6E997B4EF
:10362000E69BB4E696B0E5A4B1E8B4A53A202564DB
:103630000D0A005B4154494D5D2050574DE5889D72
:10364000E5A78BE58C96E68890E58A9F210D005BC7
:103650004154494D5D20E9858DE7BDAE50574DE998
:10366000809AE9819331E58F82E695B02E2E2E0D5A
:10367000005B4154494D5D20E9858DE7BDAEE5888D
:10368000B9E8BDA6E5928CE6ADBBE58CBAE58F82C4
:10369000E695B02E2E2E0D005B4154494D5D20E580
:1036A00090AFE58AA850574DE4B8BBE8BE93E587D4
:1036B000BAE5928CE4BA92E8A1A5E8BE93E587BA90
:1036C0002E2E2E0D005B4154494D5D20E9858DE77E
:1036D000BDAE504538284F43794E292C20504539EE
:1036E000284F4379292C205045313528424B494EEB
:1036F00029E4B8BAE5A48DE794A8E68EA8E68CBDC7
:10370000E8BE93E587BA2E2E2E0D005B4154494D3D
:103710005D20E6A8A1E5BC8F3130783A20445420E2
:103720003D20283634202B204454475B363A305D08
:1037300029202A2032202A20744454530D005B4152
:1037400054494D5D20E6A8A1E5BC8F3131303A20C7
:103750004454203D20283332202B204454475B35ED
:103760003A305D29202A2038202A20744454530DF1
:10377000005B4154494D5D20E6A8A1E5BC8F30783F
:10378000783A204454203D20445447202A20744451
:1037900054530D005B4154494D5D20E6ADBBE58CB3
:1037A000BAE697B6E997B4E8AEBEE7BDAEE6889054
:1037B000E58A9F0D00256400F8370008000000200E
:1037C00010000000C40100080838000810000020A4
:1037D00038060000E00100081C0000004300000063
:1037E000F8FFFFFF0C0000000E0000000F000000BB
:1037F0002E00000000000000010000000024F40082
:083800000100000010000000AF
:040000050800018965
:00000001FF
