:020000040800F2
:10000000D8B10120650200087D320008811A00087D
:10001000793200085D0900089D35000800000000E5
:100020000000000000000000000000008532000811
:1000300061090008000000008132000889320008D0
:100040008902000889020008890200088902000864
:100050008902000889020008890200088902000854
:100060008902000889020008890200088902000844
:100070008902000889020008890200088902000834
:100080008902000889020008890200088902000824
:100090008902000889020008890200088902000814
:1000A0008902000889020008890200088902000804
:1000B0008902000889020008A132000889020008AC
:1000C00089020008890200088902000889020008E4
:1000D0008902000891350008890200088902000899
:1000E00089020008890200088902000889020008C4
:1000F00089020008890200088902000889020008B4
:1001000089020008890200088902000889020008A3
:100110008902000889020008890200088902000893
:100120008902000889020008890200088902000883
:100130008902000889020008890200088902000873
:100140008902000889020008890200088902000863
:100150008902000889020008890200088902000853
:100160008902000889020008890200088902000843
:1001700089020008890200088902000800000000C6
:10018000890200088902000800F002F800F05AF81D
:100190000AA090E8000C82448344AAF10107DA45E2
:1001A00001D100F04FF8AFF2090EBAE80F0013F0DA
:1001B000010F18BFFB1A43F00103184790A300007A
:1001C000B0A300000A4410F8014B14F00F0508BF5B
:1001D00010F8015B240908BF10F8014B6D1E05D013
:1001E00010F8013B6D1E01F8013BF9D1641E03D0EC
:1001F000641E01F8015BFBD19142E4D3704700001B
:100200000023002400250026103A28BF78C1FBD81F
:10021000520728BF30C148BF0B607047642900F007
:100220003181752900F02E81782900F067817329CA
:1002300000F01F83002070471FB505F072F91FBD45
:1002400010B510BD00F057FB1146FFF7F5FF03F0A6
:1002500013FB00F075FB03B4FFF7F2FF03BC03F0E0
:100260009FF900000C48016841F4700101600B48DF
:1002700080470B480047FEE7FEE7FEE7FEE7FEE7A4
:10028000FEE7FEE7FEE7FEE7FEE700000548064959
:10029000044A064B7047000088ED00E08D320008EC
:1002A00089010008D8AD0120D8B10120D8AD0120C6
:1002B000704753EA020C00F069802DE9F04B4FF0D3
:1002C0000006002B1FBFB3FA83F503FA05F424FAE6
:1002D00005F65E4012BF1643B2FA82F502FA05F443
:1002E000C5F120051EBF22FA05FC44EA0C042035A6
:1002F00056EA044C4FEA144418BF641C4FF000083F
:100300004FF00009904271EB030C39D3002919BF5B
:10031000B1FA81F701FA07F6B0FA80F700FA07F6AA
:10032000C7F120071EBF20FA07FC46EA0C0620375B
:10033000B6FBF4FCA7EB0507103F07F01F0BCBF152
:1003400020062CFA06F60CFA0BFB44BFB346002637
:10035000202FA4BF5E464FF0000B5BEA060C08BFDF
:100360004FF0010B19EB0B0948EB0608ABFB027CC5
:1003700006FB02CC0BFB03CCC01B71EB0C01C1E7ED
:100380000B46024641464846BDE8F08B13B508438C
:1003900018BF4FF0FF300146AFF30080BDE81C40AE
:1003A000704700000FB4044910B503AA029800F08A
:1003B00065FA10BC5DF814FBB00200200FB41CB548
:1003C000074B06AA7B4469460090059800F027FA7F
:1003D0000020694600F036FA1CBC5DF814FB0000F2
:1003E0007D04000070B5044685690068C10601D52A
:1003F000302600E02026C00707D070BDD4E90121D7
:1004000030469047206A401C20626D1EF6D570BDB4
:1004100070B5044685690078C00707D170BDD4E97E
:10042000012120209047206A401C20626D1EF6D5D5
:1004300070BD70B50C460546012A05D028788006A7
:1004400000D5EA69002302E0012305E05B1C93422A
:1004500002D2E05C0028F9D1A869E618C01AA861A8
:10046000286A184428622846FFF7BCFF04E0D5E953
:10047000012114F8010B9047B442F8D32846FFF746
:10048000C7FF70BD2DE9F0410646002410687529AC
:10049000314616A510D0AFF30080002802DA4042A2
:1004A00013A507E031688A0701D512A502E04907C4
:1004B00004D511A5012401E0AFF3008000210A2238
:1004C00006F1240709E0B0FBF2FCB0FBF2F302FBFB
:1004D0001C00303078541846491C0028F3D12346BC
:1004E0002A463046BDE8F04100F03AB9000000006D
:1004F0002D0000002B0000002000000070B5044615
:100500000D4621461068AFF300802188090502D509
:100510000F4A7A4402E00E4A7A440E32002104F176
:10052000240305E000F00F060009965D5E54491CA7
:100530000028F7D120780023000704D5702D02D0C1
:1005400009B1022311322046BDE8704000F008B91D
:10055000265000002DE9F05F894604464FF0000A5E
:10056000DFF874B1FB44C0F820A02046E16888475A
:10057000002874D0252806D0D4E901219047206AAC
:10058000401C2062F1E700265F462046E16888476C
:100590002028054607DB312D05D2781910F8200CEC
:1005A00008B10643F1E7B00701D526F00406C4F808
:1005B0001CA00027C4F818A02A2D09D0284604F052
:1005C000A9FF38B304EB8708303DC8F8185019E08C
:1005D00059F8041B204604EB87029161E1688847C3
:1005E000012F054618D1E069002820DA26F0200600
:1005F0001DE0D8F8180000EB800005EB4000303813
:10060000C8F818002046E1688847054604F082FFD4
:100610000028EED1012F0AD02E2D08D12046E16806
:1006200088477F1C0546022F46F02006C4DBA069E0
:10063000002803DA404246F00106A061F00701D02D
:1006400026F010066C2D0BD0682D09D04C2D39D01A
:100650006A2D35D0742D35D07A2D33D016E038E0A0
:10066000E1682F4620468847B842054609D16C2FDD
:1006700026D04FF48060E16806432046884705464F
:1006800004E06C2F1AD04FF4807006430DB3A5F12F
:100690004100192802D8203546F400664A4629460A
:1006A000204626604E46FFF7B9FD80B101280BD0E9
:1006B000F61D26F0070000F1080956E74020E4E7A0
:1006C0008020D8E70020D6E706F104094DE7284648
:1006D00052E7206ABDE8F09FFC4F0000014903F09B
:1006E00051B80000B002002010B5044603E003F04A
:1006F00049F8401C09D014F8010B05490028F6D12F
:10070000BDE810400A2003F03DB84FF0FF3010BDA7
:10071000B00200204FF000020429C0F0128010F057
:10072000030C00F0BF80CCF1040CBCF1020F18BF29
:1007300000F8012BA8BF20F8022BA1EB0C0100F060
:10074000B1B85FEAC17C24BF00F8012B00F8012B8F
:1007500048BF00F8012B70477047704770477047DB
:100760002DE9F0470D4699469246044600F12408CB
:100770000168880604D5E06921F01001216000E0DD
:100780000120A84201DD471B00E00027A1697A197A
:1007900002EB0900081AA0612078C00602D42046A6
:1007A000FFF720FE002608E0D4E901211AF8060030
:1007B0009047206A401C761C20624E45F4DB20786E
:1007C000C0060AD52046FFF70DFE06E0D4E9012158
:1007D00030209047206A401C2062381EA7F1010794
:1007E000F4DC07E0D4E9012118F805009047206AFD
:1007F000401C2062281EA5F10105F3DC2046FFF70E
:1008000007FE2078000602D50220BDE8F08701200F
:10081000FBE7000001694A1C02610878704700B5D7
:100820008FB0CDE901310021059105497944CDE929
:10083000031011466846FFF78DFE0FB000BD0000A3
:10084000E5FFFFFF0A6802F8010B0A60704710B568
:10085000436913B1AFF3008001E0FFF7EAFD012027
:1008600010BD127800F124010A7000224A700122A2
:10087000EDE711684FF0FF32E9E70000074B70B574
:100880000D467B44FFF7CBFF0446284600F02FF8C7
:1008900010B14FF0FF3070BD204670BDFF2E00003C
:1008A0004FF0000200B5134694469646203922BF09
:1008B000A0E80C50A0E80C50B1F12001BFF4F7AF54
:1008C000090728BFA0E80C5048BF0CC05DF804EB36
:1008D000890028BF40F8042B08BF704748BF20F8A4
:1008E000022B11F0804F18BF00F8012B7047007BDE
:1008F00000F080007047754600F02CF8AE46050009
:100900006946534620F00700854618B020B5FFF72A
:10091000BDFCBDE820404FF000064FF000074FF04F
:1009200000084FF0000BAC46ACE8C009ACE8C009C9
:10093000ACE8C009ACE8C00921F007018D4670475A
:1009400010B50446AFF300802046BDE81040FFF725
:1009500082BC00000048704700020020FEE7000053
:1009600070470000B0B5B3F5804F034615D153F87A
:1009700022C00020CCF6F0700CEA000CD1E9000E89
:10098000D1E9024540EA0C0040EA0E10896940EACC
:10099000042040EA0540014301E06FF0704100206F
:1009A00043F82210B0BD00002DE9F043D1E9008CDE
:1009B000864601F11007D1E90209F0CF5EF8283030
:1009C0008022CFF6F0721A4042EA0C0242EA090293
:1009D00022432A4332430B6A3A434F6A1A438B6AD3
:1009E0003A43CF6A1A43CB6B3A43096B1A4311431C
:1009F000014308284FF0000008BF41F040014EF8C5
:100A00002810BDE8F0830000F0B500EB82025068CA
:100A1000D1E902E400F0404CD1E90030D1E90456BC
:100A200043EA0C03002743EA0010CFF6F07740EAD0
:100A30000E20896907EB055540EA04402843FE363D
:100A4000084340EA066100205160F0BD70B5866D34
:100A5000044600F03FF994F83510022928D10546E4
:100A60002068216C026822F016020260426922F0BE
:100A70008002426109B9A16C19B1016821F0080135
:100A80000160016821F00101016000BF2068006879
:100A9000C00714D000F01EF9401B0628F6D3202012
:100AA0006065002084F83400032084F8350070BDB0
:100AB00080206065002084F83400012070BDE06D66
:100AC0003F2101FA00F0B0600020012184F83400D9
:100AD00084F8351070BD000090F83510022909D156
:100AE000052180F835100068016821F001010160DE
:100AF0000020704780214165012070472DE9F04FAB
:100B000082B000F13E4241F6004502F1FF77C4F2A7
:100B10000205082243F6004E4FEAB726A84208BF56
:100B20000722C4F2010E072E38BF4FEAB722012573
:100B3000002700264FF00008009208E008F10108A5
:100B40000436B8F1100F07F1020700F0A4800C681A
:100B500005FA08F914EA090FF0D0D1F804C003220D
:100B60000CF0030BABF10104BA40012C6FEA020A4E
:100B700010D88268CC6802EA0A02BC402243826034
:100B80004268CCF3001422EA090204FA08F4224372
:100B9000426005E0BBF1030F02D14FF0030B20E0F0
:100BA000C2688C6802EA0A02BC402243BBF1020F11
:100BB000C26016D16FF0030202EA58020244D2F872
:100BC00020C006F01C050F230C69AB402CEA030380
:100BD00004FA05F52B431362D1F804C001250CF08B
:100BE000030B02680BFA07F302EA0A021A435FEAF0
:100BF000CC030260A2D5002243F644030192C4F262
:100C000002031A684FF6084C42F480421A601A68D0
:100C1000CFF6FF7C02F480420192019A28F0030291
:100C2000724452F80C3006F00C050F24AC40A3437C
:100C3000009C04FA05F52B4342F80C30DEF8002046
:100C40004B6842EA0905DC0358BF22EA0905CEF8E1
:100C50000050DEF804209C0342EA090558BF22EA4E
:100C60000905CEF80450DEF80820DC0242EA090546
:100C700043F60C4458BF22EA0905CEF80850C4F2E6
:100C8000010422689B0242EA090558BF22EA0905CD
:100C90002560012552E702B0BDE8F08F00690840E9
:100CA00018BF012070470000426902EA0103914326
:100CB00041EA034181617047002A08BF090481614C
:100CC0007047000042F20000CEF204000068000C01
:100CD000704700004AF6D050C2F201000068704729
:100CE00040F2D8104AF6D051C2F20000C2F201011F
:100CF00000780A68104408607047000080B543F629
:100D00000040C4F20200016841F400710160016812
:100D100041F480610160052000F072F80F2000F0BE
:100D200005F800F02BF8002080BD0000B0B540F2BF
:100D3000D812C2F2000240F218011278C2F2000189
:100D40004FF47A730968B3FBF2F20446B1FBF2F197
:100D5000084600F0CDFB0F2C4FF001050CD858B918
:100D60004FF0FF3021460022002500F01DF840F230
:100D7000DC10C2F2000004602846B0BD70470000DD
:100D8000002848BF7047C1B200F01F00012202FADC
:100D900000F04EF20012CEF2000242EAD10121F040
:100DA000030108607047000010B54EF60C5CCEF2EF
:100DB000000CDCF80030C3F3022E8EF00704042C84
:100DC00028BF0424BEF103034FF0FF3E0EFA04F4E3
:100DD00038BF0023A14399400EFA03F39A4311430D
:100DE00000F00F0200F160430901043A03F5644387
:100DF0006244002848BF02F10C03197010BD0000C6
:100E00004EF60C51CEF200010A684FF6FF031A406D
:100E100060F30A2242F0806040F0FD700860704785
:100E20002DE9F041002800F08B8043F60808C4F259
:100E300002080446D8F8F8030D4600F0070088427F
:100E400007D288F8F853D8F8F80300F00700A84252
:100E500076D12068810717D5410705D5D8F800104D
:100E600041F4E051C8F80010010705D5D8F800108A
:100E700041F46041C8F80010D8F80010A26821F0D1
:100E8000F0011143C8F80010C0073FD1D8F8F803AB
:100E900000F00700A84207D988F8F853D8F8F803FB
:100EA00000F00700A8424BD12068410707D5D8F8C9
:100EB0000010E26821F4E0511143C8F80010000767
:100EC00008D5D8F80000216920F4604040EAC1004C
:100ED000C8F8000000F07CF8D8F8001045F2755210
:100EE000C1F30311C0F60002515C40F2180220FA6F
:100EF00001F140F2DC10C2F200000068C2F2000210
:100F00001160FFF713FF0020BDE8F0816068811ECB
:100F1000022907D258F8081C89015CBF0120BDE8EE
:100F2000F08110E0012807D158F8081C89035CBF44
:100F30000120BDE8F08106E058F8081C890702D4BA
:100F40000120BDE8F081D8F8001021F0030108432A
:100F5000C8F80000FFF7BEFE064641F2883700BF22
:100F6000D8F80000616800F00C00B0EB810F8DD064
:100F7000FFF7B0FE801BB842F2D90320BDE8F08134
:100F800040F2180043F60801C2F20000C4F2020168
:100F90000068096845F28552C1F38221C0F600025B
:100FA000515CC8407047000040F2180043F6080149
:100FB000C2F20000C4F202010068096845F28552DD
:100FC000C1F34231C0F60002515CC84070470000D6
:100FD00010B543F60404C4F20204606800F00C018A
:100FE00042F200400829C0F2F40007D0042918BFDB
:100FF00010BD41F20020C0F27A0010BD216801F05E
:101000003F02216823684902C3F3881105D4A1FB7C
:1010100000010023FFF74DF906E041F20020C0F285
:101020007A004843B0FBF2F021680222C1F301418B
:1010300002EB4101B0FBF1F010BD00002DE9F041E1
:1010400082B0002868D00446007843F60006C00746
:10105000C4F202060BD0B06800F00C00042840F087
:101060009C803068800302D56068002854D02078C6
:1010700080071AD5B06810F00C0F09D0B06800F0E6
:101080000C00082840F0A3807068400200F19F80A7
:101090003068800702D5E06801283DD130682169B9
:1010A00020F0F80040EAC10030602078000737D413
:1010B000207840074BD4A56955B3B06800F00C0008
:1010C000082840F0B780012D26D07068E16900F44F
:1010D00080028A4220D1216A00F03F028A421BD15D
:1010E00047F6C071626A0140B1EB821F14D1A16A58
:1010F0004FF6FF73C903994300F44032A1F58031E4
:101100008A4209D1E16A00F07060B0EB016F03D14F
:10111000002002B0BDE8F081012002B0BDE8F081FE
:101120006069002840F20000C4F2472072D001211B
:10113000C0F8801EFFF7CEFD054600BF706F800728
:10114000B6D4FFF7C7FD401B0228F7D9D7E0306CB3
:1011500010F080580AD100200190306C40F080508F
:101160003064306C00F080500190019847F2000725
:10117000C4F200073868C0053ED4386840F4807077
:101180003860FFF7A7FD05463868C00534D4FFF77F
:10119000A1FD401B0228F7D9B1E0B06800F00C00B7
:1011A000082803D1706840023FF55BAF6068B0F576
:1011B000803F07D0B0F5A02F40F08B80306840F41E
:1011C00080203060306840F4803030608BE0E06830
:1011D000002851D00020C4F2472001210160FFF710
:1011E00079FD0546306880073FF558AFFFF772FD7F
:1011F000401B0228F6D982E0A068012805D0052806
:101200004ED1306F40F004003067306F40F0010085
:1012100030674FE00021C0F8801EFFF75BFD0546F8
:10122000706F80077FF544AFFFF754FD401B022825
:10123000F6D964E00027C4F2472700203866FFF79C
:1012400049FD022D05460BD1306880015BD5FFF7C3
:1012500041FD401B02284FF00300F5D959E700BFBC
:10126000306880017FF554AFFFF734FD401B022842
:101270004FF00300F4D94CE70020C4F247200021CE
:101280000160FFF727FD0546306880077FF50DAF49
:10129000FFF720FD401B02284FF00300F4D938E788
:1012A000316F002821F001013167316F21F0040115
:1012B000316749D0FFF70EFD054641F2883700BF80
:1012C000306F800751D4FFF705FD401BB842F7D9B6
:1012D00015E03168002821F480313160316821F453
:1012E000802131604AD0FFF7F5FC05463068800365
:1012F0003FF5BDAEFFF7EEFC401B6428F6D9032096
:1013000002B0BDE8F08104F11C052FCD084340EA8E
:101310008210D9034FF6FF729143A1F5803140EA64
:1013200005600843706001203866FFF7D3FC04466F
:10133000306880013FF5ECAEFFF7CCFC001B0228C3
:101340004FF00300F4D9E4E6FFF7C4FC054641F290
:10135000883700BF306F800707D5FFF7BBFC401B05
:10136000B8424FF00300F5D9D3E6B8F1000F7FF48F
:10137000A2AE306C20F0805030649CE6FFF7AAFCEF
:10138000054600BF306880037FF571AEFFF7A2FC11
:10139000401B64284FF00300F4D9BAE6002804BFCC
:1013A0000120704770B5044690F8490015460E4676
:1013B00028B9002084F84800204600F01BF8206877
:1013C00004F10801FFF7F0FA2068A2683146FFF740
:1013D0001BFBD4E90102236B2946FFF7C3FA2068FF
:1013E000A16850F8212042F0010240F8212000209D
:1013F00070BD000070B586B0002143F63000019149
:10140000C4F20200826840F6004442F001028260A9
:101410008268C4F2020402F001020192019A019171
:10142000026801AD42F008020260026802F00802A0
:101430000192019A0191026842F010020260026872
:1014400002F010020192019A0191026842F020021A
:101450000260026802F020020192019A0191016883
:1014600041F0400101600068294600F04000019011
:1014700001984CF2337001900220029001200390F9
:10148000032004900C2005902046FFF737FB4FF611
:101490008070019004F580602946FFF72FFB4FF420
:1014A000805604F5006029460196FFF727FB04F5F6
:1014B000406029460196FFF721FB02A0FFF714F9CF
:1014C00006B070BD48414C5F5352414D5F4D737043
:1014D000496E69743A2046534D43204750494F7333
:1014E00020436F6E666967757265642E0D0000009B
:1014F000411E0020B0EB116F1CBF012070474EF25F
:101500001002CEF2000251604EF62351CEF20001DD
:10151000F0230B700721906011607047002804BF12
:101520000120704710B5044690F83D0028B900200E
:1015300084F83C00204600F01FF8022084F83D00AB
:101540002068211D01F0C6FE012084F8460084F8C1
:101550003E0084F83F0084F8400084F8410084F89D
:10156000420084F8430084F8440084F8450084F87D
:101570003D00002010BD00007047000090F83D10B5
:1015800001291CBF01207047022180F83D1000682E
:1015900041F2FF72C168C4F20002904241F00101C1
:1015A000C1600DDC40F2FF71C4F20001884215DC1D
:1015B000B0F1804F29D040F20041C4F2000122E096
:1015C00040F2FF31C4F20101884212DC41F6000111
:1015D000C4F20001884218D0002112E040F6000158
:1015E000C4F20001884210D040F60041C4F200016C
:1015F00009E044F20001C4F20101884205D040F242
:101600000041C4F20101884206D1816801F007015E
:10161000062904BF00207047016841F00101016004
:10162000002070477047000070470000B0B582B0DE
:10163000026805461068D368546900F02F0120291C
:1016400003F0200106D129B1284602B0BDE8B04020
:1016500001F0D8BE5FEA007C1EBF04F0010E03F467
:10166000907414EB0E0453D1296B012905D110F0AD
:10167000100118BF13F0100136D1010622D513F066
:1016800080011FD095F83D0021283FD1A868B0F512
:10169000805F03D12869002800F0F780286A411C88
:1016A000296200785060E88C01380104E8842DD16B
:1016B000D06820F08000D060D06840F04000D0605A
:1016C00002B0B0BD400621D513F040001ED0D06856
:1016D000202120F04000D060284685F83D1002B05F
:1016E000BDE8B04000F0CAB9002001901068019038
:1016F0005068019001985069400611D4A88DE98D79
:10170000EB8D002B18BF884240F0A68002B0B0BD20
:10171000C40718BF13F480732DD1430731D437E0C9
:10172000A86B01684B689CB2002CEFD0A98D8C424D
:10173000ECD2EB85C369B3F5807F17D0D16821F473
:101740008071D160516921F001015161516921F02D
:1017500040015161202185F83E1000212963D168A4
:1017600021F01001D160FFF771F9A98DE88D081AF9
:1017700081B2284684E02B6C43F001032B644307BD
:1017800006D5BEF1000F03D02B6C43F002032B648F
:10179000830706D5BEF1000F03D02B6C43F0040382
:1017A0002B64BCF1000F09D541EA0E03B3FA83F3B1
:1017B0005B0903D12B6C43F008032B642B6C002BCB
:1017C000A4D010F0200018BF002903D0284601F053
:1017D00019FE2A685069296C00F0400001F00801E8
:1017E00040182CD0D06820F49070D060506920F060
:1017F00001005061286B012803D1D06820F010004F
:10180000D060202085F83E00002028635069400603
:101810001CD5506920F040005061A86BB0B143F274
:10182000F931C0F600010165FFF756F900283FF4D1
:101830006DAFA86B016D02B0BDE8B0400847284607
:10184000FFF7F2FE0020286402B0B0BD284602B0C7
:10185000BDE8B040FFF7E8BED368401A23F49073A8
:10186000D360536981B223F001035361202385F8CB
:101870003E3000232B63D368284623F01003D36047
:1018800002B0BDE8B040FFF7CDBE286A30F8021BB9
:101890006FF35F215160286205E70000002804BF54
:1018A0000120704710B5044690F83D0028B900208B
:1018B00084F83C00204600F021F8242084F83D0004
:1018C0002068C16821F40051C160204601F0EAFDA2
:1018D0002068016921F490410161416921F02A01E8
:1018E0004161C16841F40051C160002020212064A1
:1018F00084F83D1084F83E1010BD000070B586B02D
:101900000024C4F202040068A4F57041884201D0AA
:1019100006B070BD002043F630010190C4F2020110
:101920004A6901AD42F010024A614A69072602F095
:1019300010020192019A01900A6842F001020A60C5
:101940000A6802F001020192019A0190086840F0D1
:10195000010008600868012100F001000190019871
:101960004FF40070019002200290CDE90310204650
:1019700029460596FFF7C2F84FF480600190204693
:1019800029460596FFF7BAF82520FFF7F9F9252033
:1019900003210322FFF708FA06B070BD034690F852
:1019A0003E0020280AD100294FF0010018BF002A6C
:1019B00000D1704793F83C00012801D10220704704
:1019C00000201863996222219A85DA85186483F8C9
:1019D0003E10196883F83C00CA6842F48072CA60FD
:1019E0004A6942F001024A61CA6842F02002CA60B4
:1019F0007047000080B5006841F20001C4F20101A7
:101A0000884218BF80BD40F2604EC2F2000EBEF99F
:101A10000010002924D440F20832C2F2000289B238
:101A200013784A0404D40D2B0CD141F4804215E004
:101A300048F2000C0022CFF6FF7C0A2B08BF41EAD7
:101A40000C020BE00A4640F298306FF39F32C2F26C
:101A5000000083544A1CC62988BF0022AEF800202B
:101A600040F2543040F20831C2F20000C2F20001EC
:101A70000122BDE88040FFF791BF000070470000E1
:101A8000FEE70000F0B581B040F26445C2F2000507
:101A90002A886B880446802600200021C6F600466E
:101AA00003FB02F701F04EF9288926F8020CAFB1CA
:101AB000781E032807F0030008D327F0030100BFB6
:101AC00004393480348034803480F9D130B1012835
:101AD000348003D00228348018BF34802A886B8871
:101AE0004AF26930C0F60000214601B0BDE8F0407E
:101AF000FEF758BC2DE9F04F83B005460C46111A8D
:101B0000B2EB050C18BF4FF0FF3C00298E4648BFD2
:101B1000C1F1000E0129A3EB04004FF00102A8BFA0
:101B20009446191B18BF4FF0FF310028074648BFE5
:101B3000474201283846B8BF0A46BE4588BF7046AE
:101B400002900130019040F26440C2F2000003882C
:101B5000B0F802804FF000094FF0000B4FF0000A80
:101B6000009715E0029E0BEB0E0009EB0701B0EBAE
:101B7000060BD4BF83466544B1EB0609D4BF894642
:101B800014440AF1010A01991FFA8AF0814224D310
:101B9000A8B299B28142E5D9A1B21FFA88F68E4265
:101BA000E0D966461746F04601F04EF8B44640F2DA
:101BB0006446C2F2000630897E21C6F600413A46EC
:101BC000009F088040F20800C2F200000068C6468C
:101BD00048803388B6F80280C4E703B0BDE8F08FD0
:101BE00010B540F26444C2F200042288824210D947
:101BF00062888A4298BF10BD01F026F820897E21B4
:101C0000C6F60041088040F20800C2F200000068F9
:101C1000488010BD2DE9F04F87B08046101AB2EB16
:101C200008090493019218BF4FF0FF39002882463B
:101C300048BFC0F1000A01280AF10100A8BF4FF017
:101C40000109069040F26440C2F200000288438815
:101C50000D4600244746002609E000BF002C0CBFBB
:101C600054444F4401360699B0B281421BD3B8B2F6
:101C700091B28142F2D999B2A942EFD9294600F036
:101C8000E3FF40F26443C2F2000318897E21C6F6E6
:101C90000041088040F20800C2F20000006848805D
:101CA0001A885B88DAE704990024481BB1EB050B1E
:101CB00018BF4FF0FF3B0028014648BF41420128B2
:101CC00001F101002F464FF00006A8BF4FF0010BB5
:101CD000039105900AE000BF002C03980CBF044458
:101CE0005F4401360599B0B281421BD390B24045A2
:101CF000F2D9B9B298B28842EED9404600F0A4FFBA
:101D000040F26443C2F2000318897E21C6F6004106
:101D1000088040F20800C2F20000006848801A887B
:101D20005B88D9E7CDF808B0DDF804B0049F002443
:101D3000002608E0002C0CBF5444C8440136069924
:101D4000B0B281421CD31FFA88F091B28142F1D91E
:101D500099B2B942EED9049900F076FF40F264439B
:101D6000C2F2000318897E21C6F60041088040F2C5
:101D70000800C2F20000006848801A885B88D9E732
:101D8000039F002400260AE0002C08BF3C44029870
:101D900018BF054401360599B0B281421BD390B2F9
:101DA0005845F1D9A9B298B28842EDD9584600F009
:101DB0004BFF40F26443C2F2000318897E21C6F64D
:101DC0000041088040F20800C2F20000006848802C
:101DD0001A885B88D8E707B0BDE8F08F2DE9F04F8F
:101DE00083B08B4640F2644102900320C2F20001AE
:101DF0001446A0EB420608884A884FF0FF394FF09E
:101E00000A080FE0F343A8EB840104EBE374002E0F
:101E100008F1040358BF01F104084644A14598465F
:101E200080F2FC80029909F1010949448FB281B224
:101E3000B942ABEB0401019117D989B293B28B423D
:101E400013D9384600F000FF40F26442C2F20002AB
:101E500010897E21C6F60041088040F20800C2F2D7
:101E600000000068488010885288029921448DB291
:101E700081B2A942ABEB0901009117D989B293B2A3
:101E80008B4213D9284600F0DFFE40F26442C2F2D2
:101E9000000210897E21C6F60041088040F2080049
:101EA000C2F20000006848801088528881B2A942BE
:101EB000DA46CB4418D91FFA8BF193B28B4213D96F
:101EC000284600F0C1FE40F26442C2F200021089CE
:101ED0007E21C6F60041088040F20800C2F20000F0
:101EE000006848801088528881B2B94204EB0A0524
:101EF00017D9A9B293B28B4213D9384600F0A4FE89
:101F000040F26442C2F2000210897E21C6F600410E
:101F1000088040F20800C2F2000000684880108883
:101F200052880299A1EB09018FB281B2B94217D947
:101F3000A9B293B28B4213D9384600F085FE40F225
:101F40006442C2F2000210897E21C6F60041088078
:101F500040F20800C2F200000068488010885288F1
:101F60000299091B8DB281B2A9421BD91FFA8BF1CC
:101F700093B28B42D34616D9284600F065FE40F254
:101F80006442C2F2000210897E21C6F60041088038
:101F900040F20800C2F200000068488010885288B1
:101FA00001E000BFD34681B2B94218D9019993B27A
:101FB00089B28B4213D9384600F046FE40F26442A3
:101FC000C2F2000210897E21C6F60041088040F26C
:101FD0000800C2F20000006848801088528881B270
:101FE000A9427FF60FAF009993B289B28B427FF678
:101FF00009AF284600F028FE40F26442C2F2000217
:1020000010897E21C6F60041088040F20800C2F225
:1020100000000068488010885288F3E603B0BDE8ED
:10202000F08F000070B581B040F2644EC2F2000E35
:102030009446BEF80020824277D9BEF802308B4227
:1020400073D9BEF80A40ADF80240BDF80240ADF8C1
:102050000240BDF802508024C6F6004424F8025C19
:10206000050AADF80250BDF80260C0B2ADF80260DA
:10207000BDF802602680ADF80200BDF80260ADF840
:102080000260BDF802602680ADF80250BDF8025033
:10209000ADF80250BDF802502580ADF80200BDF841
:1020A0000200ADF80200BDF802002080BEF80C006E
:1020B000ADF80200BDF80200ADF80200BDF8020064
:1020C00024F8020C080AADF80200BDF80250C9B2AB
:1020D000ADF80250BDF802502580ADF80210BDF8F1
:1020E0000250ADF80250BDF802502580ADF8020054
:1020F000BDF80200ADF80200BDF802002080ADF886
:102100000210BDF802000021ADF80200BDF8020087
:102110002080BEF8080024F8020C0020A4F800C0BB
:1021200001B0BDE8704000F00DBE01B070BD000010
:102130002DE9F04F83B040F2644AC2F2000ABAF8C7
:102140000070874253D90D46994250D804469042B8
:102150004DD8BAF80200A84249D9974298BF7A1ED2
:10216000984298BF431E1FFA82F81FFA83F9A8EB22
:102170000400A9EB05010130013101FB00FBBBF1BB
:10218000000F34D00C9E802782B28BB220462946A5
:10219000C6F6004700F0D6FDBAF8080027F8020C92
:1021A000ABF1010003280BF0030007D32BF0030170
:1021B00004393E803E803E803E80F9D130B1012816
:1021C0003E8003D002283E8018BF3E80BAF800202F
:1021D000BAF802300020002100F0B4FD05A021462D
:1021E0002A464346CDF800900196FEF7DBF803B08F
:1021F000BDE8F08F46696C6C65642072656374613C
:102200006E676C65202825642C25642920746F2056
:102210002825642C256429207769746820636F6CF5
:102220006F7220307825582E0D0A00002DE9F04FEE
:1022300095B0002743F630000897C4F20200016809
:1022400040F21C1541F002010160006848F2BC2414
:1022500000F00200089008984FF400400F90012011
:10226000CDE910000320129040F20040C4F20200B9
:102270000FA9CAF20005C4F24024FEF73FFC0FF29A
:102280003C702760FEF730FA40F26020C2F2000096
:102290004FF02041A5F11802062380E88E004FF48C
:1022A0008051C0E909713C210A9109214FF4804213
:1022B000CDE90117112110244FF48013C0E90B72EE
:1022C0004FF00F09039108A901AAC0E90474C0E9FD
:1022D0000677C0E90D77C363CDE908970E97049799
:1022E0000797FFF75BF820B10FF2FC60FEF7FCF9EF
:1022F000FEE780263220C6F6004601F0EFF9D32033
:10230000ADF85200BDF8520040F2644BADF85200F7
:10231000BDF85200C2F2000B26F8020C308849F2D8
:102320008641ADF85200BDF852003088ADF8520039
:10233000BDF852003088ADF85200BDF85200308828
:10234000ADF85200BDF8520049F28640ABF80400E7
:10235000286820F00F002860286820F4706028604A
:10236000286840F003002860286840F40070286066
:102370000FF29C60FEF716F84AF25640C0F60000D5
:10238000FEF7B2F9F220ADF85200BDF852004FF05E
:10239000020AADF85200BDF85200042526F8020CDE
:1023A0001820ADF85200BDF852004FF00808ADF803
:1023B0005200BDF852003080A320ADF85200BDF8A5
:1023C0005200ADF85200BDF8520030801220ADF836
:1023D0005200BDF85210ADF85210BDF852103180C5
:1023E000ADF852A0BDF85210ADF85210BDF8521021
:1023F0003180B221ADF85210BDF85210ADF8521034
:10240000BDF852103180ADF85200BDF85200ADF861
:102410005200BDF852003080FF20ADF85200BDF8E8
:102420005200ADF85200BDF852003080ADF8524075
:10243000BDF85200ADF85200BDF852003080ADF842
:102440005270BDF85200ADF85200BDF85200308015
:10245000F820ADF85200BDF85200ADF85200BDF8BA
:10246000520026F8020C2120ADF85200BDF85200AF
:10247000ADF85200BDF852003080ADF85250BDF8B2
:102480005200ADF85200BDF852003080F920ADF88E
:102490005200BDF85200ADF85200BDF8520026F8C7
:1024A000020CADF85270BDF85200ADF85200BDF804
:1024B00052003080ADF85280BDF85200ADF85200A5
:1024C000BDF8520030803620ADF85200BDF8520001
:1024D000ADF85200BDF8520026F8020CADF852805B
:1024E000BDF85200ADF85200BDF8520030804AF2FB
:1024F0008040C0F60000FEF7F7F83A20ADF8520031
:10250000BDF852000524ADF85200BDF8520026F87F
:10251000020C0520ADF85200BDF85200ADF8520093
:10252000BDF8520030804AF20D40C0F60000FEF7C0
:10253000DBF8B420ADF85200BDF85200ADF85200FF
:10254000BDF8520026F8020C0120ADF85200BDF88B
:102550005200ADF85200BDF852003080B620ADF800
:102560005200BDF85200ADF85200BDF8520026F8F6
:10257000020CADF852A0BDF85200ADF85200BDF803
:10258000520030802220ADF85200BDF85200ADF864
:102590005200BDF852003080C120ADF85200BDF8A5
:1025A0005200ADF85200BDF8520026F8020C41204E
:1025B000ADF85200BDF85200ADF85200BDF852001F
:1025C0003080C520ADF85200BDF85200ADF8520081
:1025D000BDF8520026F8020CADF85270BDF852005A
:1025E000ADF85200BDF8520030800720ADF852001F
:1025F000BDF85200ADF85200BDF852003080E02026
:10260000ADF85200BDF85200ADF85200BDF85200CE
:1026100026F8020CADF85290BDF85200ADF8520009
:10262000BDF8520030801F20ADF85200BDF85200B6
:10263000ADF85200BDF8520030801C20ADF85200B9
:10264000BDF85200ADF85200BDF8520030800C20A9
:10265000ADF85200BDF85200ADF85200BDF852007E
:102660003080ADF85290BDF85200ADF85200BDF880
:1026700052003080ADF85280BDF85200ADF85200E3
:10268000BDF8520030804820ADF85200BDF852002D
:10269000ADF85200BDF8520030809820ADF85200DD
:1026A000BDF85200ADF85200BDF85200308037201E
:1026B000ADF85200BDF85210ADF85210BDF85210EE
:1026C00031800A21ADF85210BDF85210ADF8521009
:1026D000BDF8521031801321ADF85210BDF85210E0
:1026E000ADF85210BDF852103180ADF85250BDF81F
:1026F00052101125ADF85210BDF852103180ADF8CE
:102700005250BDF85210ADF85210BDF85210318041
:102710000D21ADF85210BDF85220ADF85220BDF891
:1027200052203280ADF85270BDF85220ADF85220E0
:10273000BDF852203280E122ADF85220BDF852207F
:10274000ADF85220BDF8522026F8022CADF8529078
:10275000BDF85220ADF85220BDF85220328032220E
:10276000ADF85220BDF85220ADF85220BDF85220ED
:1027700032802E22ADF85220BDF85220ADF8522002
:10278000BDF8522032800B22ADF85220BDF8522005
:10279000ADF85220BDF852203280ADF85210BDF88D
:1027A0005210ADF85210BDF852103180ADF85240C1
:1027B000BDF85210ADF85210BDF8521031804721CB
:1027C000ADF85210BDF85210ADF85210BDF85210CD
:1027D00031807521ADF85210BDF85210ADF852108D
:1027E000BDF852103180ADF85200BDF85200ADF87E
:1027F0005200BDF8520030800620ADF85200BDF8FE
:102800005200ADF85200BDF8520030801020ADF8F3
:102810005200BDF85200ADF85200BDF852003080B1
:102820000320ADF85200BDF85200ADF85200BDF8DB
:10283000520030802420ADF85200BDF85200ADF8AF
:102840005200BDF8520030802020ADF85200BDF893
:102850005200ADF85200BDF852003080ADF8527011
:10286000BDF85200ADF85200BDF8520030804AF277
:102870000850C0F60000FDF737FFADF85250BDF824
:102880005200ADF85200BDF8520026F8020C782034
:1028900000F024FF4AF2F530C0F60000FDF724FFF7
:1028A0002920ADF85200BDF85200ADF85200BDF835
:1028B000520026F8020C4AF23D40C0F60000FDF737
:1028C00013FF4AF29630C0F600000021FDF76AFDC2
:1028D00040F24010C0F2E010CBF800002C20C0F213
:1028E0002A00CBF808002B20ABF80C0000208BF856
:1028F000067000F0E3F8BBF80020BBF802300020BF
:10290000002100F01FFABBF80010BBF802204AF2C9
:10291000C330C0F60000FDF745FD4AF2DA40C0F6CC
:102920000000FDF7E1FE48F2BC20C4F24020012186
:1029300001603AA0FDF7D8FEBBF80020BBF80230DA
:102940000020002103FB02F500F0FCF9BBF80800B1
:1029500026F8020CB5B1691E4FF6FF70032905F089
:10296000030107D325F00302043A30803080308021
:102970003080F9D131B10129308003D00229308073
:1029800018BF3080BBF80020BBF802304AF2693033
:10299000C0F600004FF6FF71FDF704FD4AF2295022
:1029A000C0F60000FDF7A0FE4AF2AC40C0F6000001
:1029B000FDF79AFE15B0BDE8F08F00BF4C43445FB1
:1029C000496E69743A205374617274696E67204C61
:1029D000434420496E697469616C697A6174696FF6
:1029E0006E2E2E2E0D00000048414C5F5352414D7B
:1029F0005F496E6974204641494C4544212050721C
:102A00006F6772616D2068616C7465642E0D0000E3
:102A10004C43442049443A25780D0A004C43445F16
:102A20004C45442073657420746F20484947482002
:102A3000284261636B6C69676874204F4E292E0DC4
:102A40000000000080B582B040F2644CC2F2000C7D
:102A5000BCF80030024683424FF000002BD9BCF88E
:102A600002308B4227D9104600F0EEF82E20ADF848
:102A70000000BDF800008021ADF80000BDF80000A6
:102A8000C6F6004121F8020C0888ADF80200BDF836
:102A900002000888ADF80400BDF80400098800F4BD
:102AA0007842ADF80610BDF8061000F0FC0042EACE
:102AB000C00040EAD12002B080BD000070B582B0F5
:102AC00084468020ACF1010340F26442C6F6004027
:102AD000062BC2F2000208D82821DFE803F0040820
:102AE0000A1A15171900882104E0082102E048217C
:102AF00000E0C821362320F8023C01801388B2F898
:102B000002E0734514D90DE0682102E0A82100E03D
:102B1000E821362320F8023C01801388B2F802E055
:102B2000734505D27446A2F800E053809E462346C2
:102B30005489ADF80640BDF80640ADF80640BDF832
:102B4000064020F8024C0024ADF80640BDF80650BF
:102B5000ADF80650BDF806500580ADF80640BDF84A
:102B60000650ADF80650BDF8065005805D1E2E0AD1
:102B7000ADF80660BDF80660EDB2ADF80660BDF8D0
:102B800006600680ADF80650BDF80650ADF8065058
:102B9000BDF8065005809289ADF80620BDF80620E4
:102BA000ADF80620BDF8062020F8022CADF806404E
:102BB000BDF80620ADF80620BDF806200280ADF86D
:102BC0000640BDF80620ADF80620BDF806200280BC
:102BD000AEF10102140AADF80640BDF80640D2B2CB
:102BE000ADF80640BDF806400480ADF80620BDF8FB
:102BF0000620ADF80620BDF80620028003A062463C
:102C0000CDF800E0FDF7CEFB02B070BD5363616EFE
:102C10005F4469723A2030783336207365742074CB
:102C20006F203078255820286469723D2564292C4E
:102C30002043757272656E7420573A48203D2025F6
:102C4000643A25642E0D0A0010B581B040F2644E3E
:102C5000C2F2000EBEF80030834271D9BEF802C045
:102C60008C456DD9BEF80A20ADF80220BDF80220CF
:102C7000ADF80220BDF802408022C6F6004222F8DC
:102C8000024C040AADF80240BDF80240C0B2ADF8F3
:102C90000240BDF802401480ADF80200BDF8020009
:102CA000ADF80200BDF802001080581E030AADF80E
:102CB0000230BDF80230C0B2ADF80230BDF80230CB
:102CC0001380ADF80200BDF80200ADF80200BDF8B7
:102CD00002001080BEF80C00ADF80200BDF8020042
:102CE000ADF80200BDF8020022F8020C080AADF8A7
:102CF0000200BDF80200ADF80200BDF8020010802D
:102D0000C8B2ADF80200BDF80200ADF80200BDF88F
:102D100002001080ACF10100010AADF80210BDF80C
:102D20000210C0B2ADF80210BDF802101180ADF86B
:102D30000200BDF80200ADF80200BDF802001080EC
:102D400001B010BD2DE9F04181B040F2644EC2F2F5
:102D5000000EBEF80050854216D9BEF802608E42C1
:102D600012D9CC18A4F1010C8418013CA7B21FFAA7
:102D70008CF8AF4228BF6C1EB04528BFA6F1010CED
:102D8000002A18BF002B02D101B0BDE8F081A5B226
:102D90008542F9D31FFA8CF38B42F5D3BEF80A2093
:102DA000ADF80220BDF80220ADF80220BDF80260A7
:102DB0008022C6F6004222F8026C060AADF80260D4
:102DC000BDF80260C0B2ADF80260BDF802601680C6
:102DD000ADF80200BDF80200ADF80200BDF8020037
:102DE0001080280AADF80200BDF80200ADF802001C
:102DF000BDF802001080E0B2ADF80200BDF802009C
:102E0000ADF80200BDF802001080BEF80C00ADF86D
:102E10000200BDF80200ADF80200BDF8020022F881
:102E2000020C080AADF80200BDF80200ADF802007D
:102E3000BDF802001080C8B2ADF80200BDF8020073
:102E4000ADF80200BDF802001080180AADF80200CB
:102E5000BDF80200ADF80200BDF8020010805FFA74
:102E60008CF0ADF80200BDF80200ADF80200BDF82C
:102E70000200108001B0BDE8F08100002DE9F04FA4
:102E800089B00C46A2F17F01C9B2A1292CD340F22E
:102E90006448C2F20008B8F800100546814223D900
:102EA000B8F80270A7421FD9580846198E421BD89D
:102EB0001919B94218D8DE0801215F0718BF01EBC4
:102EC000D30670430896069070B1A3F10C00C1B20E
:102ED000800140EA9100C0B20528079004D8079904
:102EE0002B20C840C00702D109B0BDE8F08FA2F185
:102EF0002000C2B2002045F6F171059002EBC2003D
:102F0000C0F6000101EB8000039045F60120C0F6F9
:102F1000000000EB0210029046F64D50C0F6000093
:102F200000EBC21004920190079803280DD0059B76
:102F300001280DD070B9049845F28D5100EB400086
:102F4000C0F6000101EB800005E0059B039802E05C
:102F5000029800E00198089A1844B3FBF2F190F847
:102F600000A001FB123001EB050BC6004FF0000979
:102F7000082713E0002A40F20402C2F2000240F2E5
:102F80000803C2F2000348BF1A461268FFF74AF866
:102F90004FEA4A0A013F09F1010915D0B8F80010BB
:102FA0001FFA8BF088429FD209EB04013144B8F834
:102FB000022089B2914297D24FFA8AF2002AD9D4DC
:102FC000129B002BE4D1D5E7059906980131814287
:102FD0000591A9D188E700002DE9F04F87B0002BBB
:102FE000069105907BD010981C4640080490981ECE
:102FF000019058421746591E5FFA80F842F2107B42
:103000004FF0000900264FF0000A002503910292BC
:1030100014E000BF0126DDE90421109B09FB021129
:1030200040F0300288B20699D2B20095FFF726FF31
:1030300009F10109A1450AF1010A50D06FEA0A001D
:10304000C0B2404502D101202AE000BF01996FEAD9
:103050000900A1EB0901C9B2032900EB040101D267
:10306000012009E001F0FC02002301200433DFB25B
:10307000974200FB0BF0F9D1029F11F003010FD032
:10308000012903D100EB8000400009E04FF47A727F
:10309000424302294FF0640108BF00FB01F21046D1
:1030A000B7FBF0F04CF6CD41CCF6CC41A0FB0112C1
:1030B000D10801EB8101002EA0EB4100ABD10399B7
:1030C0004945A8DD0028A5D1DDE90410002609FB4B
:1030D00001000699109B80B220220096A6E707B057
:1030E000BDE8F08F2DE9F04F83B00D9F0C463E7880
:1030F000A6F12001C9B25E2928D80C9D8046104453
:1031000019196A0801371FFA80F91FFA81FBC246B4
:10311000029200BF1FFA8AF0484528BF2C44A1B292
:10312000594513D2484528BFC2461FFA8AF0F2B269
:103130002B4600260096FFF7A1FE17F8016BA6F1BB
:103140002000C0B25F2802988244E3D303B0BDE8F8
:10315000F08F00002DE9F04F87B0002B059106900D
:1031600000F08680DDE910101C4600F00109981E71
:103170000190584215465A1E49084FF000085FFA60
:1031800080FA42F2107B00270026039204910295F8
:1031900015E000BF01270699049A109B08FB021155
:1031A00040F0300288B20599D2B2CDF80090FFF716
:1031B00065FE08F10108A04506F1010658D0F0436C
:1031C000C0B2504502D101202AE000BF01996FEA48
:1031D0000800A1EB0801C9B2032900EB040101D2E8
:1031E000012009E001F0FC02002301200433DDB2DC
:1031F000954200FB0BF0F9D1029D11F003010FD0B5
:10320000012903D100EB8000400009E04FF47A72FD
:10321000424302294FF0640108BF00FB01F210464F
:10322000B5FBF0F04CF6CD41CCF6CC41A0FB011241
:10323000D10801EB8101002FA0EB4100ABD1039934
:103240004145A8DD0028A5D11198049A41B20698FD
:10325000B1F1FF3F08FB02000599109B80B2D4BF7B
:1032600030222022CDF80090FFF708FE0027A0E7CB
:1032700007B0BDE8F08F0000FEE7000070470000D7
:103280007047000070470000FDF72ABD4EF68850D9
:10329000CEF20000016841F4700101607047000047
:1032A00010B540F20C34C2F200042068C168C907AE
:1032B0000BD040F24000C2F2000000698047206855
:1032C000002141626421C162E1606FF0010101618E
:1032D00010BD000010B540F6FF3E0368C4F2000EBA
:1032E00040F2004C7045C4F2010C0FDCB0F1804F8D
:1032F00019D040F20042C4F20002904213D040F6CE
:103300000002C4F2000290420DD010E040F60042EC
:10331000C4F20002904206D0604504D00022C4F2FC
:103320000102904203D14A6823F07003134341F62F
:10333000FF72C4F2000290420DDC70451FDCB0F158
:10334000804F41D040F20042C4F2000290423BD094
:1033500040F6000221E043F6FF72C4F201029042FF
:1033600020DC42F20002C4F2000290422CD0002283
:10337000C4F20102904227D0604525D028E040F6F3
:103380000042C4F2000290421ED041F60002C4F294
:103390000002904218D041F60042C4F2000290426E
:1033A00012D015E044F20002C4F2010290420BD0A8
:1033B00044F60002C4F20102904205D044F20042F9
:1033C000C4F20102904203D1CA6823F4407313434C
:1033D00023F080024B69D1F800E08C681A43026048
:1033E000C46240F48062C0F828E0624504BF096905
:1033F00001630121416110BD806B0021C185C18441
:10340000FEF712B910B5044690F83E00222848D1C4
:10341000A2682146B2F5805F0CD151F8280F51F80F
:10342000182C8AB9216849686FF35F2120F8021BC4
:10343000A0620FE051F8280F0AB9226922B1226870
:10344000526802F07F0201E0226852680270086848
:1034500001300860E08D01380104E08518BF10BD1F
:103460002068C16821F02001C160C16821F4807129
:10347000C160416921F001014161202184F83E10C1
:10348000216B012908D1C16821F01001C160A18D13
:103490002046FEF7C7F802E02046FEF7ABFA002010
:1034A000206310BD10B504460068D4E902C2236948
:1034B000016921F4405111430161626943EA0C0141
:1034C000E3691143C268194349F20C639A431143FB
:1034D000C1604169A26921F4407141F20043114386
:1034E00040F48062C4F201039A42416102D1FDF7C7
:1034F0005BFD01E0FDF744FDE16963681922B1F568
:10350000004FA0FB020121D15A00DB0FFCF7D1FED6
:1035100048F21F51C5F2EB11A0FB01235A094FF6E7
:103520009C73C0F6FF7303F1805302FB0300322348
:1035300003EBC000A0FB01014FF4F87000EA11108A
:1035400000EB0210C1F3421108441DE09A009B0FEA
:10355000FCF7AFFE48F21F51C5F2EB11A0FB0123AF
:103560005A094FF69C73C0F6FF7302FB0300322327
:1035700003EB0010A0FB0101F02000EA511000EB6A
:103580000210C1F3431108442168886010BD000097
:1035900040F25430C2F20000FEF748B8FEE70000E7
:1035A0007047000080B5FDF7A9FB4FF4A870082113
:1035B0000222072301F02CFF4FF4E13001F088FFD5
:1035C000A82000F085F800F051F800F005F8BDE8FB
:1035D0008040FEF72BBE00002DE9F04186B00026AA
:1035E00043F630000196C4F20200016841F2000582
:1035F00041F0100101600168C4F2020501F0100100
:1036000001910199019601680DF1040841F0010151
:1036100001600068012400F0010001900198102071
:10362000CDE9010602272846414603940497FDF799
:1036300065FA0820CDE9010628464146CDE9034751
:10364000FDF75CFA0420CDE9010628464146CDE9A4
:103650000347FDF753FA01A8D0C0A5F580504146B5
:103660000497FDF74BFA06B0BDE8F081B0B586B01F
:103670000020019043F63000C4F20200016841F2DC
:10368000004441F0200101600068C4F2020400F02F
:103690002000019001984FF4007001900120CDE9C5
:1036A0000200032001AD049020462946FDF726FACA
:1036B0004FF48060019020462946FDF71FFA20460E
:1036C0004FF4C0610122FDF7F7FA06B0B0BD00006B
:1036D00040F20431C2F200010860704780B54EF23A
:1036E000180140F20432CEF20001C2F2000251F899
:1036F00004CC1268002350434FF47A7200FB02FEA0
:10370000086809E003449B1A904298BF63447345DC
:10371000104628BF80BD00BF0A689042F2D10A68F7
:103720009042EFD10A689042ECD10A689042F3D0FF
:10373000E8E7000080B54EF2180140F20432CEF204
:103740000001C2F2000251F804CC1268002302FB0F
:1037500000FE086808E003449B1A904298BF634447
:103760007345104628BF80BD0A689042F3D10A68AD
:103770009042F0D10A689042EDD10A689042F3D0AD
:10378000E9E7000041F20001C4F201010A685206B3
:1037900009D40A6852065CBF0A685FEA426202D432
:1037A0000A685206F2D5C2B24A60704770B541F25B
:1037B000000440F26246C4F20204C2F2000610B1F4
:1037C0000020307001E0307898BB20461021FDF7D2
:1037D00065FA80B120460821FDF760FA58B120460D
:1037E0000421FDF75BFA30B1A4F580500121FDF70B
:1037F00055FA01281DD10A20FFF770FF0125204648
:1038000010213570FDF74AFA60B320460821FDF714
:1038100045FA48B320460421FDF740FA30B3A4F539
:1038200080500121FDF73AFA012804BF042070BD41
:1038300017E020461021FDF731FA012811D120466A
:103840000821FDF72BFA01280BD120460421FDF7B2
:1038500025FA012805D1A4F580500121FDF71EFAB3
:1038600030B10025284670BD022070BD032070BD18
:1038700000252846357070BD88B0FFF793FE01F033
:103880001BFD542001F06CF800204FF0000800F000
:1038900075F9012000F072F9022000F06FF992A092
:1038A0004FF0100901901E206E21C8221023CDF880
:1038B0000090FFF717FC92A61E208221C822102339
:1038C000CDF800900196FFF70DFC93A63C20A021B7
:1038D000C8221023CDF800900196FFF703FC91A6B3
:1038E0001E20B021C8221023CDF800900196FFF7CA
:1038F000F9FB90A61E20C021C8221023CDF800900D
:103900000196FFF7EFFB8FA61E20D021C8221023BF
:10391000CDF800900196FFF7E5FB03AF00260024E9
:103920004FF0000A4CF6CD4B0020FFF73FFF042874
:103930001CD0022838D001283CD15FFA8AF04FF41D
:10394000006100F0EDF9002800F0C8805FFA88F20D
:1039500080A10646FCF732FDCDF800901E204FF402
:103960008271D1221023019619E000BF0AF1010AE9
:103970005FFA8AF040F20C01032888BF4FF0000A7A
:103980005FFA8AF0C2F20001254651F820403C203F
:10399000A021C822102301942C46CDF80090FFF7F7
:1039A000A1FBB44208D12FE05FFA8AF0314600F063
:1039B00053F90026B44227D038466CA13246FCF7B2
:1039C000FDFC1E20F021D1221023CDF8009001979C
:1039D000FFF788FB66B11E204FF482714FF48C72A2
:1039E0001023CDF800900196FFF77CFB34460BE0E6
:1039F0001E204FF482714FF48C72C8234FF6FF746F
:103A00000094FEF795FB00240A20FFF767FE08F1FB
:103A100001086FF0320008FB00F0C1B2890841EAEA
:103A20008010C0B20C283FF67FAF002000F0BEF837
:103A300081B201FB0BF1CA0C02EB82014AF25F3941
:103A4000A0EB4100C0F6000983B238464946102574
:103A5000FCF7B4FC8E20B021C822102300950197FA
:103A6000FFF740FB012000F0A1F881B201FB0BF150
:103A7000CA0C02EB8201A0EB410083B238464946F2
:103A8000FCF79CFC8E20C021C822102300950197D2
:103A9000FFF728FB022000F089F881B201FB0BF14F
:103AA000CA0C02EB8201A0EB410083B238464946C2
:103AB0004FF01009FCF782FC8E20D021C822102381
:103AC000CDF800900197FFF70DFB41F20040C4F2E2
:103AD00002004FF40071FDF7E7F825E70026B44235
:103AE0007FF46AAF90E700BF4B4559303A4D616CA7
:103AF0006C6F63202620575220262053686F770072
:103B00004B45595F55503A5352414D78204B4559DA
:103B1000313A467265650000205352414D494E20AE
:103B2000000000005352414D494E2020205553457E
:103B3000443A00005352414D43434D2020555345D4
:103B4000443A00005352414D4558202020555345DA
:103B5000443A00004D656D6F7279204D616C6C6F59
:103B60006320546573742530336400005020416431
:103B700064723A305825303858000000B0B5044619
:103B800049F6E840C0F6000050F8240040F21C0559
:103B90004100C2F2000504D005EB84004069FCF747
:103BA000B9FD2819012180F82010B0BDB0B549F643
:103BB000E841C0F6000140F21C0251F82010C2F2A8
:103BC000000202EB8000D0F814C00846012998BF1B
:103BD0000120421E032A00F0030E02D2002000231F
:103BE0001AE020F00302ACF108040020002300BF1B
:103BF00034F8085F0430002D658818BF0133002DAC
:103C0000A58818BF0133002DE58818BF0133002DAA
:103C100018BF01338242EBD1BEF1000F14D03CF843
:103C20001020002A18BF0133BEF1010F0CD00CEB9D
:103C300040004288002A18BF0133BEF1020F03D0B2
:103C40008088002818BF01334FF47A705843B0FBC6
:103C5000F1F080B2B0BD000010B500295AD040F29A
:103C60001C0CC2F2000C0CEB000393F82030002B6C
:103C700051D00CEB800349F6DC429B68C0F6000291
:103C800052F82020C91A8A4244D949F6D042C0F6D7
:103C9000000252F820200CEB8000B1FBF2F14069E9
:103CA00030F811E0BEF1000F34D0AEF101020EF099
:103CB000030C0023032A4FF0000218D32EF0030E4A
:103CC000002200BF541820F8143042F001040C44C4
:103CD00020F8143042F002040C4420F8143042F072
:103CE000030404320C44964520F81430EAD1BCF1A8
:103CF000000F08BF10BD0A440021BCF1010F20F8DD
:103D0000121007D000EB4200BCF1020F41801CBF33
:103D10000021818010BDDCF80010BDE8104008478C
:103D20002DE9F04381B040F21C06C2F200060446C1
:103D3000304490F820000D4610B93168204688477D
:103D4000002D4FF0000000F0848049F6D041C0F60D
:103D5000000151F824E006EB840CB5FBFEF101FBF9
:103D60001E52002A18BF01228B1849F6E841C0F6FE
:103D7000000151F824500CF11402691E6CD414682F
:103D800004EB450636F8026C002E4FF0000608BF23
:103D9000461C9E422AD0A91E5ED4146804EB45003E
:103DA00030F8040C00284FF0000008BF701C984247
:103DB0001CD0E91E50D4146804EB450636F8066C96
:103DC000002E4FF0000608BF461C9E420ED0291F51
:103DD00042D4146804EB450030F8080C0D46002866
:103DE0004FF0000008BF701C9842C6D153B3581E54
:103DF000032803F0030801D2002213E023F0030993
:103E000004EB410600226FF0010700BF06EB4205FC
:103E10000432F019914507F1080743806B80AB80AD
:103E20000381F3D1B8F1000F0CD00A44B8F1010FAF
:103E300024F8123006D004EB4202B8F1020F53808E
:103E400018BF938001FB0EF0411C05D0DCF8081070
:103E5000084401B0BDE8F083002001B0BDE8F08364
:103E6000006870472DE9F04F91B00DF122050DF17A
:103E700041020DF142032946804600F0C9FA10B113
:103E800011B0BDE8F08F40F2400AC2F2000A9AF881
:103E90001400002841D09DF822B0002701AE0DF19A
:103EA000420904E09AF814000137874259D2DAF83F
:103EB0000000314600EBC700406810AA4B4600F0F6
:103EC000A7FA002849D19DF804005845EAD10020FE
:103ED0005A46B2B13218291853784C78A342E1D12E
:103EE0007BB193788C78A342DCD153B1D378CC7872
:103EF000A342D7D12BB11279097904308A42E8D094
:103F0000D0E79DF840009DF841108DF8437088423D
:103F10000DD9022011B0BDE8F08F002100208DF8EE
:103F2000431081420AD1042011B0BDE8F08F9AF805
:103F30001400F9B28AF816108142F4D00DF1430151
:103F4000404600F0B3FB00289AD19DF843008AF860
:103F50001500002011B0BDE8F08F012011B0BDE8C0
:103F6000F08FF9B2DBE700002DE9F04F9BB040F293
:103F70004007C2F20007387DB97D814280F08B8115
:103F800038680DF1260400EBC100406807910DF17F
:103F9000250209AB214600F03BFAC0A02146FCF700
:103FA00001FA9DF82580B8F1000F00F0AB80A8F170
:103FB00001000026089003E00136464500F0A2808B
:103FC000388B26F00309F040C007A6F1010B51D051
:103FD000002E71D000210020BBF1030F0CD300BFD5
:103FE0007A18937ED57E147F1844527F284420444B
:103FF000043189451044F3D116F0030A0CD039443A
:104000008A7EBAF1010F104406D0CA7EBAF1020FBF
:1040100010441CBF097F084457FA80F000F12401C6
:104020004AF23E00C0F60000FCF7BCF90021002077
:10403000BBF1030F0CD300BF7A18937ED57E147F9B
:104040001844527F28442044043189451044F3D158
:10405000BAF1000F39D039448A7EBAF1010F104409
:1040600033D0CA7EBAF1020F10441CBF097F084446
:104070002BE000BF86B300210020BBF1030F0BD360
:104080007A18937ED57E147F1844527F28442044AA
:10409000043189451044F3D116F003021DD0394490
:1040A0008B7E012A184418D0CB7E022A18441CBFEC
:1040B000097F084411E000BF4AF23E0007F12401E5
:1040C000C0F60000FCF76EF9002057FA80F02430AB
:1040D00011A941F826000DE0002057FA80F0FA7D82
:1040E000416A11A8002A40F8261014BF6DA06FA0E5
:1040F000FCF758F90898B0423FF45EAF2C20FCF76B
:10410000EDFA59E72920FCF7E9FA40F20C35C2F242
:10411000000528686FF0010101614FF6FF7400216E
:10412000C462EC604162787DC7F8F0100A280DD8AF
:10413000DFE800F0060D141C242C343F4E5D7000A7
:104140003868079950F83100804776E076E03868A3
:10415000079950F83110119888476EE03868079930
:1041600050F83120DDE91101904766E03868079981
:1041700011AA50F8313007CA98475EE038680799AD
:1041800011AB50F831600FCBB04756E03868079953
:1041900011AE50F831C04FCE00964DE03868079907
:1041A0000DF1440E50F831C09EE84F40CDE9006E4D
:1041B00042E038680799DDF85C8050F831C00DF1B5
:1041C000440E9EE84F40CDE9006ECDF8088033E004
:1041D00038680799DDE9178950F831C00DF1440EB0
:1041E0009EE84F40CDE9006ECDE9028924E03868B1
:1041F00007990DF1440E0DF15C0A50F831C09EE8AC
:104200004F409AE80007CDE9006E0DF1080E8EE8E8
:10421000000711E0386807990DF1440E0DF15C0BB1
:1042200050F831C09EE84F409BE8000FCDE9006E8A
:104230000DF1080E8EE8000FE0470146286802697C
:10424000D7F8F030D20718BF2344406A9DF82420E5
:104250001844012AC7F8F00007D1F87D002814BFE0
:1042600014A017A0FCF79EF802E011A0FCF73CFA9E
:1042700097F8EC0078B1D7F8F0004CF6CD41CCF6C9
:10428000CC41A0FB0112D10801EB8102A0EB42025C
:104290000DA0FCF787F81BB0BDE8F08F0D0A257361
:1042A000280000003058255800000000256C6400EC
:1042B0003B0D00003D305825583B0D0A0000000022
:1042C0003D256C753B0D0A0046756E6374696F6E13
:1042D0002052756E2054696D653A25642E2531642F
:1042E0006D730D0A000000002DE9F0414FF0000C45
:1042F00000234FF0000E00244FF0FF080AE000BF3B
:104300005C2D04BF01300CF1010C0578012401F88B
:10431000015B57E0057885F02C06264308BF012392
:10432000292D01D12CB961E0002D08BF002C00F02F
:104330005F80BEF1000F09D01E0640F05580222D8F
:1043400001D0002CDCD100243CE000BFA5F13007F7
:10435000FFB20A2FC0F03A80A5F12007582F00F2D3
:104360004B804FF0000EDFE807F02D4739474747F5
:104370004747474747312D31474747474747474713
:10438000474747474747474747474731313131312B
:1043900031474747474747474747474747474747C3
:1043A0004747314747474747474747313131313121
:1043B00031474747474747474747474747474747A3
:1043C000474731000CF1010C0130A3E71F0611D162
:1043D000602D88BF203D4FF0000E98E71F0613D1D7
:1043E0004FF0010E0124EDE7F04605E0F04603E052
:1043F000F04601E04FF00008002008705FFA8CF0F2
:1044000082F80080BDE8F0814FF00008F4E700007A
:104410002DE9F04F82B000270DF1020C064603E0B3
:10442000FDB2852D16D001363578202DF8D09DB1FE
:1044300007F07F04042CF3D83C0608BF6FF07F0719
:1044400007F07F04042C01D12A2D07D101370CF885
:104450000450E8E7852701E03E0642D007F07F07D9
:1044600000260CF807609DF80270762F37D14AF2CB
:10447000490E76264FF00008C0F6000EB6FA86F414
:104480004FEA541546B30CEB08060EEB0809777893
:1044900099F80140A7421FD1B7FA87F44FEA5415A3
:1044A000D7B1B77899F80240A74215D1B7FA87F487
:1044B0004FEA541587B1F77899F80340A7420BD11A
:1044C000B7FA87F44FEA541537B1367999F80440B2
:1044D00008F10408A642D1D085F0010700E00127C9
:1044E0001F70057800274FF0000E0646F31C00BF32
:1044F000EDB20DB3282D1FD016F8015F1C462A2DF2
:1045000007F1010704D0202D04F10103F0D100BF11
:1045100014F8013C202B09D12378202B06D1637895
:10452000202B03D1A3780434202BF1D003F0FD031A
:10453000282B18BFBE46D9E75FFA8EF34FF001086B
:10454000002B18BF58FA8EF3C45C4FF0000E002CFD
:1045500000F089801844461C00204FF000094FF0FD
:10456000000A01254FF0000B002710E0013587F00D
:10457000010385F002042343DBB2B3FA83F4640938
:10458000A344002B08BF032516F8014BECB3282CDD
:1045900008BF5FEA006317D0292C08BF5FEA0063F9
:1045A0001DD0C3B2B3FA83F3222C08BF58093B06CF
:1045B00027D0202C18BF282CD9D02C2C16D109F1AB
:1045C00001090125E0E700BF58FA87F7F8B2B842C1
:1045D0004FF00000CBD001F8014B0027D4E738069C
:1045E00013D0013F38064FF000000FD05FEA096397
:1045F000BCD1BAF1040F9CBF0CF80A400AF1010AC1
:10460000B4E7202CE7D10027BEE701205FFA8BF347
:10461000012B2ED100230CF80A309DF80230762BA6
:1046200025D14AF2490876260024C0F600084FF04A
:10463000010B2EB30CEB040608EB040377785D78CE
:10464000AF4220D117B3B7789D78AF4221D11FB3C5
:10465000F778DD78AF4222D127B336791B7904345D
:104660009E42E6D005E001204FF0000B01E04FF044
:10467000010B82F800B081F800E002B0BDE8F08FD5
:104680004FF0000BF5E74FF0010BF2E74FF0000B96
:10469000EFE74FF0010BECE74FF0000BE9E74FF0CD
:1046A000010BE6E74FF0000BE3E700002DE9F04FC8
:1046B000B7B040F240098346C2F200090020C9F8B1
:1046C0001A00C9F81E00A9F822001BF8040B2828BC
:1046D00016D01BF8030C78B1282815D01BF8020C53
:1046E00050B1282814D01BF8010C28B1282811D06B
:1046F0001BF8040B0028EAD1012037B0BDE8F08F89
:104700000091ABF1030B06E00091ABF1020B02E06C
:10471000ABF1010B00910DF10B0A0AF102004FF011
:1047200000080DF1DB070190584651463A46FFF765
:10473000DBFD9DF8DB1029B1012921D0FF2940F0D4
:10474000F78004E19DF80B10002900F0F180064687
:10475000504635A900F0A0F9002840F0F880DDF8B7
:10476000D4C05FEA086153D04FF0FF3050FA88F1AF
:1047700003295FFA88FE4FD20023002262E000BFC7
:104780009DF80BC04FF0000EBCF1000F12D0019A43
:1047900012F8013C002B66D01378002B69D05378B7
:1047A000002B6CD093780EF1040E002B02F1040262
:1047B000EED100BF5FEA086266D04FF0FF3151FAD8
:1047C00088F2032A02D20023002212E05FFA88F264
:1047D00002F0FC050023002209EB03018F7ECE7E50
:1047E0000C7F3A44497F3244224404339D420A44B8
:1047F000F2D118F0030548D04B44997E012D0A44AC
:1048000043D0D97E022D0A441CBF197F0A443CE0E4
:104810004FF0000E002273E00EF0FC050023002292
:1048200009EB0300817E4C4690F81B9090F81CA089
:104830001144407F494451440433A1469D4200EB5A
:104840000102EDD118F0030558D04B44987E012D9C
:1048500002440DF10B0A53D0D87E022D02441CBF36
:10486000187F02444CE04EF0010E5FEA0862A4D1CA
:104870000AE04EF0020E5FEA08629ED104E04EF0BC
:10488000030E5FEA086298D1002259FA82F1BCF166
:10489000000F81F824C019D0D1B24944002200BFD2
:1048A0000AEB02035F788D1885F8257077B19F7841
:1048B00085F8267057B1DF7885F8277037B11B79F6
:1048C0000432002B85F82830EAD100BF5FFA88F166
:1048D000B9F81820012303FA01F11143A9F81810BF
:1048E00059FA88F108F101080EF101075FFA88F220
:1048F0000A2A8F760DF1DB071AD92CE00DF10B0A8D
:1049000059FA82F0C0F824C0B9F81800012101FA60
:104910000EF108F1010888435FFA88F1A9F8180040
:1049200009EB0E000A294FF004018176304612D8B7
:1049300083449BF80000292802D000287FF4F4AEBD
:10494000009880F80080002037B0BDE8F08F02208A
:1049500037B0BDE8F08F032037B0BDE8F08F00001E
:1049600010B582B0002243F640030192C4F2020364
:104970001C686421484344F0040119601968013837
:1049800001F004010191019940F20C3440F600015C
:10499000C2F20004C4F2000180B24FF47A73C4E999
:1049A00000102046C4E902232261FCF7B7FD20462F
:1049B000FCF7E4FD1E2003210322FCF7F5F91E207D
:1049C000FCF7DEF940F24000C2F200000121C1759F
:1049D00002B010BDB0B540F26041C2F20001B1F9C1
:1049E0000000B0F1FF3F00DDB0BD80B2C2B240F2C6
:1049F000983040F24005C2F200000023C2F20005E8
:104A00008354AA680B809047B0B1044640F29830B6
:104A1000C2F2000000F0F4F8012818BF0446601E3E
:104A2000032888BFB0BDDFE800F002150B1012A00C
:104A3000BDE8B040FBF758BEE868BDE8B0400047AD
:104A400007A0BDE8B040FBF74FBE0EA0BDE8B040E8
:104A5000FBF74ABE05A0BDE8B040FBF745BE00BF6E
:104A6000B2CECAFDCCABB6E0210D0000B2CECAFD7D
:104A7000B4EDCEF3210D0000BAAFCAFDB4EDCEF314
:104A8000210D0000CEB4D5D2B5BDC6A5C5E4B5C4D0
:104A9000BAAFCAFD210D00002DE9F04F4FF0000E16
:104AA0000A224FF0000C0346C1F800E006E0402D5A
:104AB00088BF102201304FF0020C01331D78A5F1A0
:104AC00030040A2C16D304782D2C03D15FEA0E662D
:104AD00006D1ECE784F02B065FFA8EF73E4309D04F
:104AE000A5F14106062E05D3582D14D15FFA8EF696
:104AF000012E10D10478402D88BF10222B2C05D018
:104B00002D2CD7D00EF1010E0133D7E701304FF035
:104B1000010C0133D2E7002D1CBF0120BDE8F08F4E
:104B2000D2B2102A15D15FFA8EF3032B3CBF0220BC
:104B3000BDE8F08F302C1CBF0320BDE8F08F437818
:104B4000582B1CBF0320BDE8F08F0230AEF1020EDF
:104B500002E05FEA0E6350D090F800A04FF0000B27
:104B60000DE000BF012709EB0A0307FB03BBAE46BC
:104B7000C1F800B010F801AFBAF1000F31D05FFA00
:104B80008EF5002DAAF13004AEF1010818BF45469C
:104B90000A2C6FF0360938BF6FF02F092C06E1D0D0
:104BA000AEF10207FFB2032F02D201270DE000BFD2
:104BB00008F0FC06002401275743574304345743A9
:104BC000E3B2B34202FB07F7F6D118F00306CAD0EE
:104BD000012E02FB07F7C6D05743022E18BF5743DA
:104BE000C1E7BCF1020F1CBF0020BDE8F08FCBF184
:104BF000000008600020BDE8F08F0420BDE8F08FC1
:104C00002DE9F04389B04FF000080DF1050E0027A3
:104C1000C15D41F02003202B5ED0C61975780EEBE4
:104C2000070345F02004202C0EF8071057D0B17868
:104C30005D7041F02004202C55D0F578997045F036
:104C40002004202C53D03179DD7041F02004202C39
:104C500051D07579197145F02004202C4FD0B179CD
:104C60005D7141F02004202C4DD0F579997145F00B
:104C70002004202C4BD0317ADD7141F02004202C0F
:104C800049D0757A197245F02004202C47D0B17AAA
:104C90005D7241F02004202C45D0F57A997245F0E0
:104CA0002004202C43D0317BDD7241F02004202CE5
:104CB00041D0757B197345F02004202C3FD0B17B87
:104CC0005D7341F02006202E3DD00F371E2F08F1D6
:104CD0000F0899739CD1D9E10EEB070336E008F178
:104CE0000108013332E008F1020802332EE008F136
:104CF000030803332AE008F10408043326E008F12E
:104D00000508053322E008F1060806331EE008F125
:104D1000070807331AE008F10808083316E008F11D
:104D20000908093312E008F10A080A330EE008F115
:104D30000B080B330AE008F10C080C3306E008F10D
:104D40000D080D3302E008F10E080E3340F2BC1CD2
:104D5000C2F2000C0024DCF800601C709DF8051005
:104D600033780094994221D100250B46002B00F0A6
:104D70000F810EEB050774197B786278934215D189
:104D8000002B00F00581BB78A27893420ED1002B56
:104D900000F0FE80FB78E278934207D1002B00F010
:104DA000F7803B79227904359342DFD0DCF8046048
:104DB0003278914221D100250B46002B00F0E8808B
:104DC0000EEB050774197B786278934215D1002B9E
:104DD00000F0DE80BB78A27893420ED1002B00F069
:104DE000D780FB78E278934207D1002B00F0D08087
:104DF0003B79227904359342DFD0DCF808603278C1
:104E0000914221D100250B46002B00F01D810EEBB5
:104E1000050774197B786278934215D1002B00F056
:104E20001381BB78A27893420ED1002B00F00C8145
:104E3000FB78E278934207D1002B00F005813B79A3
:104E4000227904359342DFD0DCF80C60327891424D
:104E500021D100250B46002B00F01C810EEB05072D
:104E600074197B786278934215D1002B00F012817F
:104E7000BB78A27893420ED1002B00F00B81FB7817
:104E8000E278934207D1002B00F004813B7922792C
:104E900004359342DFD0DCF8106050FA88F43278A1
:104EA000914221D100200B46002B00F02B810EEB0C
:104EB000000732187B785578AB4215D1002B00F0F3
:104EC0002181BB789578AB420ED1002B00F01A817E
:104ED000FB78D578AB4207D1002B00F013813B79EA
:104EE000127904309342DFD0DCF81400027891424A
:104EF00021D100220B46002B00F025810EEB02078A
:104F000086187B787578AB4215D1002B00F01B8199
:104F1000BB78B578AB420ED1002B00F01481FB7842
:104F2000F578AB4207D1002B00F00D813B79357944
:104F30000432AB42DFD0DCF818201078814240F018
:104F4000A5800027002900F01E810EEB0703D01971
:104F500059784678B14240F09980002900F01381D9
:104F600099788678B14240F09180002900F00B8159
:104F7000D978C678B14240F08980002900F00381D9
:104F800019790079043781424FF00100DAD041E10C
:104F90004AF23C00C0F60000FBF7A6FB49F6B3500E
:104FA000C0F60000FBF7A0FB49F63360C0F6000036
:104FB000FBF79AFB49F6F850C0F60000FBF794FBAC
:104FC00049F69A60C0F60000FBF78EFB49F6737055
:104FD000C0F60000FBF788FB49F61C70C0F6000025
:104FE000FBF782FB49F69C70C0F60000FBF77CFBE8
:104FF00049F6B270C0F60000FBF776FB4AF22600D5
:10500000C0F60000FBF770FBA4A0FBF76DFB49F6B0
:10501000F770C0F60000FBF767FB49F6C870C0F6F2
:105020000000FBF761FB49F64370C0F60000FBF798
:105030005BFB49F6ED60C0F60000FBF755FB49F657
:105040003350C0F6000057E04AF23C00C0F60000C2
:10505000FBF74AFB49F67450C0F60000FBF744FB2F
:1050600040F24005C2F20005287D002840D000260D
:1050700088A400BF286800EBC60041682046FBF703
:1050800091F9287D01368642F4D331E0012009B040
:10509000BDE8F0834AF23C00C0F60000FBF724FBB9
:1050A00049F6F440C0F60000FBF71EFB40F2400555
:1050B000C2F20005287DD8B100260DF105040DF1DE
:1050C00023080DF104096EA72868214600EBC600ED
:1050D000406842464B46FFF79BF92868214650F846
:1050E00036203846FBF75EF9287D01368642EBD341
:1050F0004AF23C00C0F60000FBF7F6FA002009B0C7
:10510000BDE8F08304208DF823004AF23C00C0F68D
:105110000000FBF7E9FA0DF105010DF1230220462D
:10512000FFF7E2F89DF82300002845D10DF10500B6
:105130006946FFF7B1FC042842D0E8BB00994DA0B6
:10514000FBF730F9D4E705208DF823004AF23C0044
:10515000C0F60000FBF7C8FA0DF105010DF12302BE
:105160002046FFF7C1F89DF8230028BB0DF105008C
:105170006946FFF791FC04282CD0E8B9009935A0C6
:10518000FBF710F9B4E706208DF823004AF23C0043
:10519000C0F60000FBF7A8FA0DF105010DF123029E
:1051A0002046FFF7A1F89DF8230028B90DF105006E
:1051B0006946FFF771FCB8B1022009B0BDE8F08381
:1051C00027A0FBF791FA40F24000C2F20000012153
:1051D000C1758DE71AA0FBF787FA40F24000C2F2D2
:1051E00000000021C17583E7009840F24001C2F23F
:1051F000000181F8EC000AA100280AA007A208BF5C
:105200001146FBF7CFF84AF23C00C0F60000FBF76E
:105210006BFA002009B0BDE8F08300BF4F4646009E
:105220004F4E000052756E2054696D652043616CCD
:1052300063756C6174696F6E2025730D0A00000040
:105240003130BDF8D6C6B2CECAFDCFD4CABE210D0C
:10525000000000004445433A256C750D0A0000002B
:105260003136BDF8D6C6B2CECAFDCFD4CABE210DE6
:10527000000000004845583A305825580D0A0000F3
:1052800025732069642069733A0D0A305825303837
:10529000580D0A0025730D0A0000000069643A20C9
:1052A00020202020BFC9D3C3BAAFCAFDB5C449442A
:1052B000C1D0B1ED0D0000002DE9F0478CB0002702
:1052C00043F630000097C4F20200816840F60046C1
:1052D00041F0010181608168C4F2020601F0010120
:1052E000009100990097016806F5406441F00801BB
:1052F0000160016807AD01F0080100910099009775
:1053000001684FF0020841F01001016001684FF0A0
:10531000010901F0100100910099009701684FF018
:10532000030A41F020010160016801F020010091B1
:1053300000990097016841F040010160006829462A
:1053400000F04000009000984FF4806007900C201F
:105350000B902046CDF82080CDF82490CDF828A0E1
:10536000FBF7CCFB3020079030462946FBF7C6FB05
:105370004FF6337007A981E8010730462946FBF74D
:10538000BDFB4FF68370079006F580602946FBF75A
:10539000B5FB4FF23F00079006F500602946FBF78A
:1053A000ADFB40F23F40079020462946FBF7A6FBA5
:1053B0004AF68050C2F201004FF0204140F2041240
:1053C000CAF20002042380E88E004FF48051C0E945
:1053D00009710821CDE90217694610260A46C0E97D
:1053E0000476C0E90677C0E90B77C0E90D77CDE90F
:1053F00000870697FBF7D2FF0CB0BDE8F0870000EE
:105400004FF0D041405C70474FF0D042815470471C
:105410002DE9F04192B043F640080026C4F202089C
:10542000CDE90A66CDE908660596CDE90366CDE9C2
:1054300001660096D8F800704FF4800547F0805759
:10544000C8F80070D8F8007007F080570097009FE8
:1054500047F200070096C4F200073C6844F4804419
:105460003C603F68012407F480470097009F4FF499
:105470008037CDE90D510FA9079702270DC106A866
:1054800006940C97FBF7DAFDE8B90F20CDE9010788
:105490004FF4A05004904FF48050059001A80521CE
:1054A0000396FBF7BDFC08B101240CE0FBF70AFCF6
:1054B00041F20101884202BFD8F8C00340F4807075
:1054C000C8F8C0030024204612B0BDE8F0810000F7
:1054D00010B540F2543441F20001C2F20004C4F2AB
:1054E000010100220C23C4E900102046C4E9022275
:1054F000C4E90423A261FCF7D1F940F20831C2F2F9
:10550000000120460122BDE81040FCF747BA000028
:105510000160704730380A2801D20120704700200E
:105520007047F1EE100A4FF6FF71C0F2C03120EA69
:10553000010040F04070E1EE100A70473031323324
:1055400034353637383941424344454640305800B7
:1055500030313233343536373839616263646566E9
:105560004030780004000008000000000000000245
:105570000001000010000000000000000001020314
:1055800004060708090000000001020304000000EF
:10559000000000000000000000000000003F40008C
:1055A000000000000000003000400030004000001B
:1055B0000009000BC03D000BC03D00090018C024CD
:1055C000407FE0224031800000180024C01B000D05
:1055D000803240018003801C4027401C800740002F
:1055E000401000600000000000000000000000000B
:1055F0000000001F80204040200000402020401F6D
:105600008000000000090006001F8006000900005D
:1056100000040004003F80040004000000001000AB
:10562000600000000000000000040004000400040A
:105630000004000000000000400000000000000026
:1056400000002001C006003800400000001F80203C
:1056500040204020401F800000000010403FC0005C
:10566000400000000018C0214022402440184000A3
:105670000010802040244024401B80000002000DC8
:105680000011003FC0014000003C80244024402421
:1056900040238000001F80244024403440038000C9
:1056A000003000200027C03800200000001B8024AC
:1056B00040244024401B8000001C0022C0224022C5
:1056C000401F8000000000000008400000000000B3
:1056D0000000000000046000000000000000000462
:1056E000000A00110020804040090009000900095B
:1056F000000900000000004040208011000A000462
:10570000001800200023402400180000001F802003
:1057100040274029401F400000004007C039000FCB
:105720000001C0004020403FC0244024401B8000B6
:10573000001F802040204020403080000020403F5B
:10574000C0204020401F80000020403FC024402E49
:105750004030C0000020403FC024402E00300000F8
:10576000000F001080204022403380020020403F84
:10577000C0040004003FC02040204020403FC02023
:1057800040204000000060202020203FC02000205A
:105790000020403FC024400B0030C0204020403F4C
:1057A000C020400040004000C03FC03C0003C03C5F
:1057B000003FC0000020403FC00C4023003FC020FD
:1057C000001F802040204020401F80000020403FDC
:1057D000C024402400180000001F802140214020E8
:1057E000E01FA0000020403FC02440260019C00058
:1057F0004018C02440244022403180000030002066
:10580000403FC020403000000020003F80004000AA
:10581000403F80200020003E0001C00700380020EB
:1058200000380007C03C0007C038000000204039A5
:10583000C0060039C0204000002000384007C038B2
:105840004020000000304021C02640384020C000E9
:1058500000000000007FE0402040200000000070B9
:10586000000C000380004000000000402040207F2A
:10587000E0000000000000200040002000000000C8
:1058800000001000100010001000100010000000B8
:1058900000400000000000000000000280054005FC
:1058A0004003C0004020003FC0044004400380008B
:1058B0000000000380044004400640000000000394
:1058C00080044024403FC0004000000380054005A4
:1058D0004003400000000004401FC024402440203A
:1058E00000000002E0055005500650042020403F13
:1058F000C00440040003C000400000044027C00072
:10590000400000000000100010041027E00000001C
:105910000020403FC00140070004C0044020402058
:10592000403FC000400040000007C0040007C00422
:105930000003C00000044007C00440040003C0008E
:10594000400000038004400440038000000410076E
:10595000F004500440038000000000038004400471
:105960005007F00010044007C0024004000400008B
:1059700000000006400540054004C000000000048F
:10598000001F800440004000000400078000400425
:105990004007C000400400070004C0018006000466
:1059A00000060001C0070001C00600000004400618
:1059B000C0010006C0044000000410071004E0010C
:1059C00080060004000000044005C00640044000BA
:1059D000000000000004007BE04020000000000008
:1059E000000000FFF000000000000040207BE00409
:1059F0000000000000400080004000200020004027
:105A00000000000000000000000000000000000096
:105A1000000000000000001FCC000C00000000008F
:105A20000000000800300060000800300060000046
:105A300000022003FC1E20022003FC1E2002200086
:105A40000000000E1811043FFF10840C78000000C5
:105A5000000F0010840F3800C00778188400780009
:105A60000000780F8410C411240E9800E400840014
:105A7000080800680070000000000000000000003E
:105A80000000000000000007E01818200440020099
:105A900000000040022004181807E0000000000089
:105AA000000240024001800FF001800240024000ED
:105AB000000080008000800FF800800080008000DF
:105AC000000001000D000E000000000000000000BA
:105AD00000000000800080008000800080008000C6
