:020000040800F2
:1000000098050020290200081112000809120008B2
:100010000D120008D5030008D913000800000000E5
:10002000000000000000000000000000191200089D
:10003000D903000800000000151200081D12000876
:100040004D0200084D0200084D0200084D02000854
:100050004D0200084D0200084D0200084D02000844
:100060004D0200084D0200084D0200084D02000834
:100070004D0200084D0200084D0200084D02000824
:100080004D0200084D0200084D0200084D02000814
:100090004D0200084D0200084D0200084D02000804
:1000A0004D0200084D0200084D0200084D020008F4
:1000B0004D0200084D0200084D0200084D020008E4
:1000C0004D0200084D0200084D0200084D020008D4
:1000D0004D020008CD1300084D0200084D02000833
:1000E0004D0200084D0200084D0200084D020008B4
:1000F0004D0200084D0200084D0200084D020008A4
:100100004D0200084D0200084D0200084D02000893
:100110004D0200084D0200084D0200084D02000883
:100120004D0200084D0200084D0200084D02000873
:100130004D0200084D0200084D0200084D02000863
:100140004D0200084D0200084D0200084D02000853
:100150004D0200084D0200084D0200084D02000843
:100160004D0200084D0200084D0200084D02000833
:100170004D0200084D0200084D020008000000007A
:100180004D0200084D02000800F002F800F03CF8B3
:100190000AA090E8000C82448344AAF10107DA45E2
:1001A00001D100F031F8AFF2090EBAE80F0013F0F8
:1001B000010F18BFFB1A43F001031847681600002F
:1001C00088160000103A24BF78C878C1FAD85207C0
:1001D00024BF30C830C144BF04680C6070470000C1
:1001E0000023002400250026103A28BF78C1FBD840
:1001F000520728BF30C148BF0B6070471FB501F0E0
:10020000F8FA1FBD10B510BD00F0B1F81146FFF7A8
:10021000F5FF01F051FA00F0CFF803B4FFF7F2FF59
:1002200003BC01F0DBF800000C48016841F47001E8
:1002300001600B4880470B480047FEE7FEE7FEE7FA
:10024000FEE7FEE7FEE7FEE7FEE7FEE7FEE700006B
:1002500005480649044A064B7047000088ED00E057
:10026000211200088901000898010020980500204B
:1002700098010020704753EA020C00F069802DE9D4
:10028000F04B4FF00006002B1FBFB3FA83F503FAC3
:1002900005F424FA05F65E4012BF1643B2FA82F561
:1002A00002FA05F4C5F120051EBF22FA05FC44EA56
:1002B0000C04203556EA044C4FEA144418BF641C61
:1002C0004FF000084FF00009904271EB030C39D356
:1002D000002919BFB1FA81F701FA07F6B0FA80F7E1
:1002E00000FA07F6C7F120071EBF20FA07FC46EA0E
:1002F0000C062037B6FBF4FCA7EB0507103F07F010
:100300001F0BCBF120062CFA06F60CFA0BFB44BFB0
:10031000B3460026202FA4BF5E464FF0000B5BEAD9
:10032000060C08BF4FF0010B19EB0B0948EB060850
:10033000ABFB027C06FB02CC0BFB03CCC01B71EBBE
:100340000C01C1E70B46024641464846BDE8F08B2A
:1003500013B5084318BF4FF0FF300146AFF30080DC
:10036000BDE81C407047704770477047704775463E
:1003700000F02CF8AE4605006946534620F0070011
:10038000854618B020B5FFF763FFBDE820404FF069
:1003900000064FF000074FF000084FF0000BAC468E
:1003A000ACE8C009ACE8C009ACE8C009ACE8C009D9
:1003B00021F007018D46704710B50446AFF3008069
:1003C0002046BDE81040FFF728BF000000487047F6
:1003D00010000020FEE700007047000070B5866D39
:1003E000044600F037F994F83510022928D1054663
:1003F0002068216C026822F016020260426922F035
:100400008002426109B9A16C19B1016821F00801AB
:100410000160016821F00101016000BF20680068EF
:10042000C00714D000F016F9401B0628F6D3202090
:100430006065002084F83400032084F8350070BD26
:1004400080206065002084F83400012070BDE06DDC
:100450003F2101FA00F0B0600020012184F834004F
:1004600084F8351070BD000090F83510022909D1CC
:10047000052180F835100068016821F00101016054
:100480000020704780214165012070472DE9F04F21
:1004900082B000F13E4241F6004502F1FF77C4F21E
:1004A0000205082243F6004E4FEAB726A84208BFCD
:1004B0000722C4F2010E072E38BF4FEAB7220125EA
:1004C000002700264FF00008009208E008F101081C
:1004D0000436B8F1100F07F1020700F0A4800C6891
:1004E00005FA08F914EA090FF0D0D1F804C0032284
:1004F0000CF0030BABF10104BA40012C6FEA020AC5
:1005000010D88268CC6802EA0A02BC4022438260AA
:100510004268CCF3001422EA090204FA08F42243E8
:10052000426005E0BBF1030F02D14FF0030B20E066
:10053000C2688C6802EA0A02BC402243BBF1020F87
:10054000C26016D16FF0030202EA58020244D2F8E8
:1005500020C006F01C050F230C69AB402CEA0303F6
:1005600004FA05F52B431362D1F804C001250CF001
:10057000030B02680BFA07F302EA0A021A435FEA66
:10058000CC030260A2D5002243F644030192C4F2D8
:1005900002031A684FF6084C42F480421A601A6847
:1005A000CFF6FF7C02F480420192019A28F0030208
:1005B000724452F80C3006F00C050F24AC40A343F3
:1005C000009C04FA05F52B4342F80C30DEF80020BD
:1005D0004B6842EA0905DC0358BF22EA0905CEF858
:1005E0000050DEF804209C0342EA090558BF22EAC5
:1005F0000905CEF80450DEF80820DC0242EA0905BD
:1006000043F60C4458BF22EA0905CEF80850C4F25C
:10061000010422689B0242EA090558BF22EA090543
:100620002560012552E702B0BDE8F08F006908405F
:1006300018BF012070470000002A08BF090481612B
:100640007047000042F20000CEF204000068000C87
:100650007047000040F29410C2F20000006870473A
:10066000B0B530B304460068D4E901124CF6CC436F
:10067000036045F25553036041608260FFF7EAFF73
:100680002168CA6892070FD0054602E0C868800753
:100690000AD0FFF7DFFF401B21683128F6D3C86876
:1006A0008007F3D00320B0BD4AF6AA2008600020DE
:1006B000B0BD0120B0BD000001684AF6AA220020AA
:1006C0000A60704740F2080040F29411C2F2000044
:1006D000C2F2000100780A68104408607047000008
:1006E00080B543F60040C4F20200016841F4007195
:1006F0000160016841F480610160052000F072F83A
:100700000F2000F005F800F02BF8002080BD00005D
:10071000B0B540F20802C2F2000240F204011278C1
:10072000C2F200014FF47A730968B3FBF2F2044697
:10073000B1FBF2F1084600F023FB0F2C4FF001054E
:100740000CD858B94FF0FF3021460022002500F0A8
:100750001DF840F20C00C2F2000004602846B0BD53
:1007600070470000002848BF7047C1B200F01F006A
:10077000012202FA00F04EF20012CEF2000242EA2A
:10078000D10121F0030108607047000010B54EF65A
:100790000C5CCEF2000CDCF80030C3F3022E8EF0BD
:1007A0000704042C28BF0424BEF103034FF0FF3ECE
:1007B0000EFA04F438BF0023A14399400EFA03F364
:1007C0009A43114300F00F0200F160430901043A1B
:1007D00003F564436244002848BF02F10C0319701A
:1007E00010BD00004EF60C51CEF200010A684FF623
:1007F000FF031A4060F30A2242F0806040F0FD706F
:10080000086070472DE9F041002800F08B8043F626
:100810000808C4F202080446D8F8F8030D4600F0B0
:100820000700884207D288F8F853D8F8F80300F098
:100830000700A84276D12068810717D5410705D562
:10084000D8F8001041F4E051C8F80010010705D5B0
:10085000D8F8001041F46041C8F80010D8F8001032
:10086000A26821F0F0011143C8F80010C0073FD181
:10087000D8F8F80300F00700A84207D988F8F85321
:10088000D8F8F80300F00700A8424BD120684107D0
:1008900007D5D8F80010E26821F4E0511143C8F8F8
:1008A0000010000708D5D8F80000216920F4604046
:1008B00040EAC100C8F8000000F07CF8D8F8001049
:1008C00041F60C02C1F30311C0F60002515C40F284
:1008D000040220FA01F140F20C00C2F200000068AC
:1008E000C2F200021160FFF713FF0020BDE8F081A3
:1008F0006068811E022907D258F8081C89015CBF74
:100900000120BDE8F08110E0012807D158F8081C4B
:1009100089035CBF0120BDE8F08106E058F8081C9F
:10092000890702D40120BDE8F081D8F8001021F039
:1009300003010843C8F80000FFF78CFE064641F2A9
:10094000883700BFD8F80000616800F00C00B0EBF9
:10095000810F8DD0FFF77EFE801BB842F2D90320B5
:10096000BDE8F08140F2040043F60801C2F2000045
:10097000C4F202010068096841F61C02C1F3822139
:10098000C0F60002515CC8407047000040F204000D
:1009900043F60801C2F20000C4F2020100680968CF
:1009A00041F61C02C1F34231C0F60002515CC8405E
:1009B0007047000010B543F60404C4F202046068F6
:1009C00000F00C0142F200400829C0F2F40007D008
:1009D000042918BF10BD41F20020C0F27A0010BDFA
:1009E000216801F03F02216823684902C3F388119E
:1009F00005D4A1FB00010023FFF73DFC06E041F216
:100A00000020C0F27A004843B0FBF2F021680222D5
:100A1000C1F3014102EB4101B0FBF1F010BD000058
:100A20002DE9F04182B0002868D00446007843F6F2
:100A30000006C007C4F202060BD0B06800F00C003C
:100A4000042840F09C803068800302D5606800284C
:100A500054D0207880071AD5B06810F00C0F09D058
:100A6000B06800F00C00082840F0A38070684002D5
:100A700000F19F803068800702D5E06801283DD1F1
:100A80003068216920F0F80040EAC1003060207829
:100A9000000737D4207840074BD4A56955B3B06818
:100AA00000F00C00082840F0B780012D26D07068B7
:100AB000E16900F480028A4220D1216A00F03F02FD
:100AC0008A421BD147F6C071626A0140B1EB821FB6
:100AD00014D1A16A4FF6FF73C903994300F4403261
:100AE000A1F580318A4209D1E16A00F07060B0EB73
:100AF000016F03D1002002B0BDE8F081012002B0F7
:100B0000BDE8F0816069002840F20000C4F247208F
:100B100072D00121C0F8801EFFF79CFD054600BF82
:100B2000706F8007B6D4FFF795FD401B0228F7D9F8
:100B3000D7E0306C10F080580AD100200190306C62
:100B400040F080503064306C00F08050019001988B
:100B500047F20007C4F200073868C0053ED4386881
:100B600040F480703860FFF775FD05463868C005B1
:100B700034D4FFF76FFD401B0228F7D9B1E0B0680D
:100B800000F00C00082803D1706840023FF55BAF0D
:100B90006068B0F5803F07D0B0F5A02F40F08B80A3
:100BA000306840F480203060306840F4803030603D
:100BB0008BE0E068002851D00020C4F247200121DA
:100BC0000160FFF747FD0546306880073FF558AFE5
:100BD000FFF740FD401B0228F6D982E0A0680128FB
:100BE00005D005284ED1306F40F004003067306FDB
:100BF00040F0010030674FE00021C0F8801EFFF791
:100C000029FD0546706F80077FF544AFFFF722FD91
:100C1000401B0228F6D964E00027C4F247270020D1
:100C20003866FFF717FD022D05460BD130688001AD
:100C30005BD5FFF70FFD401B02284FF00300F5D9ED
:100C400059E700BF306880017FF554AFFFF702FD20
:100C5000401B02284FF00300F4D94CE70020C4F2F7
:100C6000472000210160FFF7F5FC0546306880074A
:100C70007FF50DAFFFF7EEFC401B02284FF003009D
:100C8000F4D938E7316F002821F001013167316F65
:100C900021F00401316749D0FFF7DCFC054641F241
:100CA000883700BF306F800751D4FFF7D3FC401B5B
:100CB000B842F7D915E03168002821F4803131605D
:100CC000316821F4802131604AD0FFF7C3FC05462A
:100CD000306880033FF5BDAEFFF7BCFC401B6428C5
:100CE000F6D9032002B0BDE8F08104F11C052FCD38
:100CF000084340EA8210D9034FF6FF729143A1F5F1
:100D0000803140EA05600843706001203866FFF7D3
:100D1000A1FC0446306880013FF5ECAEFFF79AFC79
:100D2000001B02284FF00300F4D9E4E6FFF792FC21
:100D3000054641F2883700BF306F800707D5FFF7BF
:100D400089FC401BB8424FF00300F5D9D3E6B8F157
:100D5000000F7FF4A2AE306C20F0805030649CE62F
:100D6000FFF778FC054600BF306880037FF571AE61
:100D7000FFF770FC401B64284FF00300F4D9BAE67B
:100D8000411E0020B0EB116F1CBF012070474EF2D6
:100D90001002CEF2000251604EF62351CEF2000155
:100DA000F0230B70072190601160704770470000BE
:100DB00070470000B0B582B0026805461068D3687D
:100DC000546900F02F01202903F0200106D129B138
:100DD000284602B0BDE8B04000F032BA5FEA007CBD
:100DE0001EBF04F0010E03F4907414EB0E0453D1F3
:100DF000296B012905D110F0100118BF13F0100163
:100E000036D1010622D513F080011FD095F83D00A0
:100E100021283FD1A868B0F5805F03D12869002858
:100E200000F0F780286A411C296200785060E88C45
:100E300001380104E8842DD1D06820F08000D06012
:100E4000D06840F04000D06002B0B0BD400621D56F
:100E500013F040001ED0D068202120F04000D06068
:100E6000284685F83D1002B0BDE8B04000F0CAB990
:100E7000002001901068019050680190019850691D
:100E8000400611D4A88DE98DEB8D002B18BF884248
:100E900040F0A68002B0B0BDC40718BF13F4807341
:100EA0002DD1430731D437E0A86B01684B689CB261
:100EB000002CEFD0A98D8C42ECD2EB85C369B3F541
:100EC000807F17D0D16821F48071D160516921F001
:100ED00001015161516921F040015161202185F8E2
:100EE0003E1000212963D16821F01001D160FFF785
:100EF00075FAA98DE88D081A81B2284684E02B6C1A
:100F000043F001032B64430706D5BEF1000F03D065
:100F10002B6C43F002032B64830706D5BEF1000F50
:100F200003D02B6C43F004032B64BCF1000F09D5F4
:100F300041EA0E03B3FA83F35B0903D12B6C43F050
:100F400008032B642B6C002BA4D010F0200018BFDA
:100F5000002903D0284600F073F92A685069296CEB
:100F600000F0400001F0080140182CD0D06820F4B7
:100F70009070D060506920F001005061286B01280A
:100F800003D1D06820F01000D060202085F83E000A
:100F900000202863506940061CD5506920F04000AD
:100FA0005061A86BB0B141F23521C0F60001016576
:100FB000FFF75AFA00283FF46DAFA86B016D02B03D
:100FC000BDE8B04008472846FFF7F2FE002028643D
:100FD00002B0B0BD284602B0BDE8B040FFF7E8BEA1
:100FE000D368401A23F49073D360536981B223F01D
:100FF00001035361202385F83E3000232B63D3681F
:10100000284623F01003D36002B0BDE8B040FFF7DC
:10101000CDBE286A30F8021B6FF35F215160286251
:1010200005E70000002804BF0120704710B5044602
:1010300090F83D0028B9002084F83C00204600F0DC
:1010400021F8242084F83D002068C16821F4005173
:10105000C160204600F044F92068016921F4904104
:101060000161416921F02A014161C16841F40051E7
:10107000C16000202021206484F83D1084F83E10D7
:1010800010BD000070B586B00024C4F202040068F0
:10109000A4F57041884201D006B070BD002043F62F
:1010A00030010190C4F202014A6901AD42F0100220
:1010B0004A614A69072602F010020192019A0190E2
:1010C0000A6842F001020A600A6802F00102019215
:1010D000019A0190086840F0010008600868012149
:1010E00000F00100019001984FF40070019002207F
:1010F0000290CDE90310204629460596FFF7C6F970
:101100004FF480600190204629460596FFF7BEF90E
:101110002520FFF727FB252003210322FFF736FBBD
:1011200006B070BD034690F83E0020280AD1002981
:101130004FF0010018BF002A00D1704793F83C001F
:10114000012801D1022070470020186399622221F2
:101150009A85DA85186483F83E10196883F83C0094
:10116000CA6842F48072CA604A6942F001024A6168
:10117000CA6842F02002CA607047000080B500686B
:1011800041F20001C4F20101884218BF80BD40F263
:10119000901EC2F2000EBEF90010002924D440F2C5
:1011A0008002C2F2000289B213784A0404D40D2BE3
:1011B0000CD141F4804215E048F2000C0022CFF639
:1011C000FF7C0A2B08BF41EA0C020BE00A4640F202
:1011D000C8006FF39F32C2F2000083544A1CC62934
:1011E00088BF0022AEF8002040F2840040F2800167
:1011F000C2F20000C2F200010122BDE88040FFF708
:1012000091BF000070470000FEE70000FEE700000D
:10121000704700007047000070470000FFF752BAA7
:101220004EF68850CEF20000016841F47001016072
:1012300070470000806B0021C185C184FFF7B8BDF5
:1012400010B5044690F83E00222848D1A2682146F5
:10125000B2F5805F0CD151F8280F51F8182C8AB9DB
:10126000216849686FF35F2120F8021BA0620FE03C
:1012700051F8280F0AB9226922B12268526802F097
:101280007F0201E02268526802700868013008603D
:10129000E08D01380104E08518BF10BD2068C168E9
:1012A00021F02001C160C16821F48071C1604169F1
:1012B00021F001014161202184F83E10216B0129B8
:1012C00008D1C16821F01001C160A18D2046FFF74F
:1012D0006DFD02E02046FFF751FF0020206310BDA6
:1012E00010B504460068D4E902C22369016921F4FB
:1012F000405111430161626943EA0C01E369114302
:10130000C268194349F20C639A431143C1604169B1
:10131000A26921F4407141F20043114340F480621C
:10132000C4F201039A42416102D1FFF72FFB01E0B1
:10133000FFF718FBE16963681922B1F5004FA0FBC4
:10134000020121D15A00DB0FFEF795FF48F21F5131
:10135000C5F2EB11A0FB01235A094FF69C73C0F6AE
:10136000FF7303F1805302FB0300322303EBC00041
:10137000A0FB01014FF4F87000EA111000EB02101D
:10138000C1F3421108441DE09A009B0FFEF773FF62
:1013900048F21F51C5F2EB11A0FB01235A094FF689
:1013A0009C73C0F6FF7302FB0300322303EB0010B3
:1013B000A0FB0101F02000EA511000EB0210C1F384
:1013C000431108442168886010BD000040F2840089
:1013D000C2F20000FFF7EEBCFEE70000704700001D
:1013E00010B586B00020019043F63000C4F2020030
:1013F000016841F2004441F0200101600068C4F23C
:10140000020400F02000019001984FF480700190D8
:101410000120CDE902000320049001A92046FFF736
:1014200035F820464FF480710022FFF705F906B029
:1014300010BD000080B5FFF753F94FF4A8700821E4
:101440000222072300F056F9A82000F097F84FF485
:10145000E13000F0AFF900F05FF8FFF7C1FFBDE841
:10146000804000F00FB8000040F2700243F2000329
:10147000C2F20002C4F20003C2E9003010469160DB
:10148000FFF7EEB82DE9F04186B0002643F63000B4
:101490000196C4F20200016841F2000541F010011A
:1014A00001600168C4F2020501F010010191019987
:1014B000019601680DF1040841F001010160006826
:1014C000012400F00100019001981020CDE90106EF
:1014D00002272846414603940497FEF7D7FF0820C9
:1014E000CDE9010628464146CDE90347FEF7CEFF88
:1014F0000420CDE9010628464146CDE90347FEF721
:10150000C5FF01A8D0C0A5F5805041460497FEF75D
:10151000BDFF06B0BDE8F081B0B586B000200190F7
:1015200043F63000C4F20200016841F2004441F089
:10153000200101600068C4F2020400F02000019064
:1015400001984FF4007001900120CDE902000320C2
:1015500001AD049020462946FEF798FF4FF48060C5
:10156000019020462946FEF791FF20464FF4C061C6
:101570000122FFF761F806B0B0BD000040F27C0127
:10158000C2F200010860704780B54EF2180140F2C7
:101590007C02CEF20001C2F2000251F804CC1268C3
:1015A000002350434FF47A7200FB02FE086809E002
:1015B00003449B1A904298BF63447345104628BF6A
:1015C00080BD00BF0A689042F2D10A689042EFD114
:1015D0000A689042ECD10A689042F3D0E8E7000034
:1015E00040F27000C2F20000FFF766B870B541F239
:1015F000000440F29216C4F20204C2F2000610B1D6
:101600000020307001E0307898BB20461021FFF7B1
:101610000DF880B120460821FFF708F858B12046A0
:101620000421FFF703F830B1A4F580500121FEF743
:10163000FDFF01281DD10A20FFF7A6FF0125204646
:1016400010213570FEF7F2FF60B320460821FEF747
:10165000EDFF48B320460421FEF7E8FF30B3A4F5C0
:1016600080500121FEF7E2FF012804BF042070BD75
:1016700017E020461021FEF7D9FF012811D120469E
:101680000821FEF7D3FF01280BD120460421FEF7E5
:10169000CDFF012805D1A4F580500121FEF7C6FF3A
:1016A00030B10025284670BD022070BD032070BDFA
:1016B00000252846357070BDFFF7BCFE04204FF4AE
:1016C00000714FF40075FFF7CFFE41F20044C4F201
:1016D000020400BFA9B220460022FEF7ADFF00BF02
:1016E0000020FFF783FF0428FAD1FFF779FF4FF4BA
:1016F0008065EFE72DE9F04192B043F640080026FF
:10170000C4F20208CDE90A66CDE908660596CDE97E
:101710000366CDE901660096D8F800704FF48005A5
:1017200047F08057C8F80070D8F8007007F080576D
:101730000097009F47F200070096C4F200073C683C
:1017400044F480443C603F68012407F480470097DC
:10175000009F4FF48037CDE90D510FA9079702275D
:101760000DC106A806940C97FFF75AF9E8B90F20A7
:10177000CDE901074FF4A05004904FF4805005903C
:1017800001A805210396FFF73DF808B101240CE0FC
:10179000FEF758FF41F20101884202BFD8F8C003AA
:1017A00040F48070C8F8C0030024204612B0BDE8A1
:1017B000F081000010B540F2840441F20001C2F251
:1017C0000004C4F2010100220C23C4E900102046E9
:1017D000C4E90222C4E90423A261FFF723FC40F21A
:1017E0008001C2F2000120460122BDE81040FFF74F
:1017F00099BCF1EE100A4FF6FF71C0F2C03120EA39
:10180000010040F04070E1EE100A70470000000057
:1018100000000000010203040607080900000000A0
:101820000102030448180008000000201000000016
:10183000C4010008581800081000002088050000A6
:10184000E001000800000000010000000024F40096
:0818500001000000100000007F
:040000050800018965
:00000001FF
