:020000040800F2
:10000000C807002031020008F31200089F12000800
:10001000F1120008D5050008E51A000800000000EC
:10002000000000000000000000000000F7120008BF
:10003000D705000800000000F51200088D13000825
:100040004B0200084B0200084B0200084B0200085C
:100050004B0200084B0200084B0200084B0200084C
:100060004B0200084B0200084B0200084B0200083C
:100070004B0200084B0200084B0200084B0200082C
:100080004B0200084B0200084B0200084B0200081C
:100090004B0200084B0200084B0200084B0200080C
:1000A0004B0200084B0200084B0200084B020008FC
:1000B0004B0200084B0200084B0200084B020008EC
:1000C0004B0200084B0200084B0200084B020008DC
:1000D0004B020008B91A00084B0200084B02000846
:1000E0004B0200084B0200084B0200084B020008BC
:1000F0004B0200084B0200084B0200084B020008AC
:100100004B0200084B0200084B0200084B0200089B
:100110004B0200084B0200084B0200084B0200088B
:100120004B0200084B0200084B0200084B0200087B
:100130004B0200084B0200084B0200084B0200086B
:100140004B0200084B0200084B0200084B0200085B
:100150004B0200084B0200084B0200084B0200084B
:100160004B0200084B0200084B0200084B0200083B
:100170004B0200084B0200084B0200080000000080
:100180004B0200084B02000800F002F800F041F8B2
:100190000AA090E8000C82448344AAF10107DA45E2
:1001A00001D100F036F8AFF2090EBAE80F0013F0F3
:1001B000010F18BFFB1A43F001031847341B00005E
:1001C000541B0000103A24BF78C878C1FAD85207EF
:1001D00024BF30C830C144BF04680C6070470000C1
:1001E0000023002400250026103A28BF78C1FBD840
:1001F000520728BF30C148BF0B607047642900F028
:10020000EF80002070471FB501F060FD1FBD10B5E5
:1002100010BD00F0ADF91146FFF7F5FF01F0B0FC9D
:1002200000F0CBF903B4FFF7F2FF03BC01F06BFC65
:100230000948804709480047FEE7FEE7FEE7FEE77A
:10024000FEE7FEE7FEE7FEE7FEE7FEE704480549B6
:10025000054A064B70470000911300088901000809
:10026000C8010020C8070020C8030020C8030020E0
:10027000704753EA020C00F069802DE9F04B4FF013
:100280000006002B1FBFB3FA83F503FA05F424FA26
:1002900005F65E4012BF1643B2FA82F502FA05F483
:1002A000C5F120051EBF22FA05FC44EA0C042035E6
:1002B00056EA044C4FEA144418BF641C4FF000087F
:1002C0004FF00009904271EB030C39D3002919BF9C
:1002D000B1FA81F701FA07F6B0FA80F700FA07F6EB
:1002E000C7F120071EBF20FA07FC46EA0C0620379C
:1002F000B6FBF4FCA7EB0507103F07F01F0BCBF193
:1003000020060CFA0BFB2CFA06F644BFB346002677
:10031000202FA4BF5E464FF0000B5BEA060C08BF1F
:100320004FF0010B19EB0B09ABFB027C48EB060805
:10033000C01B06FB02CC0BFB03CC71EB0C01C1E72D
:100340000B46024641464846BDE8F08B13B54FF0D8
:1003500000004FF00001AFF30080BDE81C40704783
:100360000FB4044910B503AA029800F0D3F810BCEA
:100370005DF814FB180000202DE9F0410E460446FC
:10038000002020622046E168884730B3252805D048
:10039000D4E901219047206A401CF2E7E168204639
:1003A00000278847050018D0A5F14100192802D878
:1003B00020354FF400673246294620462760FFF774
:1003C0001DFF40B1012804D0F61D26F007060836AF
:1003D000D8E7361DD6E72846DAE7206ABDE8F0817F
:1003E0002DE9F0410646002410687529314616A50E
:1003F00010D0AFF30080002802DA404213A507E0D6
:1004000031688A0701D512A502E0490704D511A574
:10041000012401E0AFF3008000210A2206F1240745
:1004200009E0B0FBF2FCB0FBF2F302FB1C00303041
:1004300078541846491C0028F3D123462A463046F2
:10044000BDE8F04100F00CB8000000002D000000F5
:100450002B00000020000000704770477047704775
:100460002DE9F0470D4699469246044600F12408CE
:100470000168880604D5E06921F01001216000E0E0
:100480000120A84201DD471B00E00027A1697A197D
:1004900002EB0900081AA0612078C00602D42046A9
:1004A000AFF30080002608E0D4E901211AF8060025
:1004B0009047206A401C761C20624E45F4DB207871
:1004C000C0060AD52046AFF3008006E0D4E901213A
:1004D00030209047206A401C2062381EA7F1010797
:1004E000F4DC07E0D4E9012118F805009047206A00
:1004F000401C2062281EA5F10105F3DC2046AFF365
:1005000000802078000602D50220BDE8F087012097
:10051000FBE70000074B70B50D467B4400F011F877
:100520000446284600F020F810B14FF0FF3070BDAF
:10053000204670BD4F16000001694A1C0261087810
:10054000704700B58FB0CDE9013100210591054913
:100550007944CDE9031011466846FFF70DFF0FB04F
:1005600000BD0000E5FFFFFF007B00F0800070474A
:10057000754600F02BF8AE4605006946534620F05C
:100580000700854618B020B5FFF760FEBDE82040A3
:100590004FF000064FF000074FF000084FF0000B3F
:1005A00021F00701AC46ACE8C009ACE8C009ACE8F2
:1005B000C009ACE8C0098D46704710B50446AFF3DA
:1005C00000802046BDE81040FFF72CBE0048704771
:1005D00068010020FEE7704790F83510022903D02B
:1005E0008021416501207047052180F835100068A1
:1005F000016821F001010160002070472DE9F84FEA
:10060000DFF88C91002209F1040A0AF1040B4FF083
:100610000F080BF1040E01260B6896403340B342DD
:1006200071D14C68022C01D0122C11D1D40800EBEE
:1006300084073D6A5407E40E08FA04FC25EA0C0519
:10064000D1F810C00CFA04FC4CEA050CC7F820C025
:1006500007685400032591F804C0A5400CF0030C72
:10066000AF430CFA04FC4CEA070CC0F800C04F681A
:10067000012F05D0022F03D0112F01D0122F11D13D
:100680008768D1F80CC0AF430CFA04FC4CEA070CA5
:10069000C0F808C04768B7430E79C6F30016964005
:1006A0003E434660C668AE438D68A5403543C5608D
:1006B0004C68E40065D5374C256845F480452560D5
:1006C000246822F0030504F480440094324C2E196F
:1006D000D6F808789407250F08FA05F4A7432F4C9D
:1006E000A04201D1002424E02D4CA04201D10124DC
:1006F0001FE02C4CA04201D102241AE02A4CA04257
:1007000002D1032415E03CE0284CA04201D104248E
:100710000FE0274CA04201D105240AE0254CA0425D
:1007200001D1062405E0244CA04201D1072400E0B9
:100730000824AC403C43C6F80848D9F800404D4670
:100740004E689C43F60300D51C432C60DAF8004049
:1007500055464E689C43B60300D51C432C60DBF81D
:1007600000405D464E689C43F60200D51C432C6059
:10077000DEF8004075464E689C43B60200D51C4327
:100780002C60521C102AFFF446AFBDE8F88F000021
:10079000003C01404438024000300140000002406B
:1007A0000004024000080240000C02400010024019
:1007B0000014024000180240001C02400AB181618E
:1007C00070470904FBE7000001480068000C70470F
:1007D000002004E001488068704700000400002009
:1007E000024881680278114481607047040000204B
:1007F000094810B5016841F400710160016841F4D5
:1008000080610160052000F057F80F2000F006F825
:1008100000F024F8002010BD003C024070B50D4DE2
:1008200004464FF47A712878B1FBF0F00A49096860
:10083000B1FBF0F000F0D0FA48B9102C07D200223A
:100840002146501E00F018F800206C6070BD012099
:1008500070BD000004000020000000207047002848
:1008600009DB00F01F02012191404009800000F1E6
:10087000E020C0F800117047F0B40E4B1B68C3F3C2
:100880000223C3F10704042C00D904241D1D072DE5
:1008900001D2002300E0DB1E012606FA04F56D1EDE
:1008A0000D409D409E40761E164045EA0601F0BC74
:1008B00001F019B90CED00E0064A00F007011068DC
:1008C0004FF6FF03184040EA012003490843106037
:1008D000704700000CED00E00000FA052DE9F0473C
:1008E0000D46040065D0DFF81491D9F80000EFB28E
:1008F00000F00F00A84207D289F80070D9F8000074
:1009000000F00F00A84254D120683D4E810712D557
:10091000400703D5306840F4E0503060207800078D
:1009200003D5306840F4604030603068A16820F042
:10093000F000084330602078C0072DD0304960684F
:100940000839012812D0022813D0032811D00968D1
:10095000890700292DDA316821F003010143316054
:10096000FFF738FF804641F2883A0EE009688903B4
:10097000EFE709688901ECE7FFF72CFFA0EB08011E
:10098000514502D90320BDE8F0873068616800F066
:100990000C00B0EB810FEFD1D9F80010484601F000
:1009A0000F01A94207D90770006800F00F00A842A4
:1009B00001D00120E7E72078400705D53068E168DD
:1009C00020F4E050084330602078000706D53068F6
:1009D000216920F4604040EAC100306000F036F840
:1009E0003168084AC1F30311515CC84006490860E8
:1009F0000F20FFF713FF0020C5E70000003C024076
:100A000008380240D61C00080000002004480549B0
:100A100000680968044AC1F38221515CC8407047EC
:100A20000000002008380240E61C00080448054980
:100A300000680968044AC1F34231515CC8407047FC
:100A40000000002008380240E61C0008154810B5D8
:100A5000006810F00C01144813D0431004290FD083
:100A600008290ED10F4C241F216801F03F02216894
:100A7000490207D52068C0F38810A0FB030106E0F7
:100A8000184610BD2168C1F38811A1FB00010023A5
:100A9000FFF7EFFB2168C1F30141491C4900B0FB9E
:100AA000F1F010BD083802400024F4002DE9F84FA1
:100AB000040073D02078BD4DC00748D0BB48083033
:100AC0000168C1F38101012908D00068C0F38100E9
:100AD00002280AD1281D0068400206D52868800334
:100AE00035D560680028E4D031E06068B0F5803F1B
:100AF00010D0B0F5A02F286810D020F480302860E6
:100B0000286820F4802028606068A0B1FFF762FEAA
:100B100006460CE0286840F48030F4E740F480207A
:100B20002860F7E7FFF756FE801B642872D8286814
:100B30008003F7D50BE0FFF74DFE064604E0FFF714
:100B400049FE801B6428F1D828688003F7D42078F8
:100B5000DFF85C9280074FF0000A3ED593480830DA
:100B6000016811F00C0F09D00068C0F38100022861
:100B70000BD18E48001D0068400206D4286880070B
:100B800015D5E068012809D111E0E068B8B101206D
:100B9000C9F80000FFF71EFE064605E003E1FFF777
:100BA00019FE801B0228C1D828688007F7D528685D
:100BB000216920F0F80040EAC10028600DE0C9F882
:100BC00000A0FFF707FE064604E0FFF703FE801BC8
:100BD00002281FD828688007F7D42078000722D57C
:100BE000724F74496069743770B101200860FFF773
:100BF000F1FD064604E0FFF7EDFD801B022809D851
:100C000038688007F7D50EE0C1F800A0FFF7E2FDD5
:100C1000064605E081E0FFF7DDFD801B02287CD859
:100C200038688007F7D42078400769D5DFF87CB1B1
:100C30004FF000080BF1400BDBF80000C0000CD4B3
:100C4000DBF8001041F08051CBF80010DBF8000019
:100C50004FF0010800F080500090574F3868C005F1
:100C60000FD4386840F480703860FFF7B3FD064653
:100C700004E0FFF7AFFD801B02284ED83868C0059E
:100C8000F7D54A4FA068703701280FD0052838687B
:100C900010D020F001003860386820F0040038607F
:100CA000A068B0B1FFF796FD06460EE0386840F048
:100CB0000100F4E740F004003860F7E7FFF78AFD31
:100CC000811B41F28830814265D838688007F5D5AC
:100CD0000DE0FFF77FFD064606E0FFF77BFD811B79
:100CE00041F28830814256D838688007F5D4B8F18F
:100CF000000F05D0DBF8001021F08051CBF8001078
:100D0000A069C8B3294908310968C1F381010229E2
:100D100049D00228504607D000E03CE0C9F8600006
:100D2000FFF758FD044639E04F46C9F86000FFF769
:100D300051FD064604E0FFF74DFD801B02282AD82E
:100D400028688001F7D4D4E907010843A16A1B4A47
:100D5000490802EB0141626A41EA8211084394F8B2
:100D60002C1040EA01611148001D01600120386625
:100D7000FFF730FD044605E013E0FFF72BFD001BF5
:100D8000022808D828688001F7D50AE0FFF722FD7D
:100D9000001B022802D90320BDE8F88F28688001D3
:100DA000F4D40020F8E70120F6E700000038024004
:100DB00000004742800E4742007000400000FFFFE5
:100DC0004FF0E0210428086903D020F004000861F6
:100DD000704740F00400FAE710B5401EB0F1807F84
:100DE00001D3012010BD4FF0E02460610F21601796
:100DF00000F079FE0020A06107202061002010BDD6
:100E00002DE9F041044690F83C000D4601283CD005
:100E1000012684F83C60022084F83D00A2B3042A35
:100E200045D02068082A54D0D5E90027E968036A2C
:100E300023F480530362D0F81CC0036A2CF4407C76
:100E40004CEA07274FF6FF7C27F470470CEA013184
:100E500039434FF4204723F4204307EA02321A4370
:100E6000C16102622068C16921F44061C1612068EA
:100E7000C169AA6841EA0221C16184F83D6000208D
:100E800084F83C00BDE8F08101E00220FAE7D5E9F2
:100E90000012EB68206800F035FB2068816921F0C2
:100EA0000C01816120688169AA6811430FE0D5E9CE
:100EB0000012EB68206800F065FB2068816921F46E
:100EC0004061816120688169AA6841EA02218161EB
:100ED000D3E7D5E9002C2F7B016A21F480710162F0
:100EE000C169036A21F0030141EA0C0121F0F00C11
:100EF00039074FF420674CEA116123F4206307EAB5
:100F000002221A43C16102622068C16921F00C010A
:100F1000C1612068C169AA681143ADE710B504003A
:100F200003D094F83D0010B107E0012010BD00206F
:100F300084F83C00204600F00DF8022084F83D00C3
:100F4000211D206800F06CFA012084F83D0000208B
:100F500010BD0000114800B5026887B0002142F0C2
:100F600001020260006800F0010005900B48103893
:100F7000026842F001020260006800F00100059082
:100F8000202000900220CDE901010390012004906F
:100F900069460348FFF732FB07B000BD4038024006
:100FA0000000024010B504460068012200F09CFADF
:100FB0002068816801F00701062903D0016841F02B
:100FC00001010160002010BD0246002041B104294A
:100FD00009D008290AD00C2901D11068006C70478B
:100FE0001068406B70471068806B70471068C06B6A
:100FF0007047704710F8391F407808437047000069
:1010000070B5026804461068D168536910F00F0F7C
:1010100050D003F0010501F4907635435DD0C2074E
:1010200005D0CA0503D5E26B42F00102E263420734
:1010300005D5DA0703D0E26B42F00202E2638207D1
:1010400005D5DA0703D0E26B42F00402E26302073F
:1010500005D5DA0703D0E26B42F00802E263E26BE7
:10106000002A33D0800604D5880602D5204600F039
:101070004FFB20684069E16BC0F38010090700D482
:1010800028B3204600F036FB2068416949061AD58E
:10109000416921F040014161606BA0B11B490165CC
:1010A000606BFFF799FA002810D0606B016DBDE806
:1010B00070400847830610D58B060ED52046BDE844
:1010C000704000F025BB2046FFF793FF70BD20461F
:1010D000FFF78FFF0020E06370BD030606D50B0607
:1010E00004D52046BDE8704000F0B4BC4006F3D5FE
:1010F0004806F1D5D168204621F04001D160202179
:1011000084F8391000F0CAF870BD0000E516000838
:1011100070B5040004D094F83900002510B106E041
:10112000012070BD84F83850204600F023F82420B8
:1011300084F839002068C16821F40051C16020465C
:1011400000F032FB2068016921F4904101612068C0
:10115000416921F02A0141612068C16841F40051D0
:10116000C160E563202084F8390084F83A0000204B
:1011700070BD000010B500681A4986B088422FD1B2
:101180001948016841F001010160006800F00100A8
:10119000059015481430016841F0100101600068A5
:1011A000012100F0100005904FF400700090022023
:1011B000CDE90101039007200C4C049069462046BC
:1011C000FFF71CFA2115009169462046FFF716FA31
:1011D0002520FFF744FB032211462520FFF74CFB97
:1011E00006B010BD0010014030380240000002403F
:1011F00090F83A30202B22D1F9B1F2B190F8383082
:10120000012B1CD081628285C2850021C16322220C
:1012100080F83A2080F838100168CA6842F4807279
:10122000CA6001684A6942F001024A610068C16807
:1012300041F02001C160002070470120704702206A
:101240007047000030B50068114988420CD1114A3E
:101250005088010408D41146440409784FF0000373
:1012600006D50A2901D0538030BD40F400400DE07E
:101270000D2909D0C0F30D04074D401C80B229553B
:101280005080C728EFD830BD40F48040508030BD3A
:101290000010014014000020200000207047FEE7ED
:1012A000114810B5016886B041F020010160006866
:1012B0000E4C00F0200005904FF4C060009001201B
:1012C000019002900320039069462046FFF796F9AB
:1012D000012251022046FFF771FA012291022046B5
:1012E000FFF76CFA06B010BD30380240001402401F
:1012F000FEE770477047704770B5214C92B00025EB
:10130000266846F080562660246804F080541194C4
:101310001C4C266846F48046266024680DF1240C97
:1013200004F48044119401240094240401940224C0
:1013300006948CE80D006605CDE907616846FFF765
:10134000B5FB00B1FEE70CA90F2081E831004FF496
:10135000A0500F904FF48050109005210CA8FFF77B
:10136000BDFA00B1FEE7FFF72FFA41F20101884212
:1013700004D10548016841F48071016012B070BD6C
:101380004038024000700040003C0240FFF728BA9D
:101390001048016841F4700101600F48016841F094
:1013A000010101600C4A00210832116002680B4BF8
:1013B0001A400260031D0A4A1A60026822F4802261
:1013C000026005480C300160024958068039086007
:1013D0007047000088ED00E000380240FFFFF6FE95
:1013E000103000241FB50D4A00244FF08043C2E99D
:1013F00002401461C2E900311046FFF78FFD012061
:10140000CDE9004002940022694604480394FFF7A6
:10141000F7FC00210148FFF7C5FD1FBD2801002092
:10142000F0B50268254D264E264FDFF89CC0274BAD
:101430004FF0804EA84209D0704507D0B04205D089
:10144000B84203D0604501D0984203D122F0700425
:101450004A682243A8421BD0704519D0B04217D029
:10146000B84215D0604513D0984211D0184CA04214
:101470000ED0184CA0420BD0174CA04208D0174CED
:10148000A04205D0164CA04202D0164CA04203D177
:1014900022F44074CA6822434C6922F0800222433D
:1014A00002608A68C2620A688262A84201D09842D9
:1014B00001D10969016301214161F0BD00000140D2
:1014C0000004004000080040000C004000040140FF
:1014D0000040014000440140004801400018004025
:1014E000001C00400020004010B501F01F01012346
:1014F000046A8B409C430462036A8A40134303627C
:1015000010BD000070B5046A24F00104046284690F
:10151000056A154EB04214D0B0F1804F11D0134E71
:10152000B0420ED0124EB0420BD0124EB04208D094
:10153000114EB04205D0114EB04202D0104EB04212
:1015400003D124F00304144301E044F001041A071A
:1015500024F0F00444EA126225F00A0301F00A01C3
:1015600019438261016270BD000001400004004027
:1015700000080040000C0040000401400040014011
:101580000018004030B5046A24F010040462856934
:10159000046A25F4407545EA022222F470454FF6AC
:1015A000FF7202EA033224F0A0032A43A02404EAD3
:1015B000011119438261016230BD00002DE9F04143
:1015C0000446002640000321B0FBF1F0C7B23546C7
:1015D000DFF834800DE000F019F8B8F8021001EBE4
:1015E0008101B0EB910F01D96D1CEDB2B04200D971
:1015F0000646641EE4B2EED2BD4202D33046BDE8D8
:10160000F0810020FBE700001C00002010B500F076
:1016100017F80A48084A006805E0416A914202D971
:10162000406A80B210BD0169C9438907F5D4002121
:101630000248FFF7C9FCF4E70AFEFFFF280100207B
:1016400070B586B02020009001250224CDE9015418
:101650000E4E694630460394FEF7D0FF002220214B
:101660003046FFF7ABF8052000F058FA0849A01FF4
:101670000A6810610968002048620495CDE90140BC
:1016800069463046FEF7BAFF06B070BD0000024062
:101690002801002070B50100114C4FF000054FF0FB
:1016A000030002D0002106202170FFF787FF618828
:1016B00003228900B1FBF2F181420AD2618801EB79
:1016C0008101B0EB410F04D2207800B901252270CE
:1016D00001E0207810B12078401E2070284670BDAF
:1016E0001C00002010B5806B0021C185C184FFF76C
:1016F00080FC10BD0168CA6822F49072CA6001685B
:101700004A6922F001024A61202180F83A107047AC
:1017100010B590F83A10222901D0022010BD81683E
:10172000B1F5805F11D00169002901681FD04968B7
:1017300001F07F03816A4A1C82620B70C18D491ED1
:101740000904090CC18518D02BE00269816A002ABE
:101750000268526805D0D2B20A80816A491C81624F
:10176000ECE7C2F308020A80816A891CF7E74A683D
:10177000816A4B1C83620A70E0E70168CA6822F044
:101780002002CA600168CA6822F48072CA600168D7
:101790004A6922F001024A61202180F83A10FFF7DD
:1017A00051FD002010BD00002DE9F0410446006805
:1017B0000169E26821F4405111430161A168206987
:1017C000E26901436069104301432068C26849F23D
:1017D0000C639A430A43C26020684169A26921F4FC
:1017E000407111434161E0696425B0F5004F974AAB
:1017F000974920684FF032083FD0884201D090428C
:101800007CD1FFF713F900EBC00101EB0010616818
:101810008900B0FBF1F6FFF709F900EBC00101EB1D
:10182000001061688900B0FBF1F0B0FBF5F06FF0DB
:101830001801484306EB800108EB0110B0FBF5F0FE
:1018400000F0F006FFF7F2F800EBC00101EB00102A
:1018500061688900B0FBF1F0B0FBF5F006EB001613
:10186000FFF7E4F800EBC00101EB001061688900AC
:10187000B0FBF1F7FFF7DAF8D2E0884201D09042EE
:101880003DD1FFF7D3F800EBC00101EB0010616818
:101890004900B0FBF1F0B0FBF5F00601FFF7C6F828
:1018A00000EBC00101EB001061684900B0FBF1F7EB
:1018B000FFF7BCF800EBC00101EB001061684900C4
:1018C000B0FBF1F0B0FBF5F06FF01801484307EB07
:1018D000800108EBC100B0FBF5F000F0F80006EB6A
:1018E0004006FFF7A3F800EBC00101EB00106168B0
:1018F0004900B0FBF1F7FFF799F83CE055E0FFF73E
:1019000085F800EBC00101EB001061684900B0FBF5
:10191000F1F0B0FBF5F00601FFF778F800EBC0013D
:1019200001EB001061684900B0FBF1F7FFF76EF8BA
:1019300000EBC00101EB001061684900B0FBF1F061
:10194000B0FBF5F06FF01801484307EB800108EB9E
:10195000C100B0FBF5F000F0F80006EB4006FFF721
:1019600055F800EBC00101EB001061684900B0FBC5
:10197000F1F7FFF74BF800EBC00101EB00106168D5
:101980004900B0FBF1F0B0FBF5F06FF018014843EF
:1019900007EB800108EBC100B0FBF5F000F0070099
:1019A000216830448860BDE8F081FFF72FF800EB34
:1019B000C00101EB001061688900B0FBF1F6FFF790
:1019C00025F800EBC00101EB001061688900B0FB55
:1019D000F1F0B0FBF5F06FF01801484306EB800121
:1019E00008EB0110B0FBF5F000F0F006FFF70EF881
:1019F00000EBC00101EB001061688900B0FBF1F061
:101A0000B0FBF5F006EB0016FFF700F800EBC001A5
:101A100001EB001061688900B0FBF1F7FEF7F6FFFB
:101A200000EBC00101EB001061688900B0FBF1F030
:101A3000B0FBF5F06FF01801484307EB800108EBAD
:101A40000110B0FBF5F000F00F00A9E70014014011
:101A50000010014090F83910212901D00220704770
:101A60008168B1F5805F016A0BD04A1C026202688E
:101A700009785160C18C491E0904090CC1840ED03B
:101A800017E009880268C1F3080151600169002963
:101A9000016A02D0491C0162ECE7891CFBE701687E
:101AA000CA6822F08002CA600068C16841F0400143
:101AB000C16000207047000010B50848FFF7A0FA89
:101AC0000648FFF797FA2028FAD101220449034873
:101AD000FFF78EFB0028F8D110BD0000E8000020C1
:101AE00014000020FEE70907090E002804DB00F1BE
:101AF000E02080F80014704700F00F0000F1E020B3
:101B000080F8141D7047704710B504460420FFF795
:101B100057F90148046010BD1000002070B505465B
:101B200000244FF47A7603E0304600F005F8641C98
:101B3000AC42F9D370BD000070B54FF0E025002134
:101B40006C69094AAB6912685043AA699A42FCD091
:101B500002D2A3EB020302E0A4EB020633441944D1
:101B600013468142F1D370BD1000002003490A687A
:101B70005206FCD5C2B24A60704700000010014016
:101B80000024FEF735FE0723022208214FF4A87037
:101B9000FFF7B2FBA820FFF7B7FF4FF4E13000F0EA
:101BA00079F8FFF77DFB082000F022F80F4D0020A8
:101BB000FFF770FD28B1D5F8A80238B10020C5F8AC
:101BC000A802641CE4B20F2C02D008E00120F6E762
:101BD000D5F8A402002430B10020C5F8A4020A20E0
:101BE000FFF79CFFE3E70120F7E700000080424297
:101BF00030B5401E81B285B04FF0FF30FFF7F2FBE9
:101C000000246D46FFF702FD25F81400641CE4B2C1
:101C10000A2CF7D300214C1CE0B20BE035F8112060
:101C200035F810309A4203D925F8113025F81020E4
:101C3000401CC0B20A28F1D3E1B20929EBD300213C
:101C4000022035F81020401C1144C0B289B2082887
:101C5000F7D30620B1FBF0F0074C6080618807A045
:101C6000FEF77EFB6088B0F5004F02D3012005B07F
:101C700030BD0020FBE700001C0000207470616490
:101C80005F64656661756C745F76616C3A25640D9E
:101C90000A0000000B4910B5094AC1E900200020E4
:101CA0008860C860086188610C2048610846FFF7B9
:101CB0002FFABDE81040012203490248FFF798BA05
:101CC00000100140E8000020140000204FF0407098
:101CD000E1EE100A70470000000000000000010261
:101CE00003040607080900000000010203040000C5
:101CF000101D00080000002020000000C4010008A2
:101D0000301D000820000020A8070000E0010008A6
:101D10000024F4000100000010000000000000009A
:101D200000000000000000000000000000000000B3
:040000050800018965
:00000001FF
